:100000000C9466070C9497070C9497070C94970729
:100010000C9497070C9497070C9497070C949707E8
:100020000C9497070C9497070C9497070C949707D8
:100030000C9497070C9497070C9497070C949707C8
:100040000C9497070C9497070C9497070C949707B8
:100050000C9497070C9497070C9497070C94891BA2
:100060000C9497070C945D1C0C94331C0C9497070C
:100070000C9497070C9497070C9497070C94970788
:100080000C9497070C9497070C9497070C94970778
:100090000C9497070C9497070C9497070C94931C57
:1000A0000C9497070C9497070C9497070C94970758
:1000B0000C9497070C9497070C9497070C94970748
:1000C0000C9497070C9497070C9497070C94970738
:1000D0000C9497070C9497070C94FD1B0C94D31B5E
:1000E0000C949707084AD73B3BCE016E84BCBFFDFA
:1000F000C12F3D6C74319ABD56833DDA3D00C77FF8
:1001000011BED9E4BB4C3E916BAAAABE0000008090
:100110003F05A84CCDB2D44EB93836A9020C50B91F
:10012000918688083CA6AAAA2ABE000000803F0645
:1001300064EC1B3C04BC163E3BE5B93CC93C37C2F1
:100140009E5A3D660498083EEA69AAAA3E0000004D
:10015000803F0C9499070C949E150C94F9070C940D
:10016000B8070C94A0080C94EE090C948B1E0C9408
:100170008E090C9432090C940A090C9452190C94AF
:10018000CC090C9415300C9459120C94EE0E0C946E
:10019000B9080C946A150C94A5130C9435140C949E
:1001A0001E090C94A30D0C94330E0C94CB080C94E4
:1001B00098080C94A5080C94F1080C94BD090C94B3
:1001C000F3070C94C2070C94CD130C94CA070C943B
:1001D0008F090C94D3080C9414090C9428110C94D6
:1001E000D3070C94E1140C94FD070C9400090C94B3
:1001F000AF080C94EC0D0C94E0090C94DD080C9401
:10020000EF070C9457150C94CD070C947D0A0C94B1
:10021000E5070C94B5130C94EB070C94D1120C94D5
:1002200028090C94C6070C9471150C94DD070C94E6
:10023000EE120C94F8070C94300A0C94FA110C94FA
:1002400090090C9448150C94D7070C94E1070C9472
:10025000E7080C94FC180C94BE070C94C1130C9482
:10026000C3084E414E494E495459494E46CDCCCC17
:100270003D0AD7233C17B7D13877CC2B329595E67A
:10028000241FB14F0A000020410000C84200401C5A
:100290004620BCBE4CCA1B0E5AAEC59D7400407AA7
:1002A00010F35A00A0724E18090010A5D4E80000FF
:1002B000E87648170000E40B54020000CA9A3B009D
:1002C0000000E1F505000080969800000040420F14
:1002D000000000A08601000000102700000000E8D8
:1002E00003000000006400000000000A000000009D
:1002F000000100000000002C76D888DC674F08233E
:10030000DFC1DFAE59E1B1B796E5E3E453C63AE6A3
:1003100051997696E8E6C28426EB898C9B62ED4083
:100320007C6FFCEFBC9C9F40F2BAA56FA5F49005D2
:100330005A2AF75C936B6CF9676DC11BFCE0E40D06
:1003400047FEF520E6B500D0ED902E0300943577FA
:10035000050080841E080000204E0A000000C80C22
:10036000333333330F986E12831141EF8D2114898B
:100370003BE65516CFFEE6DB18D1844B381BF77CE5
:100380001D901DA4BBE424203284725E228100C92A
:10039000F124ECA1E53D2700000000003E5B4F5B2F
:1003A0003E3E6B4F6B3E1C3E7C3E1C183C7E3C1818
:1003B0001C577D571C1C5E7F5E1C00183C1800FFFC
:1003C000E7C3E7FF0018241800FFE7DBE7FF30482A
:1003D0003A060E2629792926407F050507407F0524
:1003E000253F5A3CE73C5A7F3E1C1C08081C1C3E1B
:1003F0007F14227F22145F5F005F5F06097F017F09
:10040000006689956A606060606094A2FFA29408AB
:10041000047E040810207E201008082A1C08081CEE
:100420002A08081E101010100C1E0C1E0C30383E2E
:100430003830060E3E0E06000000000000005F008F
:10044000000007000700147F147F14242A7F2A125B
:100450002313086462364956205000080703000041
:100460001C2241000041221C002A1C7F1C2A080873
:100470003E08080080703000080808080800006086
:10048000600020100804023E5149453E00427F4072
:100490000072494949462141494D331814127F10D1
:1004A00027454545393C4A4949314121110907361B
:1004B00049494936464949291E00001400000040B8
:1004C00034000000081422411414141414004122B2
:1004D000140802015909063E415D594E7C12111261
:1004E0007C7F494949363E414141227F4141413E5D
:1004F0007F494949417F090909013E414151737FC3
:100500000808087F00417F41002040413F017F08EB
:100510001422417F404040407F021C027F7F04083C
:10052000107F3E4141413E7F090909063E4151216C
:100530005E7F09192946264949493203017F010393
:100540003F4040403F1F2040201F3F4038403F6316
:100550001408146303047804036159494D43007F70
:100560004141410204081020004141417F04020141
:1005700002044040404040000307080020545478E3
:10058000407F284444383844444428384444287F31
:10059000385454541800087E090218A4A49C787F8B
:1005A0000804047800447D40002040403D007F1056
:1005B00028440000417F40007C047804787C0804D3
:1005C00004783844444438FC182424181824241887
:1005D000FC7C08040408485454542404043F442474
:1005E0003C4040207C1C2040201C3C4030403C448F
:1005F000281028444C9090907C4464544C4400084B
:100600003641000000770000004136080002010278
:1006100004023C2623263C1EA1A161123A40402040
:100620007A385454555921555579412254547842B9
:10063000215554784020545579400C1E527212397D
:100640005555555939545454593955545458000036
:10065000457C410002457D420001457C407D1211F0
:10066000127DF0282528F07C545545002054547CF8
:10067000547C0A097F4932494949323A4444443A50
:10068000324A4848303A4141217A3A424020780083
:100690009DA0A07D3D4242423D3D4040403D3C2426
:1006A000FF2424487E4943662B2FFC2F2BFF09296A
:1006B000F620C0887E090320545479410000447D0F
:1006C000413048484A32384040227A007A0A0A7259
:1006D0007D0D19317D2629292F2826292929263003
:1006E000484D4020380808080808080808382F1026
:1006F000C8ACBA2F102834FA00007B000008142A76
:10070000142222142A14085500550055AA55AA553A
:10071000AAFF55FF55FF000000FF00101010FF005A
:10072000141414FF001010FF00FF1010F010F0144C
:100730001414FC001414F700FF0000FF00FF141451
:10074000F404FC141417101F10101F101F1414149D
:100750001F00101010F0000000001F101010101FDC
:1007600010101010F010000000FF101010101010EA
:10077000101010FF10000000FF140000FF00FF0029
:10078000001F10170000FC04F414141710171414A1
:10079000F404F40000FF00F714141414141414F7F4
:1007A00000F7141414171410101F101F141414F44D
:1007B000141010F010F000001F101F0000001F1494
:1007C000000000FC140000F010F01010FF10FF14E7
:1007D0001414FF141010101F00000000F010FFFF91
:1007E000FFFFFFF0F0F0F0F0FFFFFF00000000005F
:1007F000FFFF0F0F0F0F0F3844443844FC4A4A4A9A
:10080000347E02020606027E027E0263554941637F
:100810003844443C04407E201E2006027E02029999
:10082000A5E7A5991C2A492A1C4C7201724C304A32
:100830004D4D303048784830BC625A463D3E4949BB
:1008400049007E0101017E2A2A2A2A2A44445F4463
:100850004440514A444040444A51400000FF010393
:10086000E080FF000008086B6B083612362436065D
:100870000F090F060000181800000010100030408B
:10088000FF0101001F01011E00191D1712003C3C51
:100890003C3C0000000000000103070F1F3F7F00E9
:1008A00080C0E0F0F8FCFEDB40A4A62EAF2000A143
:1008B000C8D300408DAED580A800006000000000C5
:1008C00000000000000000000000E0000000000048
:1008D000000000000000000001E000000000000037
:1008E0000000000000000001F00000000000000017
:1008F00000000000000003F0000000000000000005
:10090000000000000007F0000000000000000000F0
:100910000000000007F800000000000000000000D8
:100920000000000FF800000003C0007E000001E09E
:10093000007F0FF800000003C000FE000001E0008F
:10094000FFEFF800000003C000FE000001E000FF20
:10095000FFF800000003C000F00000000F007FFE61
:100960007FC0000003C000F00000000F003FFE7FCA
:10097000F83FF1FBCFFCFEF3BC3DEFE01FFE7FFF35
:100980007FFBFFDFFEFEFFBC3DEFE01FC6FFFF7FEA
:10099000FBFFDFFEFEFFBC3DEFE00FE3C7FE787B11
:1009A000C3DE1EF0FFBC3DEF0007FF87FC787BC372
:1009B000DE1EF0F83C3DEF0001FFFFF0007BC3C0FE
:1009C0001EF0F03C3DEF0001F37FE03FFBC3CFFEA4
:1009D000F0F03C3DEF0003E33F807FFBC3DFFEF020
:1009E000F03C3DEF0007E73C00787BC3DE1EF0F0F3
:1009F0003C3DEF0007FFBE00787BC3DE1EF0F03CFD
:100A00003DEF0007FFFE00787BC3DE1EF0F03C3DAB
:100A1000EF000FFFFE007FFBFFDFFEF0F03FFDEF7A
:100A2000E00FFFFF007FFBFFDFFEF0F03FFDEFE098
:100A30000FF9FF003E79F9CF9EF0F01F3DE7E01F70
:100A4000F1FF0000000000000000000000001F8017
:100A5000FF007FFFFFFFFFFFFFFFFFFFE01C007FA6
:100A6000007FFFFFFFFEB46D888D18E000001F00BF
:100A70007FFFFFFFFE95AD7DB577E000000F007FA3
:100A8000FFFFFFFEA5AD9D8D19E0000006007FFF72
:100A9000FFFFFEB5ADEDB57EE00000000000018077
:100AA00000000000000000000003800000000000C3
:100AB0000000000007C00000000000000000000768
:100AC000C00000000000000000000FC00000000097
:100AD00000000000001FE000000000000000000017
:100AE0001FE00000000000000000003FE0000000E8
:100AF0000000000000003FF00000000000000000C7
:100B0000007FF0000000000000001FF87FF00000F0
:100B100000000000003FFE7FF00000000000000029
:100B20003FFF7FF0000000000000001FFFFBE0001F
:100B30000000000000000FFFF9FFC00000000000EF
:100B4000000FFFF9FFF800000000000007FFF1FFB1
:100B5000FF00000000000003FC73FFFF80000000A6
:100B6000000001FE3FFFFF80000000000000FF1EAC
:100B70000FFF000000000000007FFE1FFC000000CF
:100B8000000000003FFFFFF8000000000000000F21
:100B9000DFFFE0000000000000001F19FFC00000A0
:100BA00000000000003F3CFF0000000000000000CB
:100BB0007E7CF800000000000000007FFE7C00004A
:100BC000000000000000FFFFFC000000000000002B
:100BD00000FFFFFE0000000000000000FFFFFE001D
:100BE00000000000000001FFEFFE00000000000018
:100BF0000001FFCFFE0000000000000003FF07FE21
:100C00000000000000000003FC07FE0000000000E0
:100C1000000003F003FE000000000000000180005F
:100C2000FE000000000000000000007E0000000048
:100C30000000000000003E00000000000000000076
:100C4000000C000000000000078000FC000003C052
:100C5000000000078001FC000003C00000000780C6
:100C600001FC000003C0000000078001E00000005C
:100C70001E000000078001E00000001E007FE3F777
:100C80009FF9FDE7787BDFC0FFF7FFBFFDFDFF7831
:100C90007BDFC0FFF7FFBFFDFDFF787BDFC0F0F714
:100CA00087BC3DE1FF787BDE00F0F787BC3DE1F0DB
:100CB000787BDE0000F787803DE1E0787BDE007F17
:100CC000F7879FFDE1E0787BDE00FFF787BFFDE15E
:100CD000E0787BDE00F0F787BC3DE1E0787BDE006A
:100CE000F0F787BC3DE1E0787BDE00F0F787BC3DA4
:100CF000E1E0787BDE00FFF7FFBFFDE1E07FFBDF97
:100D0000C0FFF7FFBFFDE1E07FFBDFC07CF3F39F97
:100D10003DE1E03E7BCFC00000000000000000008D
:100D20000000FFFFFFFFFFFFFFFFFFFFC0FFFFFF10
:100D3000FFFD68DB111A31C0FFFFFFFFFD2B5AFBDF
:100D40006AEFC0FFFFFFFFFD4B5B3B1A33C0FFFFA5
:100D5000FFFFFD6B5BDB6AFDC04372616E65205275
:100D60006561647921004549543620434536203673
:100D700033300057616974206372616E652073744B
:100D8000617274696E672E2E0053534431333036CE
:100D900020616C6C6F636174696F6E206661696C51
:100DA00065640000002100240027002A002D003087
:100DB00000330001010000040107010A01000022C4
:100DC00000250028002B002E003100340002010015
:100DD00000050108010B0100002000230026002966
:100DE000002C002F00320000010000030106010961
:100DF0000105050505070508080808020202020AA0
:100E00000A080804040404010101010101010103AD
:100E100003030303030303040707070C0C0C0C0C68
:100E20000C0C0C0202020206060606060606060B5B
:100E30000B0B0B0B0B0B0B010210202008081020D2
:100E40004010204080020102010804020101020456
:100E50000810204080804020100804020180040215
:100E6000018040201008040201080402010102046C
:100E70000810204080010204081020408000000A71
:100E80000B02090C0D0E080703040100000000000E
:100E90000000000000000000000000000000000052
:100EA000000000000000000000121110000000000F
:100EB0000000000000000000000000000000000032
:100EC0000000002200FF21008B1E153011241FBEE0
:100ED000CFEFD1E2DEBFCDBF00E00CBF12E0A0E05B
:100EE000B2E0E4E1F5E700E00BBF02C007900D922D
:100EF000AE3CB107D9F726E0AEECB2E001C01D92DE
:100F0000AD3AB207E1F717E0C5E6D7E000E006C06A
:100F100021970109802FFE010E94CD35C436D107EB
:100F200080E00807A9F70E9457200C94783A0C94A7
:100F3000000008958150823108F05AC0E82FF0E097
:100F40008827EA55F84F8F4F0C94CD35C607CA074E
:100F5000B807BE07C207F807CD07D307D707DD07D5
:100F6000E107E507EB07EF07F807F307F907FD07C8
:100F7000809180008F778093800008958091800019
:100F80008F7DF9CF80918000877FF5CF84B58F77F3
:100F900084BD089584B58F7DFBCF8091B0008F779D
:100FA0008093B00008958091B0008F7DF9CF80913B
:100FB00090008F77809390000895809190008F7DAE
:100FC000F9CF80919000877FF5CF8091A0008F7737
:100FD0008093A00008958091A0008F7DF9CF80912B
:100FE000A000877FF5CF809120018F77809320012B
:100FF0000895809120018F7DF9CF80912001877F16
:10100000F5CF1F93CF93DF93282F30E0F901E358FA
:10101000F14F8491F901E95CF14FD491F901EF505E
:10102000F24FC491CC23A9F0162F81110E949A0788
:10103000EC2FF0E0EE0FFF1FE354F24FA591B491B7
:101040008FB7F894EC91111108C0D095DE23DC9392
:101050008FBFDF91CF911F910895DE2BF8CFCF93F3
:10106000DF9390E0FC01E95CF14F24918F50924FA7
:10107000FC0184918823D1F090E0880F991FFC0136
:10108000ED55F24FA591B491FC01E354F24FC59197
:10109000D49161110EC09FB7F8948C91E22FE09526
:1010A0008E238C932881E223E8839FBFDF91CF9129
:1010B00008958FB7F894EC91E22BEC938FBFF6CFA5
:1010C0001F93CF93DF93182FEB0161E00E942F084D
:1010D000209739F460E0812FDF91CF911F910C941C
:1010E0000108CF3FD10511F461E0F5CFE12FF0E029
:1010F000E358F14FE491E150E23108F0B3C0F0E081
:101100008827EA57F74F8F4F0C94CD359808A008E1
:10111000A508AF08B9083209C308CB08D308DD0811
:10112000E708F10800090A09320914091E0928090B
:1011300084B5806884BDC7BDDF91CF911F910895AC
:1011400084B5806284BDC8BDF7CF8091800080687F
:1011500080938000D0938900C0938800EDCF809168
:101160008000806280938000D0938B00C0938A00BF
:10117000E3CF80918000886080938000D0938D00C1
:10118000C0938C00D9CF8091B00080688093B0006C
:10119000C093B300D1CF8091B00080628093B00043
:1011A000C093B400C9CF8091900080688093900074
:1011B000D0939900C0939800BFCF80919000806237
:1011C00080939000D0939B00C0939A00B5CF8091FC
:1011D0009000886080939000D0939D00C0939C0005
:1011E000ABCF8091A00080688093A0008091A00088
:1011F0008F7B8093A000D093A900C093A8009CCFC0
:101200008091A00080628093A000D093AB00C09337
:10121000AA0092CF8091A00088608093A000D09314
:10122000AD00C093AC0088CF80912001806880938E
:101230002001D0932901C09328017ECF8091200105
:10124000806280932001D0932B01C0932A0174CF38
:1012500080912001886080932001D0932D01C0935C
:101260002C016ACFC038D1050CF03ECF33CF3FB749
:10127000F89480919B0390919C03A0919D03B09161
:101280009E0326B5A89B05C02F3F19F00196A11D0E
:10129000B11D3FBFBA2FA92F982F8827BC01CD01C0
:1012A000620F711D811D911D42E0660F771F881F1F
:1012B000991F4A95D1F708958F929F92AF92BF924E
:1012C000CF92DF92EF92FF924B015C010E943709AF
:1012D0006B017C010E9437096C197D098E099F09F9
:1012E000683E734081059105A8F321E0821A9108B8
:1012F000A108B10888EEC80E83E0D81EE11CF11CDD
:1013000081149104A104B10429F7FF90EF90DF90BC
:10131000CF90BF90AF909F908F90089508950895BB
:10132000AF92BF92CF92DF92EF92FF920F931F93F3
:10133000CF93DF936C017B018B01040F151FEB0131
:101340005E01AE18BF08C017D10759F06991D601E8
:10135000ED91FC910190F081E02DC6011995892B4A
:1013600079F7C501DF91CF911F910F91FF90EF9019
:10137000DF90CF90BF90AF900895FC01538D448DC6
:10138000252F30E0842F90E0821B930B541710F030
:10139000CF96089501970895FC01918D828D98173D
:1013A00061F0A28DAE0FBF2FB11D5D968C91928D15
:1013B0009F5F9F73928F90E008958FEF9FEF089546
:1013C000FC01918D828D981731F0828DE80FF11D0F
:1013D000858D90E008958FEF9FEF0895FC01918D2A
:1013E000228D892F90E0805C9F4F821B91098F7323
:1013F0009927089587E895E00E94EE0921E0892B5E
:1014000009F420E0822F089587EA93E00E94EE0914
:1014100021E0892B09F420E0822F0895FC01A48D9E
:10142000A80FB92FB11DA35ABF4F2C91848D90E006
:1014300001968F739927848FA689B7892C93A089E9
:10144000B1898C91837080648C93938D848D981373
:1014500006C00288F389E02D80818F7D8083089506
:10146000EF92FF920F931F93CF93DF93EC0181E0F4
:10147000888F9B8D8C8D98131AC0E889F98980819B
:1014800085FF15C09FB7F894EE89FF896083E889CE
:10149000F98980818370806480839FBF81E090E0C0
:1014A000DF91CF911F910F91FF90EF900895F62E4D
:1014B0000B8D10E00F5F1F4F0F731127E02E8C8DE7
:1014C0008E110CC00FB607FCFACFE889F98980812C
:1014D00085FFF5CFCE010E940E0AF1CFEB8DEC0F08
:1014E000FD2FF11DE35AFF4FF0829FB7F8940B8F49
:1014F000EA89FB8980818062CFCFCF93DF93EC01B3
:10150000888D8823B9F0AA89BB89E889F9898C91EB
:1015100085FD03C0808186FD0DC00FB607FCF7CFA7
:101520008C9185FFF2CF808185FFEDCFCE010E94A7
:101530000E0AE9CFDF91CF91089580E090E0892BEA
:1015400029F00E94040A81110E94000080E090E0CE
:10155000892B49F080E090E0892B29F00E9400005F
:1015600081110E94000080E090E0892B49F080E02A
:1015700090E0892B29F00E94000081110E94000058
:1015800080E090E0892B29F00E94FA0981110C94E7
:10159000000008954F925F926F927F928F929F9278
:1015A000AF92BF92CF92DF92EF92FF920F931F9371
:1015B000CF93DF93CDB7DEB766970FB6F894DEBF53
:1015C0000FBECDBF9E8B8D8B2A013B010D831E83E9
:1015D0002F833887FC01C080D180E280F38020E037
:1015E00030E0A901C701B6010E944B34882309F4F9
:1015F00007C1A3019201C701B6010E94B13420E0E6
:1016000030E0A9010E94D6356B017C01ED89FE898D
:1016100080849184A284B38420E030E0A901C501D4
:10162000B4010E944B34882309F48CC020E034E2DA
:1016300044E759E4C501B4010E94B13469877A874F
:101640008B879C87ED89FE89258D368D478D50A12E
:10165000C301B2010E94D5356D877E878F87988B35
:101660006D817E818F8198850E94503469837A8351
:101670008B839C83ED89FE89808D882309F4C4C007
:1016800020E034E244E759E469817A818B819C81CE
:101690000E9476364B015C01ED89FE8924853585F3
:1016A000468557850E94D6359B01AC01C501B40122
:1016B0000E9476364B015C01AC019B0160E070E05A
:1016C00080E89FE30E94D535ED89FE89248935891C
:1016D000468957890E94B134698B7A8B8B8B9C8B9E
:1016E000A50194016D857E858F8598890E94B1340E
:1016F0009B01AC0169897A898B899C890E94D635C6
:101700009B01AC01ED89FE89248B358B468B578B71
:1017100069857A858B859C850E94B13429813A81BF
:101720004B815C810E9476369B01AC01ED89FE897C
:1017300021A332A343A354A3C701B6010E94D63507
:101740006B017C01ED89FE8984809580A680B7803D
:1017500020E030E0A901C501B4010E944B34882388
:1017600081F1A3019201C501B4010E94B1344B0182
:101770005C016D817E818F8198850E9450349B0130
:10178000AC01C501B4010E94B13420E034E244E769
:1017900059E40E947636ED89FE8925A136A147A13C
:1017A00050A50E94D6359B01AC01ED89FE8925A389
:1017B00036A347A350A7C701B6010E94D6356B01D7
:1017C0007C01ED89FE89458E568E678E70A2C70119
:1017D000B60166960FB6F894DEBF0FBECDBFDF919F
:1017E000CF911F910F91FF90EF90DF90CF90BF901E
:1017F000AF909F908F907F906F905F904F900895E3
:10180000C12CD12C760102CF2D853E854F8558897C
:101810007FCF4F925F926F927F928F929F92AF9203
:10182000BF92CF92DF92EF92FF92CF93DF9300D0DF
:1018300000D0CDB7DEB79E838D8349835A836B83F7
:101840007C830E9437096B017C01ED81FE818481DC
:101850009581A681B781A7019601281B390B4A0BF8
:101860005B0BCA01B9010E94503420E034E244E726
:1018700059E40E9476364B015C01ED81FE812081A6
:101880003181428153810E94D6359B01AC01C50153
:10189000B4010E9476364B015C01AC019B0160E013
:1018A00070E080E89FE30E94D535ED81FE812085C0
:1018B0003185428553850E94B1342B013C01A5013D
:1018C000940169817A818B819C810E94B1349B0152
:1018D000AC01C301B2010E94D635ED81FE81608763
:1018E000718782879387C482D582E682F7822696A3
:1018F0000FB6F894DEBF0FBECDBFDF91CF91FF9042
:10190000EF90DF90CF90BF90AF909F908F907F909F
:101910006F905F904F900895EF92FF920F931F93F7
:10192000CF93DF93EC01EC80FD806E157F050CF00A
:1019300070C057FF04C0240F351F50E040E08E8177
:101940009F81FA01E20FF31F8E179F071CF49C0181
:10195000241B350B121613060CF05BC0922F842F3C
:101960008695869586958E9DD0018F9DB00D11240C
:101970006A0F7B1FAF8DB8A1A60FB71F477049F143
:1019800088E0841B482F682F70E0FB01E156F74F79
:10199000E491281708F063C0621B71092FEF30E053
:1019A00002C0359527956A95E2F7E22301301105CB
:1019B00039F0B0F10230110561F58C91E82702C0D1
:1019C0008C91E82BEC93941720F12C813D81A20F90
:1019D000B31FE92FE41BE83078F00230110521F540
:1019E0008E2F9C9190959C932C813D81A20FB31FCB
:1019F00088508830B0F7E770EE2359F0F0E0E956F0
:101A0000F74FE49101301105F9F010F102301105A2
:101A100019F1DF91CF911F910F91FF90EF900895F1
:101A2000E0958C91E823CECF81E00115110509F4F2
:101A300080E081959E2F8C932C813D81A20FB31F56
:101A400098509830C0F7D7CF8C91E82BEC93E1CF2A
:101A5000E0958C91E823FACF8C91E827F7CF0130FD
:101A6000110509F4ADCFE0F20230110509F4A5CF5C
:101A7000AE0DBF1DAECF0F931F93CF93DF9377FFB4
:101A800004C0260F371F70E060E0DC011496CD9192
:101A9000DC91FB01E20FF31FCE17DF071CF49E0160
:101AA000261B370B121613064CF5FA0157FD379615
:101AB000A3E0F595E795AA95E1F7EC9FD001ED9F9E
:101AC000B00DFC9FB00D11246A0F7B1FDC015F96E7
:101AD000ED91FC91E60FF71F4770552781E090E0EC
:101AE00001C0880F4A95EAF7482F0130110559F0D7
:101AF000A8F02E0F3F1F02301105E1F0DF91CF91CA
:101B00001F910F9108952E0F3F1FE217F307B1F3B6
:101B10008191DF011197842B8C93F7CF80952E0F45
:101B20003F1FE217F30751F39191DF0111979823BB
:101B30009C93F7CFE217F30709F38191DF01119727
:101B400084278C93F7CF0F931F93FA01DC015696ED
:101B50004C9156974230E9F04330A1F1413061F5A4
:101B600014964D915C91DA01AE1BBF0BFD01E21B97
:101B7000F30B77FD0BC0DC0116964D915C91641759
:101B8000750724F4AB01BF010E943B0D1F910F911B
:101B9000089514964D915C91DA01A61BB70BBD0117
:101BA00061507109DC0116964D915C91DA01AE1B12
:101BB000BF0BFD01E21BF30B77FDE8CFAF010E94E5
:101BC0008C0CE4CF16964D915C91DA01A61BB70BF5
:101BD000BD0161507109CDCF0F931F93FA01DC0154
:101BE00056964C9156974230A9F0433091F14130CE
:101BF00019F514964D915C91DA01AE1BBF0BFD01F6
:101C00003197F7FD04C0AB01BF010E948C0C1F91FE
:101C10000F91089514964D915C91DA01A61BB70BB4
:101C2000BD01DC0116964D915C91DA01AE1BBF0B34
:101C3000FD013197621B730BF7FDE9CFDC011696AE
:101C40004D915C91E417F50714F7AF010E943B0D2D
:101C5000DECF16964D915C91DA01A61BB70BBD0144
:101C6000621B730BCECFFC0177FD64C0808591852C
:101C7000681779070CF05EC057FD5CC082859385BC
:101C8000481759070CF056C086898230B1F083306E
:101C900029F1813041F484819581841B950BAB013E
:101CA000BC01615071092130310509F108F443C0CC
:101CB0002230310509F463C0089584819581DC01E7
:101CC000A61BB70BBD016150710986819781DC01AC
:101CD000A41BB50BAD0141505109E5CF8681978119
:101CE000861B970BBA01AC0141505109DCCFCA01E8
:101CF00057FD0796A3E095958795AA95E1F7A481EE
:101D0000B5818A9F90018B9F300D9A9F300D1124D1
:101D1000620F731F078CF0A1E02DE60FF71F4770CD
:101D2000552721E030E001C0220F4A95EAF7808173
:101D3000822B80830895CA0157FD079633E095955D
:101D400087953A95E1F7A481B5818A9F90018B9F91
:101D5000300D9A9F300D1124620F731F078CF0A174
:101D6000E02DE60FF71F4770552781E090E001C096
:101D7000880F4A95EAF7809590818923DACFCA01C6
:101D800057FD079623E0959587952A95E1F7A4815D
:101D9000B5818A9F90018B9F300D9A9F300D112441
:101DA000620F731F078CF0A1E02DE60FF71F47703D
:101DB000552721E030E001C0220F4A95EAF78081E3
:101DC0008227B7CF08958EBD00000DB407FEFDCF6A
:101DD0008EB508958CBD9DBD08950895FC01637076
:101DE000668B8481958126813781613039F063303B
:101DF00029F091878087338722870895318720874C
:101E00009387828708952F923F924F925F926F92AD
:101E10007F928F929F92AF92BF92CF92DF92EF927A
:101E2000FF920F931F93CF93DF93CDB7DEB76A97DF
:101E30000FB6F894DEBF0FBECDBF9A8F898F7A831D
:101E400069834A01D22E18870F833701BC2CDC012D
:101E500059962D913C915A972115310509F015C1DC
:101E600018968D919C911997681779070CF0D7C136
:101E70001A968D919C91481759070CF0D0C14C2CA3
:101E8000512CB6E0CB9E600D711D11247C876B87B1
:101E9000161617060CF0C3C1EA2DF0E0FA87E987A1
:101EA00093E0EE0FFF1F9A95E1F7F88BEF87CF01D4
:101EB000840F951F181619060CF0B1C1A98DBA8DA3
:101EC00058968C91811104C0BFEABD1508F4D394D3
:101ED000A98DBA8DED91FC9111970284F385E02DC7
:101EE000CD011995B5E0DB9EC0011124E981FA818D
:101EF000FC83EB83312C212C9C0129563C4F388FDD
:101F00002F8B4A2D50E05E8B4D8BEF89F88DE20DC3
:101F1000F31D44919E828D82D12CC12C69817A81DE
:101F2000620D731D7A8B698B842F90E09C8B8B8B59
:101F3000E98DFA8DA081B18140FF82C0F1E0BF122E
:101F40006FC0AF126DC01C96ED91FC912F8138854A
:101F5000A4014C0D5D1D69897A89898D9A8D199529
:101F6000EB89FC89F595E7954E2F5FEFC51AD50AE9
:101F70006D817E818D899E89680F791F7E836D8337
:101F800098E0C916D10481F6AFEF2A1A3A0AEB811C
:101F9000FC81E40DF51DFC83EB83F5E02F16310485
:101FA00009F0B3CF2F81388526153705B9F0A98DF3
:101FB000BA8DED91FC91B1E0BB1257C0AB1255C088
:101FC00069817A816B5F7F4F0088F189E02D830101
:101FD00028E030E0A401898D9A8D1995A98DBA8DDC
:101FE000ED91FC9111970688F789E02DCD016A9655
:101FF0000FB6F894DEBF0FBECDBFDF91CF911F911A
:102000000F91FF90EF90DF90CF90BF90AF909F9097
:102010008F907F906F905F904F903F902F9019948A
:102020001E96ED91FC91EF80F88409851A85920146
:102030004D815E816B817C81898D9A8D199590CFC0
:102040002F8138852615370509F48ACF31E0B31280
:1020500007C0A31205C01C96ED91FC91930178CFA7
:102060001E96ED91FC917301E0CF6B857C85641920
:1020700075090684F785E02D73010F851889920193
:10208000A401898D9A8D1995A9CFF901349694915F
:10209000329745915491D91AB7E0DB9E400D511DFE
:1020A0001124F901259134913C8B2B8BFA01259059
:1020B0003490FA013296749031963491398B32967D
:1020C00064903196449041E04C1518F04A1508F0A0
:1020D0007FC0662D062C000C770B7C836B83842DD0
:1020E000042C000C990B9E838D83A98DBA8DED91E4
:1020F000FC9111970284F385E02DCD011995512CA7
:10210000D12CC12CEA2DF0E0FA87E9872B2D30E0A5
:102110003C872B87A401440D511D47FC5A95588FCD
:102120004F8B69817A81660D711D67FC7A957E8778
:102130006D877989C71608F051CF2C2D30E04D817D
:102140005E81420F531FA985BA854A9FC0014B9FEC
:10215000900D5A9F900D1124FC01E80DF91DF88B8C
:10216000EF87852D612C4F89588D420F531F5E8B51
:102170004D8B671408F050C044244394480E877078
:1021800041F4C1010196EB89FC89E20DF31DD49065
:102190001C01D7FE19C0A98DBA8DED91FC91662D59
:1021A00070E0B1E0BB1219C0AB1217C02D853E859F
:1021B000620F731F0484F585E02D2F8138854D89CA
:1021C0005E89898D9A8D1995DD0C6394842DD1CF0C
:1021D0001E821D821C821B8288CF4B815C81640F12
:1021E000751FAB85BC856A9FC0016B9F900D7A9F60
:1021F000900D112469817A81680F791F0684F78513
:10220000E02DEF80F88409851A859D014F85588956
:10221000898D9A8D1995D8CF570CC3948ACF6A9619
:102220000FB6F894DEBF0FBECDBFDF91CF911F91E7
:102230000F91FF90EF90DF90CF90BF90AF909F9065
:102240008F907F906F905F904F903F902F90089568
:102250008F929F92AF92CF92EF92FF920F931F9324
:10226000CF93DF93EC01262F898D9A8D009709F08B
:1022700051C06A30D1F41D861C868D8948E0849F48
:10228000900111248E859F85820F931F9F878E87D3
:1022900081E090E0DF91CF911F910F91FF90EF903F
:1022A000CF90AF909F908F9008956D3089F3CC8838
:1022B000AD888F898823C1F08C859D8536E0C39ECB
:1022C000800D911D1124488559854817590764F4DC
:1022D0004E855F851D861C8638E0A39EC0011124B3
:1022E000840F951F9F878E87EA88FB880889198944
:1022F0004E855F856C857D85CE010E94030F2C89FC
:102300008C859D8546E0249F800D911D11249D871D
:102310008C87BECF6A3069F41D861C86FC01389616
:10232000E4912D898E859F85E29F800D911D11245A
:10233000ADCF6D3009F4ACCFFC0134963491631706
:1023400008F4A6CF3296E491E61708F4A1CFFC0179
:10235000329685909490462F431B342F47E0349F4C
:10236000800C911C1124F401329634913196E49141
:102370003323A9F1EE2399F1CC88F4013596E49149
:10238000AD884F89442301F10E2E000CFF0BE30FA3
:10239000F11DCE9EA001CF9E500D11246C857D8530
:1023A000460F571F68857985641775076CF44E854D
:1023B0005F851D861C86FC013896E491AE9E400D1B
:1023C000511D11245F874E87EA88FB880889198987
:1023D0004E855F856C857D85CE010E94030FF401DB
:1023E0003496E4912C898C859D85E29F800D911D0A
:1023F00011248DCF6F927F928F929F92AF92BF9256
:10240000CF92DF92EF92FF920F931F93CF93DF93C0
:10241000EC016B015A0139014801E881F98102841C
:10242000F385E02D1995E881F9810288F389E02D83
:1024300087019301A501B601CE011995A501480DAB
:10244000591D41505109E881F9810288F389E02D35
:102450009301B601CE011995E881F9810088F189CF
:10246000E02D9401A501B601CE011995C60CD71C2B
:10247000B60161507109E881F9810088F189E02D88
:102480009401A501CE011995E881F9810688F789A3
:10249000E02DCE01DF91CF911F910F91FF90EF9032
:1024A000DF90CF90BF90AF909F908F907F906F9074
:1024B00019946F927F928F929F92AF92BF92CF9218
:1024C000DF92EF92FF920F931F93CF93DF935C0104
:1024D000EB016A01490138018701DC01ED91FC91B2
:1024E0006217730719F5641675062CF0962D872D63
:1024F0003A01C92ED82E9601261937092F5F3F4F72
:10250000048CF58DE02DA301BE01C5011995DF9165
:10251000CF911F910F91FF90EF90DF90CF90BF90E0
:10252000AF909F908F907F906F90089546155705BC
:1025300091F42617370724F0892D4B01C22FD82F8D
:102540009E01281939092F5F3F4F068CF78DE02D2A
:10255000A601B401DACF0284F385E02D1995D501E7
:10256000ED91FC910488F589E02D83019401A60189
:10257000BE01C5011995D501ED91FC910688F78939
:10258000E02DC501DF91CF911F910F91FF90EF904A
:10259000DF90CF90BF90AF909F908F907F906F9083
:1025A0001994EF92FF920F931F93DC011A960D91ED
:1025B0001C911B9718962D913C911997ED91FC91C8
:1025C00000A0F1A1E02D7B0150E040E070E060E070
:1025D00019951F910F91FF90EF9008954F925F9280
:1025E0006F927F928F929F92AF92BF92CF92DF9223
:1025F000EF92FF920F931F93CF93DF936C012B0108
:102600005A0139014801DC01ED91FC910284F38506
:10261000E02D1995E201640C751CD601ED91FC9139
:10262000C615D7055CF40088F189E02D8701940177
:10263000A501BE01C60119952196EFCF0688F7893D
:10264000E02DC601DF91CF911F910F91FF90EF9088
:10265000DF90CF90BF90AF909F908F907F906F90C2
:102660005F904F9019948F929F92AF92BF92CF92AA
:10267000DF92EF92FF920F931F93CF93DF93EC01C2
:102680005B014A016901E881F9810284F385E02D4B
:10269000199595012C0D3D1D21503109E881F981D5
:1026A0000488F589E02D78018401A401B501CE01EB
:1026B0001995E881F9810688F789E02DCE01DF912F
:1026C000CF911F910F91FF90EF90DF90CF90BF902F
:1026D000AF909F908F9019948F929F92AF92BF92DC
:1026E000CF92DF92EF92FF920F931F93CF93DF93DE
:1026F000EC015B014A0169017801E881F9810284FA
:10270000F385E02D1995C80CD91C860101501109DB
:10271000E881F9810488F589E02D9501A401B501CE
:10272000CE011995E881F9810688F789E02DCE015F
:10273000DF91CF911F910F91FF90EF90DF90CF909D
:10274000BF90AF909F908F901994EF92FF920F934C
:102750001F93DC01ED91FC9100A0F1A1E02D1995F2
:102760001F910F91FF90EF9008950F931F93DC013D
:10277000ED91FC91068CF78DE02D19951F910F912D
:1027800008950F931F93DC01ED91FC91048CF58D5E
:10279000E02D19951F910F910895DC01ED91FC91A9
:1027A0000084F185E02D19943F924F925F926F92D1
:1027B0007F928F929F92AF92BF92CF92DF92EF92D1
:1027C000FF920F931F93CF93DF935C017B014A012C
:1027D0006901390187E0680E711C93E07594679474
:1027E0009A95E1F72B01400E511E10E000E0312CCC
:1027F000D0E0C0E0CE0187709927330C892B59F4C3
:10280000FE0183E0F595E7958A95E1F7E00FF11F6A
:10281000E80DF91D349037FE0AC021E030E0A70131
:10282000B5016C0F7D1F8CE095E00E94CD132196C1
:10283000CC16DD06F9F68FEFE81AF80A060D171D1B
:10284000E414F504A9F6DF91CF911F910F91FF9049
:10285000EF90DF90CF90BF90AF909F908F907F9040
:102860006F905F904F903F9008952F923F924F92BC
:102870005F926F927F928F929F92AF92BF92CF9210
:10288000DF92EF92FF920F931F93CF93DF9300D0CD
:1028900000D0CDB7DEB73C016A013E832D83FC82B8
:1028A000EB825801A41AB50AB7FE03C0B194A194F3
:1028B000B1088D809E80861A970A97FE03C0919476
:1028C000819491088A149B045CF0902F812F0D81D4
:1028D0001E819D838E839C2D8D2D6B01692F782FFA
:1028E0000C151D055CF09D818E817E836D83692FA3
:1028F000782F902F812F8601C92ED82E1601201AED
:10290000310A2B012D813E81421A530A57FE03C022
:10291000519441945108710137FE03C03FEFE31A0F
:10292000F30AF594E7948D819E81861797075CF5ED
:10293000A1E0B0E0BA83A983C016D1064CF1D3015F
:10294000ED91FC910484F585E02D2B813C81A8015B
:102950006D817E818A149B041CF04D815E81B801DB
:10296000C3011995E418F508F7FE0AC02D813E81D0
:1029700089819A81280F391F3E832D83E20CF31C35
:102980000F5F1F4FD9CF2FEF3FEF3A832983D4CF6B
:1029900026960FB6F894DEBF0FBECDBFDF91CF9164
:1029A0001F910F91FF90EF90DF90CF90BF90AF906D
:1029B0009F908F907F906F905F904F903F902F905F
:1029C0000895089520913403260F3327331F2132B1
:1029D0003105ECF420915803FC0190E080E02430B4
:1029E00069F082E00895A09134032191AC014C5E1E
:1029F0005C4FA40FB52FB11D2C930196861798F349
:102A000080913403680F6093340380E0089581E07F
:102A100008951092580381E080935A03109259034D
:102A200061E084E10E94010861E085E10E94010803
:102A3000E9EBF0E080818E7F808380818D7F8083D1
:102A400088E48093B80085E48093BC000895CF9318
:102A5000DF9391E0909313038823B9F0C091B800FD
:102A6000D091BA008091BC008A7B8093BC0060E06A
:102A700084E10E94010860E085E10E9401080E9453
:102A80000915D093BA00C093B800DF91CF91089593
:102A9000E091840380918303E81730F4F0E0E25181
:102AA000FD4F808190E008958FEF9FEF0895909102
:102AB0008403809183032FEF3FEF981748F4E92FA9
:102AC000F0E0E251FD4F208130E09F5F909384035E
:102AD000C90108958091830390918403891B990B08
:102AE0000895CF92DF92EF92FF920F931F93CF93AF
:102AF000DF937C01CB018A012091A603222389F078
:102B0000EB016B01C40ED51ECC15DD0569F0699192
:102B1000D701ED91FC910190F081E02DC70119954D
:102B2000F3CF642F0E94E214C801DF91CF911F916F
:102B30000F91FF90EF90DF90CF900895CF93DF93A8
:102B40001F92CDB7DEB769832091A6032223F9F047
:102B50002091A303203258F021E030E0FC013383C0
:102B6000228390E080E00F90DF91CF9108958091D3
:102B7000A403E82FF0E0E253FD4F998190838F5F2B
:102B80008093A4038093A30381E090E0ECCF61E005
:102B9000CE0101960E94E214F7CFCF92DF92EF921E
:102BA000FF920F931F93CF93DF93D091A30381E004
:102BB000D13208F09CC0C091A5030E9437096B0177
:102BC0007C018091580381116CC082E0809358038E
:102BD00081E080935A038FEF8093570310927C0318
:102BE000D0937B03AEECB2E0EBE5F3E080E0D813EA
:102BF0008DC010927D0380917D03CC0FC82BC093B4
:102C00007D0380915903813009F084C010925903EB
:102C10000E9437096B017C0180917D038093BB008A
:102C200080910F0390911003A0911103B0911203B2
:102C3000892B8A2B8B2BA1F00E94370900910F035F
:102C40001091100320911103309112036C197D092A
:102C50008E099F09061717072807390708F442C08D
:102C60008091BC0083FDD8CF85EC8093BC000E948E
:102C700037096B017C0180915803823009F44CC004
:102C8000809157038F3F09F469C0809157038032C8
:102C900009F466C080915703803309F463C084E06F
:102CA00026C080910F0390911003A0911103B09161
:102CB0001203892B8A2B8B2B09F483CF0E943709AF
:102CC00000910F0310911003209111033091120312
:102CD0006C197D098E099F09061717072807390700
:102CE00008F06FCF80910E030E94271585E01092A7
:102CF000A4031092A3031092A603DF91CF911F911A
:102D00000F91FF90EF90DF90CF9008959D91919358
:102D10008F5F6DCF85EEA9CF80910F039091100347
:102D2000A0911103B0911203892B8A2B8B2B09F4EC
:102D3000A2CF0E94370900910F0310911003209138
:102D40001103309112036C197D098E099F09061732
:102D500017072807390708F08ECFC4CF80E0C7CF08
:102D600082E0C5CF83E0C3CFEF92FF920F931F9312
:102D7000CF93DF937C01C62F8091290590912A057E
:102D8000009709F459C020912D0531E03093A60336
:102D90002093A5031092A4031092A303DC01ED91EC
:102DA000FC910190F081E02D60E019958701EE24FF
:102DB000E394F12CD1E0C1508091290590912A052E
:102DC000CF3F91F1B0E2EB16F104D8F00E94CD159F
:102DD0008091290590912A0520912D05D093A60375
:102DE0002093A5031092A4031092A303DC01ED919C
:102DF000FC910190F081E02D60E01995EE24E394C0
:102E0000F12C8091290590912A05F8016491DC014B
:102E1000ED91FC910190F081E02D1995BFEFEB1A37
:102E2000FB0A0F5F1F4FC7CFDF91CF911F910F910B
:102E3000FF90EF900C94CD15E0913905F0913A0593
:102E4000908180913F058095892380838701C150BF
:102E500008F438C0F80184912091270530912805A5
:102E6000232B29F00E94E30E0F5F1F4FF0CF28E0C5
:102E700030E040E8E0913505F091360590913D0550
:102E8000582F5423D9F05081952B9083E09137052A
:102E9000F0913805908150913E05952B9083E091FB
:102EA0003705F0913805508190913E059095952316
:102EB0009083469521503109E9F6D6CF50819095FF
:102EC0009523E3CFDF91CF911F910F91FF90EF906A
:102ED00008951F93CF93DF93EC018D8D9E8D009706
:102EE00021F1162F29A131E03093A6032093A503E9
:102EF0001092A4031092A303DC01ED91FC910190C8
:102F0000F081E02D60E019958D8D9E8DDC01ED91B5
:102F1000FC910190F081E02D612F19958D8D9E8D92
:102F2000DF91CF911F910C94CD15ADA5BEA59C91BD
:102F30008BA9809589238C938B8D9C8D892B31F067
:102F4000862FDF91CF911F910C94E30E28E030E0A3
:102F500080E8A9A5BAA599A9462F4823C1F04C91AC
:102F6000942B9C93ABA5BCA59C914AA9942B9C93B4
:102F7000ABA5BCA54C919AA9909594239C9386955A
:102F80002150310931F7DF91CF911F9108954C9174
:102F900090959423E6CFDF92EF92FF920F931F93C9
:102FA000CF93DF938091290590912A05892B09F40D
:102FB00098C02091410530914205409143055091C0
:102FC000440560E074E284EF90E00E949C3520515B
:102FD0003109410951095695479537952795209311
:102FE000B80065E083EC9EE00E94B4166091100585
:102FF00061508CE095E00E94691720911205309194
:103000001305C901079697FD079633E095958795B7
:103010003A95E1F72091100530911105829F8001CA
:10302000839F100D929F100D1124C0912B05D091FC
:103030002C058091290590912A050C0F1D1F0097E2
:1030400009F48FC020912D0531E03093A603209321
:10305000A5031092A4031092A303DC01ED91FC914F
:103060000190F081E02D60E41995EE24E394F12CB9
:10307000DD24D3948091290590912A050C171D0712
:1030800009F446C0B0E2EB16F104D8F00E94CD1569
:103090008091290590912A0520912D05D092A603B3
:1030A0002093A5031092A4031092A303DC01ED91D9
:1030B000FC910190F081E02D60E41995EE24E394F9
:1030C000F12C8091290590912A056991DC01ED91FF
:1030D000FC910190F081E02D1995BFEFEB1AFB0AEE
:1030E000C9CF8091270590912805892B31F08091D7
:1030F0004A0590914B050E94EA0EE0913B05F09144
:103100003C0590818091400580958923808369CF1B
:103110000E94CD158091290590912A05892B09F4EB
:1031200061C0209145053091460540914705509179
:10313000480560E074E284EF90E00E949C352051E5
:10314000310941095109569547953795279520939F
:10315000B800DF91CF911F910F91FF90EF90DF901A
:103160000895E0913905F0913A05808190913F05ED
:10317000892B80830C171D0769F2899120912705FF
:1031800030912805232B19F00E94E30EF3CF28E09D
:1031900030E040E8E0913505F091360590913D052D
:1031A000582F5423D9F05081952B9083E091370507
:1031B000F0913805908150913E05952B9083E091D8
:1031C0003705F0913805508190913E0590959523F3
:1031D0009083469521503109E9F6CCCF50819095E6
:1031E0009523E3CFE0913B05F0913C0580819091E0
:1031F0004005892B8083ADCF1F93CF93DF93EC01E4
:10320000162F8D8D9E8D892BB1F12DA93EA94FA929
:1032100058AD60E074E284EF90E00E949C3520514C
:1032200031094109510956954795379527952093BE
:10323000B80066EA111167EACE010E9469178D8D08
:103240009E8D892B41F129AD3AAD4BAD5CAD60E06F
:1032500074E284EF90E00E949C35205131094109CD
:10326000510956954795379527952093B800DF91DA
:10327000CF911F9108958B8D9C8D892B21F08EAD60
:103280009FAD0E94EA0EEFA5F8A990818CA98095C8
:1032900089238083CECFEFA5F8A980819CA9892BB3
:1032A0008083E5CF90E080E0089520911205309171
:1032B0001305C901079697FD079623E09595879515
:1032C0002A95E1F72091100530911105829FA00108
:1032D000839F500D929F500D112470E060E080910B
:1032E0002B0590912C050C94453ACF93DF93EC017C
:1032F00088819981009711F00E94CD381982188237
:103300001D821C821B821A82DF91CF910895FC01DD
:1033100080819181009711F00C94CD3808950E941E
:10332000373AFB0101900020E9F73197AF01461BC6
:10333000570BDC01ED91FC910280F381E02D199493
:103340000F931F93CF93DF93EC01FB0144815581D1
:1033500060817181E881F9810280F381E02D199506
:103360008C016AE572E0CE010E949119800F911FD5
:10337000DF91CF911F910F9108950F931F93CF93DA
:10338000DF93EC010E9491198C016AE572E0CE0195
:103390000E949119800F911FDF91CF911F910F9182
:1033A0000895EF92FF920F931F93CF93DF938C01B9
:1033B0007B01D0E0C0E0F701EC0FFD1F64916623B4
:1033C00061F0D801ED91FC910190F081E02DC801F0
:1033D0001995892B11F02196EECF6AE572E0C801AC
:1033E0000E9491198C0F9D1FDF91CF911F910F911A
:1033F000FF90EF900895CF93DF93DC0114962D9109
:103400003C911597232B79F0FB01CD91DC916081E4
:103410007181CE010E945E3A009729F08C1B9D0BB2
:10342000DF91CF9108958FEF9FEFFACF0F931F9306
:10343000CF93DF93EC0188819981009759F02A811D
:103440003B812617370730F081E0DF91CF911F9144
:103450000F9108958B016F5F7F4F0E94563900973F
:1034600059F0998388831B830A832C813D81232B08
:1034700059F7FC011082E8CF80E0E7CFEF92FF928E
:103480000F931F93CF93DF936115710541F480E093
:10349000DF91CF911F910F91FF90EF90089541150B
:1034A0005105B1F07B01EC010C811D81040F151F4A
:1034B000B8010E94161A882351F3288139818C8122
:1034C0009D81B701820F931F0E94573A1D830C8381
:1034D00081E0DECFCF93DF93EC01FB010190002070
:1034E000E9F73197AF01461B570B0E943E1A811135
:1034F00003C0CE010E947519CE01DF91CF910895CE
:10350000CF93DF93EC01FB01448155816081718190
:103510000E943E1A811103C0CE010E947519CE018E
:10352000DF91CF910895EF92FF920F931F93CF9366
:10353000DF93EC017B018A01BA010E94161A811106
:103540000BC0CE010E947519CE01DF91CF911F9162
:103550000F91FF90EF9008951D830C83B701888130
:1035600099810E94573AF0CFFB0101900020E9F7C2
:103570003197AF01461B570B0C94931AFC01118233
:1035800010821382128215821482FB0101900020A6
:10359000E9F73197AF01461B570B0C94931AAF9282
:1035A000BF92CF92DF92EF92FF920F931F93CF9330
:1035B000DF936C015B017A0189012417350720F440
:1035C0008F2D7901042F182F6CE572E0C6010E943F
:1035D000BE1AD5011496CD91DC91EC16FD06E0F4EF
:1035E0000C171D0708F4E801D501ED91FC91119726
:1035F000EC0FFD1F108110826D917C916E0D7F1D6F
:10360000C60161157105A1F00E94B41AF50180810F
:103610009181C80FD91F1883C601DF91CF911F91E7
:103620000F91FF90EF90DF90CF90BF90AF900895F3
:103630000E947519EBCFEF92FF920F931F93CF93D8
:10364000DF93CDB7DEB7A1970FB6F894DEBF0FBEFC
:10365000CDBF7C01CB01BA01F70111821082138228
:1036600012821582148242E0420F8E010F5F1F4FBB
:103670000E942730009789F0BC01C7010E94B41A4C
:10368000A1960FB6F894DEBF0FBECDBFDF91CF91EC
:103690001F910F91FF90EF900895C7010E94751937
:1036A000EFCF85ED8093BC0080910F0390911003C4
:1036B000A0911103B09112030796A11DB11D23E043
:1036C000B695A795979587952A95D1F72091BC0037
:1036D00024FD03C010925803089540910F035091A8
:1036E00010036091110370911203452B462B472B59
:1036F00069F30097A105B10541F025E32A95F1F79B
:1037000000000197A109B109E1CF80910E030C944B
:1037100027151F920F920FB60F9211242F933F93EC
:103720008F939F93AF93BF9380919F039091A0033A
:10373000A091A103B091A20330919A0323E0230F3B
:103740002D3758F50196A11DB11D20939A03809342
:103750009F039093A003A093A103B093A203809131
:103760009B0390919C03A0919D03B0919E030196B1
:10377000A11DB11D80939B0390939C03A0939D0377
:10378000B0939E03BF91AF919F918F913F912F91E5
:103790000F900FBE0F901F90189526E8230F0296EA
:1037A000A11DB11DD2CF1F920F920FB60F921124FF
:1037B0000BB60F922F933F934F935F936F937F932B
:1037C0008F939F93AF93BF93EF93FF9387E895E019
:1037D0000E940E0AFF91EF91BF91AF919F918F913F
:1037E0007F916F915F914F913F912F910F900BBE01
:1037F0000F900FBE0F901F9018951F920F920FB64B
:103800000F9211240BB60F922F938F939F93EF93E8
:10381000FF93E0919705F09198058081E0919D05D7
:10382000F0919E0582FD1DC090818091A0058F5F63
:103830008F732091A105821741F0E091A005F0E07F
:10384000E957FA4F958F8093A005FF91EF919F91D3
:103850008F912F910F900BBE0F900FBE0F901F9066
:1038600018958081F2CF1F920F920FB60F921124FC
:103870000BB60F922F933F934F935F936F937F936A
:103880008F939F93AF93BF93EF93FF9387EA93E058
:103890000E940E0AFF91EF91BF91AF919F918F917E
:1038A0007F916F915F914F913F912F910F900BBE40
:1038B0000F900FBE0F901F9018951F920F920FB68A
:1038C0000F9211240BB60F922F938F939F93EF9328
:1038D000FF93E091B703F091B8038081E091BD03BD
:1038E000F091BE0382FD1DC090818091C0038F5F67
:1038F0008F732091C103821741F0E091C003F0E083
:10390000E955FC4F958F8093C003FF91EF919F91F4
:103910008F912F910F900BBE0F900FBE0F901F90A5
:1039200018958081F2CF1F920F920FB60F9211243B
:103930000BB60F922F933F934F935F936F937F93A9
:103940008F939F93AF93BF93EF93FF938091B900B1
:10395000887F803609F44DC008F040C0883209F4F1
:10396000A9C028F5803109F49DC0C8F4882309F462
:10397000FBC0883009F496C0FF91EF91BF91AF91E1
:103980009F918F917F916F915F914F913F912F9177
:103990000F900BBE0F900FBE0F901F90189588319F
:1039A00009F488C0803241F78093570314C08034F3
:1039B00009F49DC040F48033B9F38833E9F680936D
:1039C000570385ECB0C0803509F485C0883509F40B
:1039D00096C0883489F60E94511BCECF883909F4ED
:1039E0008CC038F5883729F050F4883611F08037CC
:1039F00019F683E0809358031092560357C0883815
:103A000009F47BC0803919F0803809F0B5CF809176
:103A10005603803208F071C0E091560381E08E0FAA
:103A2000809356038091BB00F0E0EA5CFC4F8083FA
:103A30003DC0803B39F0E0F4803A09F479C0883A1F
:103A400009F09ACF84E080935803109235031092C6
:103A50003403E0918103F09182031995809134033E
:103A600081110FC081E0809334031092140309C0C8
:103A7000803C09F4A6CF883C09F4A3CF883B09F029
:103A80007BCFE091350381E08E0F80933503F0E02A
:103A9000EC5EFC4F80818093BB0090913503809158
:103AA000340329C080917D038093BB0085EC809313
:103AB000BC0062CF90917C0380917B03981758F5EE
:103AC000E0917C0381E08E0F80937C03F0E0E55A67
:103AD000FC4F8081E9CFE0917C0381E08E0F8093E1
:103AE0007C038091BB00F0E0E55AFC4F808390910D
:103AF0007C0380917B039817C8F285E8D8CFE091CA
:103B00007C0381E08E0F80937C038091BB00F0E00A
:103B1000E55AFC4F808380915A0381115CCF81E08C
:103B20008093590384EA8093BC001092580324CFF9
:103B300085EC8093BC00109258038091560380322C
:103B400030F4E0915603F0E0EA5CFC4F10826091A3
:103B5000560370E0E0917F03F091800386E393E0E9
:103B600019951092560308CF1092570334CFCF9374
:103B7000DF93282F30E0F901E358F14F8491F901E8
:103B8000E95CF14FD491F901EF50F24FC491CC238D
:103B9000A1F081110E949A07EC2FF0E0EE0FFF1FB9
:103BA000E952F24FA591B491EC91ED2381E090E0C0
:103BB00009F480E0DF91CF91089580E090E0FACFA2
:103BC000865320917B00982F987F277F922B90938C
:103BD0007B008770806480937C0080917A00806491
:103BE00080937A0080917A0086FDFCCF80917800E6
:103BF0009091790008952FB7F89480919F03909148
:103C0000A003A091A103B091A2032FBF8093AF03A3
:103C10009093B003A093B103B093B20387EA93E00B
:103C20000E94CC0997FF26C02FB7F89480919F037C
:103C30009091A003A091A103B091A2032FBF409146
:103C4000AF035091B0036091B1037091B203841B34
:103C5000950BA60BB70B4091AB035091AC03609151
:103C6000AD037091AE0384179507A607B707B0F2AE
:103C70008FEF9FEF08958F929F92AF92BF92CF9256
:103C8000DF92EF92FF920F931F93CF93DF93EC019C
:103C90006A017B012C813D814E815F81CB01B601A0
:103CA0000E94D5354B015C010E94370908811981BA
:103CB0002A813B81601B710B820B930B0E94503455
:103CC0009B01AC01C501B4010E94763668877987F3
:103CD0008A879B870E943709688379838A839B83BD
:103CE000CC82DD82EE82FF8220E034E244E759E4B8
:103CF000688579858A859B850E94B134DF91CF9153
:103D00001F910F91FF90EF90DF90CF90BF90AF90F9
:103D10009F908F900895BF92CF92DF92EF92FF9283
:103D20000F931F93CF93DF93C7E8D5E01B821A82CE
:103D300088EE93E0A0E0B0E08C839D83AE83BF83E8
:103D40002EE032E03983288345E351E05D874C87DC
:103D500044E351E05F874E8740E351E0598B488B45
:103D600041E351E05B8B4A8B42E351E05D8B4C8B2E
:103D700046E351E05F8B4E8B198E1A8E1B8E1C8E84
:103D8000E7EAF3E01382128284839583A683B783E4
:103D90003183208325EC30E03587248724EC30E024
:103DA0003787268720EC30E0318B208B21EC30E008
:103DB000338B228B22EC30E0358B248B26EC30E0E9
:103DC000378B268B118E128E138E148E00E015E029
:103DD000F8011382128284839583A683B78380E2DD
:103DE00092E091838083EEE7F6E0158E168E178EB3
:103DF00010A211A212A213A214A215A216A217A217
:103E000010A6C12CD12C80E8E82E8FE3F82EC082BA
:103E1000D182E282F3821482158216821782C086D2
:103E2000D186E286F3868AE097EDA3EABCE3848735
:103E30009587A687B787BB24B394B08EE5E5F6E0F7
:103E4000158E168E178E10A211A212A213A214A202
:103E500015A216A217A210A680E090E0A0E8BEE38B
:103E600080839183A283B383148215821682178282
:103E7000C086D186E286F3868DEC9CECACE4BDE393
:103E800084879587A687B787B08EECE2F6E0158E1B
:103E9000168E178E10A211A212A213A214A215A29E
:103EA00016A217A210A640E050E066E173E440833A
:103EB000518362837383148215821682178240E0D5
:103EC00050E066E972E44087518762877387848790
:103ED0009587A687B787B08E6CE572E086E296E09C
:103EE0000E94BE1AD0932506C0932406ECE4F5E0A8
:103EF000B28213821482158216821782108611866E
:103F0000128613861486158616861786108A118ADD
:103F1000128A138A148A158A168A178A108E118EAD
:103F2000128E138E148E158E168E178E10A211A25D
:103F300012A213A214A215A216A217A210A611A6CD
:103F400012A6ECE0F5E01382128220E830E035831F
:103F5000248380E290E0978386833187208793874C
:103F60008287168A1586148617861686B58AB48ABD
:103F70008FEF9FEF938B828B918B808BB78A108E04
:103F8000128E118E82E392E091838083148E138EC1
:103F9000168F058F10A2178E8FEF84A385A386A39B
:103FA00087A380A780E89AE1A6E0B0E085AB96AB56
:103FB000A7ABB0AF80EA96E8A1E0B0E081AF92AFE6
:103FC000A3AFB4AF80E586AF17AE8DEC9CECACE44C
:103FD000BEE38093F4049093F504A093F604B093A9
:103FE000F7048FE892ECA5EFBCE38093E80490938C
:103FF000E904A093EA04B093EB048093DC0490936B
:10400000DD04A093DE04B093DF048093D00490938A
:10401000D104A093D204B093D304C092C404D0922C
:10402000C504E092C604F092C7048DEC9CECACECA5
:10403000BDE38093B8049093B904A093BA04B093FD
:10404000BB0480E091EEA5EFB5E08093AC049093C3
:10405000AD04A093AE04B093AF048093A0049093FA
:10406000A104A093A204B093A3048093940490931A
:104070009504A0939604B09397048093880490933A
:104080008904A0938A04B0938B0410927804109250
:10409000790410927A0410927B04DF91CF911F91E2
:1040A0000F91FF90EF90DF90CF90BF900895CF9346
:1040B000DF93CDB7DEB7CE58D1090FB6F894DEBF87
:1040C0000FBECDBF789484B5826084BD84B5816015
:1040D00084BD85B5826085BD85B5816085BD8091D3
:1040E0006E00816080936E0010928100809181004B
:1040F0008260809381008091810081608093810043
:10410000809180008160809380008091B100846004
:104110008093B1008091B00081608093B000809165
:1041200091008260809391008091910081608093E2
:104130009100809190008160809390008091A10017
:1041400082608093A1008091A10081608093A10092
:104150008091A00081608093A00080912101826005
:1041600080932101809121018160809321018091C0
:10417000200181608093200180917A008460809387
:104180007A0080917A00826080937A0080917A0030
:10419000816080937A0080917A00806880937A00B1
:1041A0001092C10080E090E0A0E0BFE3809385031F
:1041B00090938603A0938703B093880380E090E0F8
:1041C000A0E4BFE38093890390938A03A0938B03B9
:1041D000B0938C0360E08FE30E942F0860E08EE3D1
:1041E0000E942F0860E080E40E942F0860E082E0D7
:1041F0000E942F0860E083E00E942F0860E086E3C1
:104200000E942F0860E087E30E942F0861E088E0A9
:104210000E942F0861E089E00E942F0861E08AE097
:104220000E942F0861E08BE00E942F0861E084E388
:104230000E942F0861E082E30E942F08E091970519
:10424000F091980522E02083E0919305F091940588
:104250001082E0919505F09196058FEC8083109285
:104260009F05E0919B05F0919C0596E09083E0917D
:104270009905F0919A05808180618083E09199058C
:10428000F0919A05808188608083E0919905F09192
:104290009A05808180688083E0919905F0919A0564
:1042A00080818F7D8083E091B703F091B8032083F4
:1042B000E091B303F091B4031082E091B503F09163
:1042C000B60380E180831092BF03E091BB03F091BD
:1042D000BC039083E091B903F091BA0380818061BF
:1042E0008083E091B903F091BA0380818860808374
:1042F000E091B903F091BA03808180688083E091F6
:10430000B903F091BA0380818F7D808381E29EEBB7
:10431000A8E8B0E489839A83AB83BC834FE759E96B
:104320006EEF70EC4D835E836F83788782EC90E54F
:10433000A1E7B0E489879A87AB87BC8781E493EBD8
:10434000A0E8B0E48D879E87AF87B88B498B5A8BE6
:104350006B8B7C8B8D8B9E8BAF8BB88F198E1A8E4F
:104360001B8E1C8E1D8E1E8E1F8E18A219A21AA2C5
:104370001BA21CA21DA21EA21FA218A619A61AA645
:104380001BA61CA61DA61EA61FA618AA1DAA1EAA0D
:104390001FAA18AE86E696E6A6E1B0E489AF9AAF0A
:1043A000ABAFBCAF80E090E0A0E0B0E421968CAF72
:1043B0009DAFAEAFBFAF21978AE097EDA3E2BCE31C
:1043C00025968CAF9DAFAEAFBFAF259784E4FE01BD
:1043D0003196A4E4B4E001900D928A95E1F760ED86
:1043E00077E080E090E00E945C0980912B0590913D
:1043F0002C05892B41F52091120530911305C90137
:10440000079697FD0796B3E095958795BA95E1F7DE
:104410002091100530911105AC01429FC001439FCE
:10442000900D529F900D11240E94313890932C05CD
:1044300080932B05892B39F469E87DE087EA93E0C6
:104440000E94D119FFCF0E94551920911205309179
:1044500013058091100590911105B90121323105A4
:104460000CF45AC26054710977FF02C06F5F7F4F2E
:10447000759567958255910997FD019600E410E0C6
:1044800022E530E049E95AE0959587950E94D413DA
:1044900082E080932E058091290590912A05892B31
:1044A00009F44DC28CE380932D0510928403109281
:1044B00083031092A4031092A3030E9409158EE8AF
:1044C00099E090938203809381038FE899E0909321
:1044D000800380937F038091340587FD1EC061E0D7
:1044E0000E942F0861E0809134050E94010861E07C
:1044F00070E080E090E00E945C0960E0809134050B
:104500000E9401086AE070E080E090E00E945C098F
:1045100061E0809134050E94010880912905909105
:104520002A05892B09F4CAC2209141053091420520
:10453000409143055091440560E074E284EF90E0BF
:104540000E949C35205131094109510956954795E2
:10455000379527952093B80064E085EB98E00E949A
:10456000B4166091120561508CE095E00E946917C5
:1045700064E081EB98E00E94B41680912E0560E122
:10458000813009F064E18CE095E00E94691764E0F5
:104590008DEA98E00E94B4168FE8809349058091D7
:1045A0001005909111058038910509F0A0C2809105
:1045B0001205909113058034910509F0A8C28091ED
:1045C0002E05813009F091C28FE98093490512E1EF
:1045D0006AED8CE095E00E946917612F8CE095E010
:1045E0000E94691761E88CE095E00E94691760916C
:1045F00049058CE095E00E94691769ED8CE095E033
:104600000E94691780912E0562E2813009F061EF06
:104610008CE095E00E94691766E087EA98E00E94C6
:10462000B4168091290590912A05892B09F473C24B
:104630002091450530914605409147055091480528
:1046400060E074E284EF90E00E949C3520513109D3
:104650004109510956954795379527952093B800FC
:104660000E945519FF24F394F0922005F092210541
:1046700001E010E010931F0500931E0510931D0527
:1046800000931C05109219051092180510921B0535
:1046900010921A0563E77DE08CE095E00E94D11945
:1046A000109219051092180584E190E090931B0573
:1046B00080931A0566E67DE08CE095E00E94D119B2
:1046C0000E94CB1760ED77E080E090E00E945C09EB
:1046D0006DE572E087EA93E00E94BD190E945519CA
:1046E000F0922005F092210510931F0500931E05FE
:1046F00010931D0500931C051092190510921805C2
:1047000010921B0510921A0569E57DE08CE095E09A
:104710000E94D1190E94CB170E9437096B017C01BE
:104720008091960390919703A0919803B09199037B
:10473000A7019601281B390B4A0B5B0BCA01B90173
:104740000E945034AB01BC0184EF94E00E94090C3C
:10475000C957DF4F688379838A839B83C758D040CA
:10476000C0929603D0929703E0929803F092990337
:104770008091240690912506DC01ED91FC91008446
:10478000F185E02D1995181619060CF061C080917D
:10479000240690912506DC01ED91FC910284F385BD
:1047A000E02D199589831A8241E050E0BE016F5FC8
:1047B0007F4F86E296E00E943E1A6BE572E0CE01E2
:1047C00001960E94BE1ABE016F5F7F4F86E296E09F
:1047D0000E94FB198C01CE0101960E94871917FDDA
:1047E00037C06BE572E0CE018B5B9F4F0E94BE1A13
:1047F000BE016B5B7F4F86E296E00E94FB199C0135
:104800002150310950E040E066E276E0CE010196A9
:104810000E94CF1A89819A81009709F486C10E946B
:104820004530609377057093780580937905909370
:104830007A05CE0101960E948719CE018B5B9F4FAE
:104840000E9487196CE572E086E296E00E94B41A35
:104850000E943709AB01BC018091920390919303B0
:10486000A0919403B0919503805F984DAF4FBF4FD7
:1048700084179507A607B70710F00C94452D4091B3
:104880007705509178056091790570917A0580EDF2
:1048900094E00E94090C6B017C01C0927705D092D4
:1048A0007805E0927905F0927A05BC01A60184ECC6
:1048B00094E00E94090C9B01AC01C701B6010E9463
:1048C000D5356B017C01C0927705D0927805E092D6
:1048D0007905F0927A0520E030E044EB52E40E9442
:1048E0008437181654F020E030E044EB52ECC70156
:1048F000B6010E944B3487FF1CC160E088E00E9433
:10490000010860E089E00E94010869E672E087EA38
:1049100093E00E94BD19F1CF6052710977FF02C088
:104920006F5F7F4F759567958357910997FD019646
:1049300000E210E023E730E049EB58E0A5CD61E06C
:10494000809132050E942F0861E0809133050E941A
:104950002F0880913205082E000C990BFC01EF50B6
:10496000F24FE491F0E0EE0FFF1FE354F24F259178
:10497000349130933A0520933905FC01E95CF14FFD
:10498000E491E0933F0580913305082E000C990BCC
:10499000FC01EF50F24FE491F0E0EE0FFF1FE35403
:1049A000F24FA591B491B0933C05A0933B05FC0157
:1049B000E95CF14FE491E09340058C91E82BEC9396
:1049C0008091270590912805892B09F434C01FB7E1
:1049D000F89480917E03811127C0E6E2FEE0849185
:1049E000ECE6FEE09491E82FF0E0EE0FFF1FED55AE
:1049F000F24FA591B491EC91E92321F461E085E3B4
:104A00000E94010861E085E30E942F088CB5806157
:104A10008CBD8CB580648CBD61E084E30E942F085E
:104A200061E083E30E942F0880917E038F5F809373
:104A30007E031FBF50CD61E0809130050E942F089A
:104A400061E0809131050E942F0880913005082E89
:104A5000000C990BFC01EF50F24FE491F0E0EE0FE7
:104A6000FF1FE354F24F2591349130933605209384
:104A70003505FC01E95CF14FE491E0933D0580913F
:104A80003105082E000C990BFC01EF50F24FE49118
:104A9000F0E0EE0FFF1FE354F24FA591B491B093F5
:104AA0003805A0933705FC01E95CF14FE491E093F0
:104AB0003E058C91E095E823EC930DCD8091270580
:104AC00090912805892B31F080914A0590914B05F2
:104AD0000E94EA0EE0913B05F0913C0590818091A7
:104AE000400580958923808337CD8FEC6ECD80364D
:104AF000910569F48091120590911305409739F45E
:104B000080912E05813029F480E18093490512E0DF
:104B10005FCD8FEAFACFE0913B05F0913C058081B3
:104B200090914005892B80839BCD60E070E0CB01A4
:104B300078CE60915B0570915C0580915D059091E8
:104B40005E0520914D05222309F48DC120E030E05F
:104B500040ED50E40E94B1340E9442369B01AC010A
:104B600066E676E686E790E40E94D53560937C049D
:104B700070937D0480937E0490937F04409084041E
:104B80005090850460908604709087049B01AC016E
:104B90000E94D6352BED3FE049E450E40E94B13449
:104BA000A30192010E94B13420E030E040E05FE3D5
:104BB0000E94B1340E94E3374B015C01A3019201D2
:104BC00060E070E080E090E40E947636A5019401F8
:104BD0000E94B1349B01AC010E94B134A301920147
:104BE0000E94B134A30192010E94B13420E030E070
:104BF00040E850E40E94D6354B015C01609180048E
:104C00007091810480918204909183049B01AC0196
:104C10000E94D6352BED3FE049E450E40E94B134C8
:104C20009B01AC010E94D635A30192010E94B134D0
:104C3000A50194010E94D6352B013C014092440409
:104C4000509245046092460470924704809250044A
:104C500090925104A0925204B092530420916004A7
:104C6000309161044091620450916304EF962CAF3F
:104C70003DAF4EAF5FAFEF97209364043093650470
:104C8000409366045093670460915C0470915D04E6
:104C900080915E0490915F0460936004709361045E
:104CA0008093620490936304C0925C04D0925D048C
:104CB000E0925E04F0925F0420916C0430916D04E8
:104CC00040916E0450916F04C158DF4F288339839F
:104CD0004A835B83CF57D040209370043093710494
:104CE00040937204509373042091680430916904D6
:104CF00040916A0450916B04CD57DF4F288339836C
:104D00004A835B83C358D04020936C0430936D0476
:104D100040936E0450936F042091540430915504D5
:104D200040915604509157040E94B134C557DF4F4B
:104D3000688379838A839B83CB58D040A5019401F3
:104D4000C701B6010E94B1349B01AC01C557DF4FCA
:104D5000688179818A819B81CB58D0400E94D63569
:104D60006B017C01209158043091590440915A0400
:104D700050915B04EF966CAD7DAD8EAD9FADEF971E
:104D80000E94B1349B01AC01C701B6010E94D63527
:104D90006B017C01209148043091490440914A0400
:104DA00050914B04CD57DF4F688179818A819B8177
:104DB000C358D0400E94B1349B01AC01C701B60179
:104DC0000E94D5356B017C0120914C0430914D043B
:104DD00040914E0450914F04C158DF4F6881798152
:104DE0008A819B81CF57D0400E94B1349B01AC0196
:104DF000C701B6010E94D535A30192010E94763603
:104E0000609368047093690480936A0490936B04C0
:104E100060937705709378058093790590937A0570
:104E200087EA93E00E94EE09181619060CF0F7C005
:104E30006CE572E0CE018B5B9F4F0E94BE1A0E9410
:104E4000FB1D97FD25C08A30910511F189831A82D7
:104E500041E050E0BE016F5F7F4FCE018B5B9F4F03
:104E60000E943E1AECCF20E030E040EA50E40E947D
:104E7000B1340E9442362CE53FE842E05FE30E94F5
:104E8000B1349B01AC0166E676E686E390E46CCE35
:104E90006DE772E0CE0101960E94BE1ABE016F5FFF
:104EA0007F4FCE018B5B9F4F0E94FB198C01CE017F
:104EB00001960E94871960E872E0CE0101960E9477
:104EC000BE1ABE016F5F7F4FCE018B5B9F4F0E946A
:104ED000FB197C01CE0101960E94871917FD4AC07B
:104EE0003FEFE316F30609F045C02B962EAD3FAD1C
:104EF0002B97A8014E5F5F4FBE016B5B7F4FCE01CA
:104F000001960E94CF1A89819A81C12CD12C7601F9
:104F1000009721F00E9445306B017C01CE01019683
:104F20000E94871920E030E0A901C701B6010E9464
:104F30008437181694F420E030E040E850E4C701CC
:104F4000B6010E944B3487FF08C0C0928503D092FF
:104F50008603E0928703F092880387EA93E00E9439
:104F6000EE09181619060CF055C087EA93E00E9466
:104F7000CC09F3CFF7FCF1CF0F3F100771F72B9659
:104F80008EAD9FAD2B97892B71F02796CEACDFAC01
:104F900027976AE070E0C6010E944C3A009719F02A
:104FA0008C010C191D09A7014E5F5F4F9801BE01CE
:104FB0006B5B7F4FCE0101960E94CF1A89819A8147
:104FC000C12CD12C7601009721F00E9445306B0155
:104FD0007C01CE0101960E94871920E030E0A901F2
:104FE000C701B6010E94843718160CF0B6CF26E62A
:104FF00036E646EA5FE3C701B6010E944B3487FFFD
:10500000ACCFC0928903D0928A03E0928B03F092D6
:105010008C03A3CFCE018B5B9F4F0E9487198FE338
:105020000E94E01DBC01990F880B990B0E9452341D
:1050300060934F05709350058093510590935205EE
:105040008EE30E94E01D6FEF73E0681B790B072E63
:10505000000C880B990B0E94523460935305709397
:105060005405809355059093560582E00E94B71D24
:1050700021E0892B09F420E020934D0583E00E9474
:10508000B71D21E0892B09F420E020934E0586E32B
:105090000E94E01DBC01990F880B990B0E945234AD
:1050A00022E539E44DE95BE30E94B13422E03BE2C2
:1050B00047EA5EE30E94D53528EB3EE145EC5EE32E
:1050C0000E94D5352FE832EC45E75CE30E94D535E8
:1050D00060935705709358058093590590935A052E
:1050E00087E30E94E01DBC01990F880B990B0E9479
:1050F000523426EA3BE944EC5AE30E94B1342DECE9
:105100003CEC4CE45DE30E94D53560935B05709305
:105110005C0580935D0590935E0540915705509125
:1051200058056091590570915A0588EE94E00E94E7
:10513000090C609357057093580580935905909317
:105140005A0540915B0550915C0560915D05709139
:105150005E058CED94E00E94090C6B017C01C0920D
:105160005B05D0925C05E0925D05F0925E05809053
:10517000570590905805A0905905B0905A052BED11
:105180003FE049E450E460917705709178058091A3
:10519000790590917A050E94B13420E030E044E333
:1051A00053E40E9476362B013C010E9491379B010B
:1051B000AC01C701B6010E94B134A50194010E945F
:1051C000D635609367057093680580936905909361
:1051D0006A05C301B2010E9471369B01AC01C7018F
:1051E000B6010E94B13460936B0570936C05809397
:1051F0006D0590936E05B501A4018CEA94E00E94C0
:105200003B1EAB01BC0188EB94E00E94090C60934B
:105210005F057093600580936105909362054091EE
:105220005B0550915C0560915D0570915E0580EABB
:1052300094E00E943B1E6093630570936405809325
:1052400065059093660540916705509168056091EA
:10525000690570916A0584E994E00E943B1E6093A1
:105260006F0570937005809371059093720540915E
:105270006B0550916C0560916D0570916E0588E825
:1052800094E00E943B1E6B017C01C0927305D0929A
:105290007405E0927505F092760560916F05709146
:1052A000700580917105909172059B01AC010E947F
:1052B000B1344B015C01A7019601C701B6010E9400
:1052C000B1349B01AC01C501B4010E94D6350E94E6
:1052D0009F3760937B0570937C0580937D05909349
:1052E0007E058091920390919303A0919403B091D5
:1052F0009503805F984DAF4FBF4F8093920390937B
:105300009303A0939403B093950320904E0521102E
:10531000D6C380919103811151C0109269061092F9
:105320006A0610926B0610926C061092720610922A
:105330007306109274061092750610927A061092F7
:105340007B0610927C0610927D06109292061092B7
:105350009306109294061092950610929B06109256
:105360009C0610929D0610929E061092A306109223
:10537000A4061092A5061092A6061092400610925E
:10538000410610924206109243061092490610926E
:105390004A0610924B0610924C061092510610923B
:1053A0005206109253061092540681E080939103A6
:1053B00063E872E087EA93E00E94BD1960E084E34D
:1053C0000E940108609177057091780580917905B8
:1053D00090917A0590582BED3FE049E450E40E940B
:1053E000B13420E030E044E353E40E947636AB0170
:1053F000BC0100E117E220E030E085E596E00E9484
:10540000CA0A20E030E040E051E40E94B134EF9657
:105410006CAF7DAF8EAF9FAFEF9720915705309166
:1054200058054091590550915A0560918503709136
:10543000860380918703909188030E94D535AB0144
:10544000BC0100E117E220E030E08EE796E00E9428
:10545000CA0A20E030E040EF50E40E94B134C15865
:10546000DF4F688379838A839B83CF57D040EF9641
:105470002CAD3DAD4EAD5FADEF970E94D5356B01C4
:105480007C0120915B0530915C0540915D05509158
:105490005E056091890370918A0380918B039091DE
:1054A0008C030E94D535AB01BC0100E117E220E07E
:1054B00030E08CE296E00E94CA0A2B013C01809009
:1054C0005F0590906005A0906105B090620520E0B6
:1054D00030E0A901C701B6010E948437181674F4A0
:1054E0002AE939E949E95EE3C701B6010E944B3474
:1054F00087FF0EC0C12CD12C760134C02AE939E9CE
:1055000049E95EEBC701B6010E948437181694F38F
:1055100020E030E0A901C501B4010E944B3487FFAF
:1055200077C023E333E343E350E4C701B6010E94AD
:10553000D5356B017C0120E030E040E251E4C70149
:10554000B6010E94843718160CF475C020E030E0D4
:1055500040E251ECC701B6010E944B34222423944F
:1055600087FD72C023E333E343E251E4C701B60190
:105570000E94B13420E030E04FEF52E40E94D63573
:105580000E94EF36362E10914D0580906305909065
:105590006405A0906505B0906605112309F45BC011
:1055A0002DEC3CEC4CEA5FE3C301B2010E94D5351F
:1055B0006B017C01412C512C70E4672E762C20E08D
:1055C00030E0A901C501B4010E944B3487FF56C0E9
:1055D000A3019201C701B6010E94D5356B017C0180
:1055E00020E030E0A901C501B4010E9484371816FB
:1055F0000CF456C02AE939E949E15FEBC501B40171
:105600000E944B3487FF57C0C12CD12C760193C028
:1056100020E030E0A901C501B4010E9484371816CA
:105620000CF089CF23E333E343E350E4C701B60131
:105630000E94D6357ECF22242394C12CD12CF0E2B7
:10564000EF2EF1E4FF2E8ECFC12CD12CE0E2EE2E16
:10565000E1ECFE2E87CF23EC35EF48EA5EE3C30191
:10566000B2010E94D5356B017C016AE9462E69E9D9
:10567000562E69E1662E60E4762EA1CF20E030E060
:10568000A901C501B4010E94843718160CF0A8CFF7
:10569000A3019201C701B6010E94D6356B017C01BE
:1056A0002AE939E949E15FE3C501B4010E94843781
:1056B00018160CF4A9CF26E636E64AE051E4C701F5
:1056C000B6010E9484371816ACF41111E2C122E52C
:1056D00038EB4AE151E4C701B6010E94843718163D
:1056E000ACF422E5C22E28EBD22E2AE1E22E21E4F0
:1056F000F22E21C022E538EB4AE151E4C701B601A0
:105700000E948437181614F4112359F320E030E076
:1057100040E251E4C701B6010E94843718160CF428
:10572000C0C120E030E040E251ECC701B6010E9468
:105730004B3487FDBDC123E333E343E251E4C701AA
:10574000B6010E94B13420E030E04FEF52E40E94F5
:10575000D6350E94EF36F62E80905705909058056A
:10576000A0905905B0905A05032D10E02DEC3CECAB
:105770004CE750E4C501B4010E948437181614F4B4
:1057800037FC0DC02DEC3CEC4CEC5DE3C501B401E5
:105790000E944B3487FF0BC05EE7531540F063E96E
:1057A00072E087EA93E00E94BD190FE710E01093C2
:1057B00001020093000280905B0590905C05A09030
:1057C0005D05B0905E050F2D10E022E538EB4EE947
:1057D0005FE3C501B4010E948437181614F4F7FC86
:1057E0000DC02AE037ED43E25CEBC501B4010E9435
:1057F0004B3487FF0BC08EE78F1540F063E972E0F2
:1058000087EA93E00E94BD190FE710E010930302AE
:1058100000930202622D88E00E940108609100025C
:10582000709101028AE00E94600861E089E00E94B4
:105830000108B8018BE00E94600823E0C158DF4FE7
:10584000488159816A817B81CF57D040CE018B5BE3
:105850009F4F0E941B1B23E0EF964CAD5DAD6EADDC
:105860007FADEF97CE01855B9F4F0E941B1B409140
:10587000890350918A0360918B0370918C0323E01C
:10588000CE018F5A9F4F0E941B1B40918503509160
:105890008603609187037091880323E0CE01895AC3
:1058A0009F4F0E941B1B4091770550917805609196
:1058B000790570917A0522E0CE01835A9F4F0E94AC
:1058C0001B1B40915B0550915C0560915D057091DB
:1058D0005E0523E0CE018D599F4F0E941B1B409116
:1058E0006705509168056091690570916A0523E02C
:1058F000CE0187599F4F0E941B1B40915705509125
:1059000058056091590570915A0523E0CE018159DF
:105910009F4F0E941B1B2FB7F89460919F037091BB
:10592000A0038091A1039091A2032FBFE7961FAE21
:105930001EAEE797E9961FAE1EAEE997EB961FAE37
:105940001EAEEB972AE0AE014F5F5F4F0E944930D9
:10595000BE016F5F7F4FCE018B589F4F0E94B41ADC
:105960001A8219821C821B821E821D82E7966EADEE
:105970007FADE7976115710541F0EB964EAD5FADD8
:10598000EB97CE0101960E94931A6DEA72E0CE0168
:1059900001960E946A1ABE0161597F4F0E94801AC7
:1059A0006DEA72E00E946A1ABE0167597F4F0E9439
:1059B000801A6DEA72E00E946A1ABE016D597F4F2B
:1059C0000E94801A60EB72E00E946A1ABE01635A5C
:1059D0007F4F0E94801A60EB72E00E946A1ABE013B
:1059E000695A7F4F0E94801A6DEA72E00E946A1A1B
:1059F000BE016F5A7F4F0E94801A6DEA72E00E94CA
:105A00006A1ABE01655B7F4F0E94801A6DEA72E0E0
:105A10000E946A1ABE016B5B7F4F0E94801ABC0114
:105A200087EA93E00E94A019CE0101960E9487198F
:105A3000CE018B589F4F0E948719CE0181599F4FED
:105A40000E948719CE0187599F4F0E948719CE0166
:105A50008D599F4F0E948719CE01835A9F4F0E94F4
:105A60008719CE01895A9F4F0E948719CE018F5AFC
:105A70009F4F0E948719CE01855B9F4F0E94871917
:105A8000CE018B5B9F4F0E9487190E949D0A0C9448
:105A90008C2356E6C52EDC2C5AE0E52E51E4F52E7B
:105AA0004ACEC12CD12C40E2E42E41E4F42E43CE68
:105AB000C12CD12C30E2E32E31ECF32E3CCEC95771
:105AC000DF4F288139814A815B81C758D04060E02F
:105AD00074E284E799E40E9476360E94EF3690E003
