:100000000C943E070C946F070C946F070C946F07C9
:100010000C946F070C946F070C946F070C946F0788
:100020000C946F070C946F070C946F070C946F0778
:100030000C946F070C946F070C946F070C946F0768
:100040000C946F070C946F070C946F070C946F0758
:100050000C946F070C946F070C946F070C94AA1EF6
:100060000C946F070C947E1F0C94541F0C946F0714
:100070000C946F070C946F070C946F070C946F0728
:100080000C946F070C946F070C946F070C946F0718
:100090000C946F070C946F070C946F070C94B41FAB
:1000A0000C946F070C946F070C946F070C946F07F8
:1000B0000C946F070C946F070C946F070C946F07E8
:1000C0000C946F070C946F070C946F070C946F07D8
:1000D0000C946F070C946F070C941E1F0C94F41E65
:1000E0000C946F0705A84CCDB2D44EB93836A9028E
:1000F0000C50B9918688083CA6AAAA2ABE00000026
:10010000803F0C94B9070C94CC080C940B090C9408
:100110008B0A0C942F130C941F090C94D1070C9488
:1001200033090C94D0070C94B6090C9490070C94E6
:10013000D4080C94C3070C94B0080C940B150C94C1
:10014000B9090C94A5070C949E070C9499080C947B
:100150003F120C94D7140C94A3130C94BD070C9469
:1001600096070C9496100C94A6080C94D5070C9442
:1001700071070C94CB070C94C4080C94F2080C94EF
:10018000E8080C94F5090C94490A0C94CB260C94BD
:1001900013130C94AF070C94110D0C94E6090C94F6
:1001A00015090C94DE140C9401090C94DE080C94CF
:1001B000AB070C94D80A0C94BF180C945A0D0C94ED
:1001C00023130C9429090C94A2070C94C7110C94C6
:1001D0005C120C943B0A0C94A1080C943B130C94F5
:1001E000B8090C94C7070C94C4140C94D8200C9430
:1001F0005C0E0C94A10D0C9468110C94B5070C9432
:10020000B5140C9469180C94BA080C94B7090C94A2
:100210009A074E414E494E495459494E46CDCCCC91
:100220003D0AD7233C17B7D13877CC2B329595E6CA
:10023000241FB14F0A000020410000C84200401CAA
:100240004620BCBE4CCA1B0E5AAEC59D7400407AF7
:1002500010F35A00A0724E18090010A5D4E800004F
:10026000E87648170000E40B54020000CA9A3B00ED
:100270000000E1F505000080969800000040420F64
:10028000000000A08601000000102700000000E828
:1002900003000000006400000000000A00000000ED
:1002A000000100000000002C76D888DC674F08238E
:1002B000DFC1DFAE59E1B1B796E5E3E453C63AE6F4
:1002C00051997696E8E6C28426EB898C9B62ED40D4
:1002D0007C6FFCEFBC9C9F40F2BAA56FA5F4900523
:1002E0005A2AF75C936B6CF9676DC11BFCE0E40D57
:1002F00047FEF520E6B500D0ED902E03009435774B
:10030000050080841E080000204E0A000000C80C72
:10031000333333330F986E12831141EF8D211489DB
:100320003BE65516CFFEE6DB18D1844B381BF77C35
:100330001D901DA4BBE424203284725E228100C97A
:10034000F124ECA1E53D2700000000003E5B4F5B7F
:100350003E3E6B4F6B3E1C3E7C3E1C183C7E3C1868
:100360001C577D571C1C5E7F5E1C00183C1800FF4C
:10037000E7C3E7FF0018241800FFE7DBE7FF30487A
:100380003A060E2629792926407F050507407F0574
:10039000253F5A3CE73C5A7F3E1C1C08081C1C3E6B
:1003A0007F14227F22145F5F005F5F06097F017F59
:1003B000006689956A606060606094A2FFA29408FC
:1003C000047E040810207E201008082A1C08081C3F
:1003D0002A08081E101010100C1E0C1E0C30383E7F
:1003E0003830060E3E0E06000000000000005F00E0
:1003F000000007000700147F147F14242A7F2A12AC
:100400002313086462364956205000080703000091
:100410001C2241000041221C002A1C7F1C2A0808C3
:100420003E080800807030000808080808000060D6
:10043000600020100804023E5149453E00427F40C2
:100440000072494949462141494D331814127F1021
:1004500027454545393C4A4949314121110907366B
:1004600049494936464949291E0000140000004008
:100470003400000008142241141414141400412202
:10048000140802015909063E415D594E7C121112B1
:100490007C7F494949363E414141227F4141413EAD
:1004A0007F494949417F090909013E414151737F13
:1004B0000808087F00417F41002040413F017F083C
:1004C0001422417F404040407F021C027F7F04088D
:1004D000107F3E4141413E7F090909063E415121BD
:1004E0005E7F09192946264949493203017F0103E4
:1004F0003F4040403F1F2040201F3F4038403F6367
:100500001408146303047804036159494D43007FC0
:100510004141410204081020004141417F04020191
:100520000204404040404000030708002054547833
:10053000407F284444383844444428384444287F81
:10054000385454541800087E090218A4A49C787FDB
:100550000804047800447D40002040403D007F10A6
:1005600028440000417F40007C047804787C080423
:1005700004783844444438FC1824241818242418D7
:10058000FC7C08040408485454542404043F4424C4
:100590003C4040207C1C2040201C3C4030403C44DF
:1005A000281028444C9090907C4464544C4400089B
:1005B00036410000007700000041360800020102C9
:1005C00004023C2623263C1EA1A161123A40402091
:1005D0007A3854545559215555794122545478420A
:1005E000215554784020545579400C1E52721239CE
:1005F0005555555939545454593955545458000087
:10060000457C410002457D420001457C407D121140
:10061000127DF0282528F07C545545002054547C48
:10062000547C0A097F4932494949323A4444443AA0
:10063000324A4848303A4141217A3A4240207800D3
:100640009DA0A07D3D4242423D3D4040403D3C2476
:10065000FF2424487E4943662B2FFC2F2BFF0929BA
:10066000F620C0887E090320545479410000447D5F
:10067000413048484A32384040227A007A0A0A72A9
:100680007D0D19317D2629292F2826292929263053
:10069000484D4020380808080808080808382F1076
:1006A000C8ACBA2F102834FA00007B000008142AC6
:1006B000142222142A14085500550055AA55AA558B
:1006C000AAFF55FF55FF000000FF00101010FF00AB
:1006D000141414FF001010FF00FF1010F010F0149D
:1006E0001414FC001414F700FF0000FF00FF1414A2
:1006F000F404FC141417101F10101F101F141414EE
:100700001F00101010F0000000001F101010101F2C
:1007100010101010F010000000FF1010101010103A
:10072000101010FF10000000FF140000FF00FF0079
:10073000001F10170000FC04F414141710171414F1
:10074000F404F40000FF00F714141414141414F744
:1007500000F7141414171410101F101F141414F49D
:10076000141010F010F000001F101F0000001F14E4
:10077000000000FC140000F010F01010FF10FF1437
:100780001414FF141010101F00000000F010FFFFE1
:10079000FFFFFFF0F0F0F0F0FFFFFF0000000000AF
:1007A000FFFF0F0F0F0F0F3844443844FC4A4A4AEA
:1007B000347E02020606027E027E026355494163D0
:1007C0003844443C04407E201E2006027E020299EA
:1007D000A5E7A5991C2A492A1C4C7201724C304A83
:1007E0004D4D303048784830BC625A463D3E49490C
:1007F00049007E0101017E2A2A2A2A2A44445F44B4
:100800004440514A444040444A51400000FF0103E3
:10081000E080FF000008086B6B08361236243606AD
:100820000F090F06000018180000001010003040DB
:10083000FF0101001F01011E00191D1712003C3CA1
:100840003C3C0000000000000103070F1F3F7F0039
:1008500080C0E0F0F8FCFEDB40A4A62EAF2000A193
:10086000C8D300408DAED580A80000600000000015
:1008700000000000000000000000E0000000000098
:10088000000000000000000001E000000000000087
:100890000000000000000001F00000000000000067
:1008A00000000000000003F0000000000000000055
:1008B000000000000007F000000000000000000041
:1008C0000000000007F80000000000000000000029
:1008D0000000000FF800000003C0007E000001E0EF
:1008E000007F0FF800000003C000FE000001E000E0
:1008F000FFEFF800000003C000FE000001E000FF71
:10090000FFF800000003C000F00000000F007FFEB1
:100910007FC0000003C000F00000000F003FFE7F1A
:10092000F83FF1FBCFFCFEF3BC3DEFE01FFE7FFF85
:100930007FFBFFDFFEFEFFBC3DEFE01FC6FFFF7F3A
:10094000FBFFDFFEFEFFBC3DEFE00FE3C7FE787B61
:10095000C3DE1EF0FFBC3DEF0007FF87FC787BC3C2
:10096000DE1EF0F83C3DEF0001FFFFF0007BC3C04E
:100970001EF0F03C3DEF0001F37FE03FFBC3CFFEF4
:10098000F0F03C3DEF0003E33F807FFBC3DFFEF070
:10099000F03C3DEF0007E73C00787BC3DE1EF0F043
:1009A0003C3DEF0007FFBE00787BC3DE1EF0F03C4D
:1009B0003DEF0007FFFE00787BC3DE1EF0F03C3DFC
:1009C000EF000FFFFE007FFBFFDFFEF0F03FFDEFCB
:1009D000E00FFFFF007FFBFFDFFEF0F03FFDEFE0E9
:1009E0000FF9FF003E79F9CF9EF0F01F3DE7E01FC1
:1009F000F1FF0000000000000000000000001F8068
:100A0000FF007FFFFFFFFFFFFFFFFFFFE01C007FF6
:100A1000007FFFFFFFFEB46D888D18E000001F000F
:100A20007FFFFFFFFE95AD7DB577E000000F007FF3
:100A3000FFFFFFFEA5AD9D8D19E0000006007FFFC2
:100A4000FFFFFEB5ADEDB57EE000000000000180C7
:100A50000000000000000000000380000000000013
:100A60000000000007C000000000000000000007B8
:100A7000C00000000000000000000FC000000000E7
:100A800000000000001FE000000000000000000067
:100A90001FE00000000000000000003FE000000038
:100AA0000000000000003FF0000000000000000017
:100AB000007FF0000000000000001FF87FF0000041
:100AC00000000000003FFE7FF0000000000000007A
:100AD0003FFF7FF0000000000000001FFFFBE00070
:100AE0000000000000000FFFF9FFC0000000000040
:100AF000000FFFF9FFF800000000000007FFF1FF02
:100B0000FF00000000000003FC73FFFF80000000F6
:100B1000000001FE3FFFFF80000000000000FF1EFC
:100B20000FFF000000000000007FFE1FFC0000001F
:100B3000000000003FFFFFF8000000000000000F71
:100B4000DFFFE0000000000000001F19FFC00000F0
:100B500000000000003F3CFF00000000000000001B
:100B60007E7CF800000000000000007FFE7C00009A
:100B7000000000000000FFFFFC000000000000007B
:100B800000FFFFFE0000000000000000FFFFFE006D
:100B900000000000000001FFEFFE00000000000068
:100BA0000001FFCFFE0000000000000003FF07FE71
:100BB0000000000000000003FC07FE000000000031
:100BC000000003F003FE00000000000000018000B0
:100BD000FE000000000000000000007E0000000099
:100BE0000000000000003E000000000000000000C7
:100BF000000C000000000000078000FC000003C0A3
:100C0000000000078001FC000003C0000000078016
:100C100001FC000003C0000000078001E0000000AC
:100C20001E000000078001E00000001E007FE3F7C7
:100C30009FF9FDE7787BDFC0FFF7FFBFFDFDFF7881
:100C40007BDFC0FFF7FFBFFDFDFF787BDFC0F0F764
:100C500087BC3DE1FF787BDE00F0F787BC3DE1F02B
:100C6000787BDE0000F787803DE1E0787BDE007F67
:100C7000F7879FFDE1E0787BDE00FFF787BFFDE1AE
:100C8000E0787BDE00F0F787BC3DE1E0787BDE00BA
:100C9000F0F787BC3DE1E0787BDE00F0F787BC3DF4
:100CA000E1E0787BDE00FFF7FFBFFDE1E07FFBDFE7
:100CB000C0FFF7FFBFFDE1E07FFBDFC07CF3F39FE8
:100CC0003DE1E03E7BCFC0000000000000000000DE
:100CD0000000FFFFFFFFFFFFFFFFFFFFC0FFFFFF61
:100CE000FFFD68DB111A31C0FFFFFFFFFD2B5AFB30
:100CF0006AEFC0FFFFFFFFFD4B5B3B1A33C0FFFFF6
:100D0000FFFFFD6B5BDB6AFDC04372616E652052C5
:100D100065616479210045495436204345362036C3
:100D200033300057616974206372616E652073749B
:100D3000617274696E672E2E00535344313330361E
:100D400020616C6C6F636174696F6E206661696CA1
:100D500065640000002100240027002A002D0030D7
:100D600000330001010000040107010A0100002214
:100D700000250028002B002E003100340002010065
:100D800000050108010B01000020002300260029B6
:100D9000002C002F003200000100000301060109B1
:100DA0000105050505070508080808020202020AF0
:100DB0000A080804040404010101010101010103FE
:100DC00003030303030303040707070C0C0C0C0CB9
:100DD0000C0C0C0202020206060606060606060BAC
:100DE0000B0B0B0B0B0B0B01021020200808102023
:100DF00040102040800201020108040201010204A7
:100E00000810204080804020100804020180040265
:100E100001804020100804020108040201010204BC
:100E20000810204080010204081020408000000AC1
:100E30000B02090C0D0E080703040100000000005E
:100E400000000000000000000000000000000000A2
:100E5000000000000000000000121110000000005F
:100E60000000000000000000000000000000000082
:100E70000000002200FF2100D820CB2611241FBE35
:100E8000CFEFD1E2DEBFCDBF00E00CBF25E0A4E98B
:100E9000B2E001C01D92A13CB207E1F712E0A0E070
:100EA000B2E0E4E3F0E600E00BBF02C007900D9271
:100EB000A439B107D9F717E0CDE3D7E000E006C0C9
:100EC00021970109802FFE010E942F2CCC33D107DE
:100ED00080E00807A9F70E9421220C9408300C94A6
:100EE000000008958150823108F05AC0E82FF0E0E8
:100EF0008827E258F84F8F4F0C942F2C9E07A2079B
:100F0000900796079A07D007A507AB07AF07B50765
:100F1000B907BD07C307C707D007CB07D107D50758
:100F2000809180008F778093800008958091800069
:100F30008F7DF9CF80918000877FF5CF84B58F7743
:100F400084BD089584B58F7DFBCF8091B0008F77ED
:100F50008093B00008958091B0008F7DF9CF80918B
:100F600090008F77809390000895809190008F7DFE
:100F7000F9CF80919000877FF5CF8091A0008F7787
:100F80008093A00008958091A0008F7DF9CF80917B
:100F9000A000877FF5CF809120018F77809320017B
:100FA0000895809120018F7DF9CF80912001877F66
:100FB000F5CFCF93DF93282F30E0F901E35DF14FB8
:100FC0008491F901E951F24FD491F901EF55F24FB3
:100FD000C491CC23A1F081110E947207EC2FF0E0A4
:100FE000EE0FFF1FE957F24FA591B491EC91ED235D
:100FF00081E090E009F480E0DF91CF91089580E0F6
:1010000090E0FACF1F93CF93DF93282F30E0F901C0
:10101000E35DF14F8491F901E951F24FD491F90167
:10102000EF55F24FC491CC23A9F0162F81110E94E5
:101030007207EC2FF0E0EE0FFF1FE359F24FA5917E
:10104000B4918FB7F894EC91111108C0D095DE23BC
:10105000DC938FBFDF91CF911F910895DE2BF8CFE6
:10106000CF93DF9390E0FC01E951F24F24918F552B
:10107000924FFC0184918823D1F090E0880F991F52
:10108000FC01ED5AF24FA591B491FC01E359F24FE6
:10109000C591D49161110EC09FB7F8948C91E22F45
:1010A000E0958E238C932881E223E8839FBFDF9114
:1010B000CF9108958FB7F894EC91E22BEC938FBF0A
:1010C000F6CF1F93CF93DF93182FEB0161E00E94BF
:1010D0003008209739F460E0812FDF91CF911F9184
:1010E0000C940208CF3FD10511F461E0F5CFE12F58
:1010F000F0E0E35DF14FE491E150E23108F0B3C07C
:10110000F0E08827E957F74F8F4F0C942F2C990860
:10111000A108A608B008BA083309C408CC08D40846
:10112000DE08E808F20801090B09330915091F094F
:10113000290984B5806884BDC7BDDF91CF911F9117
:10114000089584B5806284BDC8BDF7CF80918000CA
:10115000806880938000D0938900C0938800EDCF91
:1011600080918000806280938000D0938B00C09338
:101170008A00E3CF80918000886080938000D093C4
:101180008D00C0938C00D9CF8091B000806880938F
:10119000B000C093B300D1CF8091B0008062809343
:1011A000B000C093B400C9CF809190008068809354
:1011B0009000D0939900C0939800BFCF8091900089
:1011C000806280939000D0939B00C0939A00B5CF2B
:1011D00080919000886080939000D0939D00C09390
:1011E0009C00ABCF8091A00080688093A00080918C
:1011F000A0008F7B8093A000D093A900C093A8008B
:101200009CCF8091A00080628093A000D093AB001F
:10121000C093AA0092CF8091A00088608093A00024
:10122000D093AD00C093AC0088CF8091200180683E
:1012300080932001D0932901C09328017ECF809113
:101240002001806280932001D0932B01C0932A015A
:1012500074CF80912001886080932001D0932D016C
:10126000C0932C016ACFC038D1050CF03ECF33CFEC
:10127000865320917B00982F987F277F922B909305
:101280007B008770806480937C0080917A0080640A
:1012900080937A0080917A0086FDFCCF809178005F
:1012A0009091790008953FB7F894809183039091CD
:1012B0008403A0918503B091860326B5A89B05C041
:1012C0002F3F19F00196A11DB11D3FBFBA2FA92FC5
:1012D000982F8827BC01CD01620F711D811D911DC2
:1012E00042E0660F771F881F991F4A95D1F708952E
:1012F0008F929F92AF92BF92CF92DF92EF92FF9226
:101300004B015C010E9453096B017C010E9453094F
:101310006C197D098E099F09683E7340810591050E
:10132000A8F321E0821A9108A108B10888EEC80E3E
:1013300083E0D81EE11CF11C81149104A104B104C6
:1013400029F7FF90EF90DF90CF90BF90AF909F90E4
:101350008F9008952FB7F89460917F037091800368
:1013600080918103909182032FBF0895089508957D
:101370000895AF92BF92CF92DF92EF92FF920F93B8
:101380001F93CF93DF936C017B018B01040F151F1B
:10139000EB015E01AE18BF08C017D10759F0699183
:1013A000D601ED91FC910190F081E02DC6011995D7
:1013B000892B79F7C501DF91CF911F910F91FF9094
:1013C000EF90DF90CF90BF90AF900895FC01538DC8
:1013D000448D252F30E0842F90E0821B930B54170F
:1013E00010F0CF96089501970895FC01918D828D9C
:1013F000981761F0A28DAE0FBF2FB11D5D968C9135
:10140000928D9F5F9F73928F90E008958FEF9FEF73
:1014100008950F931F930E94AA09609393037093FA
:10142000940380939503909396038BE893E00E9436
:10143000F50997FF1DC00E94AA090091930310911E
:1014400094032091950330919603601B710B820BDE
:10145000930B00918F031091900320919103309191
:1014600092036017710782079307F8F28FEF9FEFDF
:101470001F910F910895FC01918D828D981731F085
:10148000828DE80FF11D858D90E008958FEF9FEF1D
:101490000895FC01918D228D892F90E0805C9F4FF3
:1014A000821B91098F73992708958BE893E00E941E
:1014B000490A21E0892B09F420E0822F089588E26F
:1014C00094E00E94490A21E0892B09F420E0822F50
:1014D0000895FC01A48DA80FB92FB11DA35ABF4FC9
:1014E0002C91848D90E001968F739927848FA68923
:1014F000B7892C93A089B1898C91837080648C9377
:10150000938D848D981306C00288F389E02D808125
:101510008F7D80830895EF92FF920F931F93CF9357
:10152000DF93EC0181E0888F9B8D8C8D98131AC01E
:10153000E889F989808185FF15C09FB7F894EE8905
:10154000FF896083E889F989808183708064808362
:101550009FBF81E090E0DF91CF911F910F91FF90AD
:10156000EF900895F62E0B8D10E00F5F1F4F0F7355
:101570001127E02E8C8D8E110CC00FB607FCFACF10
:10158000E889F989808185FFF5CFCE010E94690A3B
:10159000F1CFEB8DEC0FFD2FF11DE35AFF4FF082E1
:1015A0009FB7F8940B8FEA89FB8980818062CFCF47
:1015B000CF93DF93EC01888D8823B9F0AA89BB898A
:1015C000E889F9898C9185FD03C0808186FD0DC075
:1015D0000FB607FCF7CF8C9185FFF2CF808185FF96
:1015E000EDCFCE010E94690AE9CFDF91CF91089536
:1015F00080E090E0892B29F00E945F0A81110E940F
:10160000000080E090E0892B49F080E090E0892B99
:1016100029F00E94000081110E94000080E090E00B
:10162000892B49F080E090E0892B29F00E9400008E
:1016300081110E94000080E090E0892B29F00E9437
:10164000550A81110C94000008958F929F92AF92D9
:10165000BF92CF92DF92EF92FF920F931F93CF939F
:10166000DF93EC016A017B012C813D814E815F811A
:10167000CB01B6010E94372C4B015C010E9453093B
:10168000088119812A813B81601B710B820B930BAE
:101690000E94D12A9B01AC01C501B4010E94A92C72
:1016A000688779878A879B870E9453096883798333
:1016B0008A839B83CC82DD82EE82FF8220E034E24B
:1016C00044E759E4688579858A859B850E94322B99
:1016D000DF91CF911F910F91FF90EF90DF90CF900E
:1016E000BF90AF909F908F9008954F925F926F92AE
:1016F0007F928F929F92AF92BF92CF92DF92EF92A2
:10170000FF92CF93DF9300D000D0CDB7DEB79E839A
:101710008D8349835A836B837C830E9453096B01B9
:101720007C01ED81FE8184819581A681B781A7012D
:101730009601281B390B4A0B5B0BCA01B9010E94A9
:10174000D12A4B015C0120E034E244E759E4ED8109
:10175000FE8160817181828193810E94322BA5017B
:1017600094010E94382C9B01AC01C501B4010E9478
:10177000A92C4B015C01AC019B0160E070E080E8AA
:101780009FE30E94372CED81FE81208531854285C3
:1017900053850E94322B2B013C01A50194016981E4
:1017A0007A818B819C810E94322B9B01AC01C30109
:1017B000B2010E94382CED81FE816087718782879B
:1017C0009387C482D582E682F78226960FB6F89474
:1017D000DEBF0FBECDBFDF91CF91FF90EF90DF90C6
:1017E000CF90BF90AF909F908F907F906F905F90C1
:1017F0004F900895EF92FF920F931F93CF93DF9333
:10180000EC01EC80FD806E157F050CF070C057FF79
:1018100004C0240F351F50E040E08E819F81FA0103
:10182000E20FF31F8E179F071CF49C01241B350B3E
:10183000121613060CF05BC0922F842F86958695A6
:1018400086958E9DD0018F9DB00D11246A0F7B1F50
:10185000AF8DB8A1A60FB71F477049F188E0841B70
:10186000482F682F70E0FB01E15BF74FE4912817E8
:1018700008F063C0621B71092FEF30E002C035959C
:1018800027956A95E2F7E2230130110539F0B0F1AE
:101890000230110561F58C91E82702C08C91E82B8C
:1018A000EC93941720F12C813D81A20FB31FE92FF7
:1018B000E41BE83078F00230110521F58E2F9C9161
:1018C00090959C932C813D81A20FB31F8850883046
:1018D000B0F7E770EE2359F0F0E0E95BF74FE491E1
:1018E00001301105F9F010F10230110519F1DF9105
:1018F000CF911F910F91FF90EF900895E0958C91FB
:10190000E823CECF81E00115110509F480E081952F
:101910009E2F8C932C813D81A20FB31F985098303D
:10192000C0F7D7CF8C91E82BEC93E1CFE0958C9169
:10193000E823FACF8C91E827F7CF0130110509F49D
:10194000ADCFE0F20230110509F4A5CFAE0DBF1DF9
:10195000AECF0F931F93CF93DF9377FF04C0260F73
:10196000371F70E060E0DC011496CD91DC91FB0143
:10197000E20FF31FCE17DF071CF49E01261B370B67
:10198000121613064CF5FA0157FD3796A3E0F595AC
:10199000E795AA95E1F7EC9FD001ED9FB00DFC9F74
:1019A000B00D11246A0F7B1FDC015F96ED91FC9155
:1019B000E60FF71F4770552781E090E001C0880FC0
:1019C0004A95EAF7482F0130110559F0A8F02E0F7B
:1019D0003F1F02301105E1F0DF91CF911F910F9170
:1019E00008952E0F3F1FE217F307B1F38191DF0136
:1019F0001197842B8C93F7CF80952E0F3F1FE21702
:101A0000F30751F39191DF01119798239C93F7CF3E
:101A1000E217F30709F38191DF01119784278C9373
:101A2000F7CF0F931F93FA01DC0156964C9156970E
:101A30004230E9F04330A1F1413061F514964D9107
:101A40005C91DA01AE1BBF0BFD01E21BF30B77FDCE
:101A50000BC0DC0116964D915C916417750724F458
:101A6000AB01BF010E94A90C1F910F91089514961C
:101A70004D915C91DA01A61BB70BBD016150710954
:101A8000DC0116964D915C91DA01AE1BBF0BFD0196
:101A9000E21BF30B77FDE8CFAF010E94FA0BE4CF16
:101AA00016964D915C91DA01A61BB70BBD016150F2
:101AB0007109CDCF0F931F93FA01DC0156964C911B
:101AC00056974230A9F0433091F1413019F5149600
:101AD0004D915C91DA01AE1BBF0BFD013197F7FD13
:101AE00004C0AB01BF010E94FA0B1F910F91089532
:101AF00014964D915C91DA01A61BB70BBD01DC0178
:101B000016964D915C91DA01AE1BBF0BFD0131972A
:101B1000621B730BF7FDE9CFDC0116964D915C91CA
:101B2000E417F50714F7AF010E94A90CDECF169653
:101B30004D915C91DA01A61BB70BBD01621B730BC3
:101B4000CECFFC0177FD64C0808591856817790749
:101B50000CF05EC057FD5CC082859385481759071D
:101B60000CF056C086898230B1F0833029F1813083
:101B700041F484819581841B950BAB01BC016150BC
:101B800071092130310509F108F443C022303105D3
:101B900009F463C0089584819581DC01A61BB70B0D
:101BA000BD016150710986819781DC01A41BB50BD1
:101BB000AD0141505109E5CF86819781861B970B76
:101BC000BA01AC0141505109DCCFCA0157FD07965B
:101BD000A3E095958795AA95E1F7A481B5818A9FA1
:101BE00090018B9F300D9A9F300D1124620F731F4F
:101BF000078CF0A1E02DE60FF71F4770552721E075
:101C000030E001C0220F4A95EAF78081822B808361
:101C10000895CA0157FD079633E0959587953A9543
:101C2000E1F7A481B5818A9F90018B9F300D9A9F27
:101C3000300D1124620F731F078CF0A1E02DE60F09
:101C4000F71F4770552781E090E001C0880F4A9543
:101C5000EAF7809590818923DACFCA0157FD07966C
:101C600023E0959587952A95E1F7A481B5818A9F10
:101C700090018B9F300D9A9F300D1124620F731FBE
:101C8000078CF0A1E02DE60FF71F4770552721E0E4
:101C900030E001C0220F4A95EAF780818227B7CF52
:101CA00008958EBD00000DB407FEFDCF8EB50895DA
:101CB0008CBD9DBD08950895FC016370668B848181
:101CC000958126813781613039F0633029F0918721
:101CD000808733872287089531872087938782877B
:101CE00008952F923F924F925F926F927F928F92C0
:101CF0009F92AF92BF92CF92DF92EF92FF920F939B
:101D00001F93CF93DF93CDB7DEB76A970FB6F894E2
:101D1000DEBF0FBECDBF9A8F898F7A8369834A0158
:101D2000D22E18870F833701BC2CDC0159962D91D8
:101D30003C915A972115310509F015C118968D91DE
:101D40009C911997681779070CF0D7C11A968D9155
:101D50009C91481759070CF0D0C14C2C512CB6E07F
:101D6000CB9E600D711D11247C876B87161617069C
:101D70000CF0C3C1EA2DF0E0FA87E98793E0EE0F9B
:101D8000FF1F9A95E1F7F88BEF87CF01840F951F1E
:101D9000181619060CF0B1C1A98DBA8D58968C9100
:101DA000811104C0BFEABD1508F4D394A98DBA8D82
:101DB000ED91FC9111970284F385E02DCD011995E9
:101DC000B5E0DB9EC0011124E981FA81FC83EB833D
:101DD000312C212C9C01295B3C4F388F2F8B4A2DB5
:101DE00050E05E8B4D8BEF89F88DE20DF31D449131
:101DF0009E828D82D12CC12C69817A81620D731DE6
:101E00007A8B698B842F90E09C8B8B8BE98DFA8D7C
:101E1000A081B18140FF82C0F1E0BF126FC0AF125C
:101E20006DC01C96ED91FC912F813885A4014C0D5D
:101E30005D1D69897A89898D9A8D1995EB89FC894F
:101E4000F595E7954E2F5FEFC51AD50A6D817E8116
:101E50008D899E89680F791F7E836D8398E0C916EE
:101E6000D10481F6AFEF2A1A3A0AEB81FC81E40D26
:101E7000F51DFC83EB83F5E02F16310409F0B3CF99
:101E80002F81388526153705B9F0A98DBA8DED91CA
:101E9000FC91B1E0BB1257C0AB1255C069817A8189
:101EA0006B5F7F4F0088F189E02D830128E030E0EF
:101EB000A401898D9A8D1995A98DBA8DED91FC910A
:101EC00011970688F789E02DCD016A960FB6F89430
:101ED000DEBF0FBECDBFDF91CF911F910F91FF905D
:101EE000EF90DF90CF90BF90AF909F908F907F90BA
:101EF0006F905F904F903F902F9019941E96ED91A8
:101F0000FC91EF80F88409851A8592014D815E81EC
:101F10006B817C81898D9A8D199590CF2F81388521
:101F20002615370509F48ACF31E0B31207C0A31292
:101F300005C01C96ED91FC91930178CF1E96ED9112
:101F4000FC917301E0CF6B857C856419750906846B
:101F5000F785E02D73010F8518899201A401898D01
:101F60009A8D1995A9CFF90134969491329745919C
:101F70005491D91AB7E0DB9E400D511D1124F9018F
:101F8000259134913C8B2B8BFA0125903490FA01EA
:101F90003296749031963491398B329664903196A2
:101FA000449041E04C1518F04A1508F07FC0662DAA
:101FB000062C000C770B7C836B83842D042C000C87
:101FC000990B9E838D83A98DBA8DED91FC9111970C
:101FD0000284F385E02DCD011995512CD12CC12C13
:101FE000EA2DF0E0FA87E9872B2D30E03C872B873C
:101FF000A401440D511D47FC5A95588F4F8B6981A0
:102000007A81660D711D67FC7A957E876D87798967
:10201000C71608F051CF2C2D30E04D815E81420F64
:10202000531FA985BA854A9FC0014B9F900D5A9FA7
:10203000900D1124FC01E80DF91DF88BEF87852D1B
:10204000612C4F89588D420F531F5E8B4D8B671447
:1020500008F050C044244394480E877041F4C101F5
:102060000196EB89FC89E20DF31DD4901C01D7FE8B
:1020700019C0A98DBA8DED91FC91662D70E0B1E08B
:10208000BB1219C0AB1217C02D853E85620F731F9E
:102090000484F585E02D2F8138854D895E89898DF1
:1020A0009A8D1995DD0C6394842DD1CF1E821D82EB
:1020B0001C821B8288CF4B815C81640F751FAB85AE
:1020C000BC856A9FC0016B9F900D7A9F900D112473
:1020D00069817A81680F791F0684F785E02DEF808A
:1020E000F88409851A859D014F855889898D9A8DB7
:1020F0001995D8CF570CC3948ACF6A960FB6F89427
:10210000DEBF0FBECDBFDF91CF911F910F91FF902A
:10211000EF90DF90CF90BF90AF909F908F907F9087
:102120006F905F904F903F902F9008958F929F9265
:10213000AF92CF92EF92FF920F931F93CF93DF93C3
:10214000EC01262F898D9A8D009709F051C06A30D5
:10215000D1F41D861C868D8948E0849F900111244E
:102160008E859F85820F931F9F878E8781E090E0E9
:10217000DF91CF911F910F91FF90EF90CF90AF9093
:102180009F908F9008956D3089F3CC88AD888F89AA
:102190008823C1F08C859D8536E0C39E800D911DFE
:1021A0001124488559854817590764F44E855F8581
:1021B0001D861C8638E0A39EC0011124840F951F44
:1021C0009F878E87EA88FB88088919894E855F85F5
:1021D0006C857D85CE010E94710E2C898C859D8534
:1021E00046E0249F800D911D11249D878C87BECFD2
:1021F0006A3069F41D861C86FC013896E4912D89AD
:102200008E859F85E29F800D911D1124ADCF6D308D
:1022100009F4ACCFFC0134963491631708F4A6CFCF
:102220003296E491E61708F4A1CFFC01329685902E
:102230009490462F431B342F47E0349F800C911C11
:102240001124F401329634913196E4913323A9F1AB
:10225000EE2399F1CC88F4013596E491AD884F894D
:10226000442301F10E2E000CFF0BE30FF11DCE9E57
:10227000A001CF9E500D11246C857D85460F571F00
:1022800068857985641775076CF44E855F851D86B2
:102290001C86FC013896E491AE9E400D511D112420
:1022A0005F874E87EA88FB88088919894E855F8594
:1022B0006C857D85CE010E94710EF4013496E49107
:1022C0002C898C859D85E29F800D911D11248DCFD9
:1022D0006F927F928F929F92AF92BF92CF92DF9236
:1022E000EF92FF920F931F93CF93DF93EC016B015B
:1022F0005A0139014801E881F9810284F385E02D12
:102300001995E881F9810288F389E02D870193010D
:10231000A501B601CE011995A501480D591D4150E1
:102320005109E881F9810288F389E02D9301B60112
:10233000CE011995E881F9810088F189E02D940199
:10234000A501B601CE011995C60CD71CB601615086
:102350007109E881F9810088F189E02D9401A501D6
:10236000CE011995E881F9810688F789E02DCE0123
:10237000DF91CF911F910F91FF90EF90DF90CF9061
:10238000BF90AF909F908F907F906F9019946F92B5
:102390007F928F929F92AF92BF92CF92DF92EF92F5
:1023A000FF920F931F93CF93DF935C01EB016A01C0
:1023B000490138018701DC01ED91FC916217730737
:1023C00019F5641675062CF0962D872D3A01C92E45
:1023D000D82E9601261937092F5F3F4F048CF58DB3
:1023E000E02DA301BE01C5011995DF91CF911F9189
:1023F0000F91FF90EF90DF90CF90BF90AF909F90A4
:102400008F907F906F9008954615570591F4261789
:10241000370724F0892D4B01C22FD82F9E01281990
:1024200039092F5F3F4F068CF78DE02DA601B401CF
:10243000DACF0284F385E02D1995D501ED91FC9159
:102440000488F589E02D83019401A601BE01C50130
:102450001995D501ED91FC910688F789E02DC5010C
:10246000DF91CF911F910F91FF90EF90DF90CF9070
:10247000BF90AF909F908F907F906F901994EF9244
:10248000FF920F931F93DC011A960D911C911B97DD
:1024900018962D913C911997ED91FC9100A0F1A116
:1024A000E02D7B0150E040E070E060E019951F9165
:1024B0000F91FF90EF9008954F925F926F927F92ED
:1024C0008F929F92AF92BF92CF92DF92EF92FF9244
:1024D0000F931F93CF93DF936C012B015A013901A6
:1024E0004801DC01ED91FC910284F385E02D199502
:1024F000E201640C751CD601ED91FC91C615D7055F
:102500005CF40088F189E02D87019401A501BE01EA
:10251000C60119952196EFCF0688F789E02DC601EF
:10252000DF91CF911F910F91FF90EF90DF90CF90AF
:10253000BF90AF909F908F907F906F905F904F90E3
:1025400019948F929F92AF92BF92CF92DF92EF92A7
:10255000FF920F931F93CF93DF93EC015B014A012E
:102560006901E881F9810284F385E02D19959501CF
:102570002C0D3D1D21503109E881F9810488F58930
:10258000E02D78018401A401B501CE011995E881FF
:10259000F9810688F789E02DCE01DF91CF911F9157
:1025A0000F91FF90EF90DF90CF90BF90AF909F90F2
:1025B0008F9019948F929F92AF92BF92CF92DF9299
:1025C000EF92FF920F931F93CF93DF93EC015B0188
:1025D0004A0169017801E881F9810284F385E02DDF
:1025E0001995C80CD91C860101501109E881F9819F
:1025F0000488F589E02D9501A401B501CE01199556
:10260000E881F9810688F789E02DCE01DF91CF912D
:102610001F910F91FF90EF90DF90CF90BF90AF9000
:102620009F908F901994EF92FF920F931F93DC016C
:10263000ED91FC9100A0F1A1E02D19951F910F9152
:10264000FF90EF9008950F931F93DC01ED91FC91A3
:10265000068CF78DE02D19951F910F9108950F931A
:102660001F93DC01ED91FC91048CF58DE02D199503
:102670001F910F910895DC01ED91FC910084F1858B
:10268000E02D19943F924F925F926F927F928F92BA
:102690009F92AF92BF92CF92DF92EF92FF920F93F1
:1026A0001F93CF93DF935C017B014A0169013901DC
:1026B00087E0680E711C93E0759467949A95E1F732
:1026C0002B01400E511E10E000E0312CD0E0C0E0A4
:1026D000CE0187709927330C892B59F4FE0183E0D2
:1026E000F595E7958A95E1F7E00FF11FE80DF91DE3
:1026F000349037FE0AC021E030E0A701B5016C0F2D
:102700007D1F8BE795E00E943B132196CC16DD06DA
:10271000F9F68FEFE81AF80A060D171DE414F50410
:10272000A9F6DF91CF911F910F91FF90EF90DF906D
:10273000CF90BF90AF909F908F907F906F905F9061
:102740004F903F9008952F923F924F925F926F92D9
:102750007F928F929F92AF92BF92CF92DF92EF9231
:10276000FF920F931F93CF93DF9300D000D0CDB78C
:10277000DEB73C016A013E832D83FC82EB82580167
:10278000A41AB50AB7FE03C0B194A194B1088D8014
:102790009E80861A970A97FE03C0919481949108AF
:1027A0008A149B045CF0902F812F0D811E819D83E4
:1027B0008E839C2D8D2D6B01692F782F0C151D0597
:1027C0005CF09D818E817E836D83692F782F902FA1
:1027D000812F8601C92ED82E1601201A310A2B010D
:1027E0002D813E81421A530A57FE03C051944194F1
:1027F0005108710137FE03C03FEFE31AF30AF59465
:10280000E7948D819E81861797075CF5A1E0B0E083
:10281000BA83A983C016D1064CF1D301ED91FC9186
:102820000484F585E02D2B813C81A8016D817E819A
:102830008A149B041CF04D815E81B801C301199577
:10284000E418F508F7FE0AC02D813E8189819A813E
:10285000280F391F3E832D83E20CF31C0F5F1F4F9F
:10286000D9CF2FEF3FEF3A832983D4CF26960FB6E7
:10287000F894DEBF0FBECDBFDF91CF911F910F91B6
:10288000FF90EF90DF90CF90BF90AF909F908F9090
:102890007F906F905F904F903F902F900895209180
:1028A0001703260F3327331F21323105ECF4209113
:1028B0003B03FC0190E080E0243069F082E0089561
:1028C000A09117032191AC0149505D4FA40FB52F82
:1028D000B11D2C930196861798F380911703680F0A
:1028E0006093170380E0089581E0089510923B0300
:1028F00081E080933D0310923C0361E084E10E94FB
:10290000020861E085E10E940208E9EBF0E08081C5
:102910008E7F808380818D7F808388E48093B80060
:1029200085E48093BC000895CF93DF9391E090936A
:10293000F6028823B9F0C091B800D091BA00809116
:10294000BC008A7B8093BC0060E084E10E940208A6
:1029500060E085E10E9402080E947614D093BA00DC
:10296000C093B800DF91CF910895E0916703809103
:102970006603E81730F4F0E0EF52FD4F808190E0FD
:1029800008958FEF9FEF08959091670380916603FC
:102990002FEF3FEF981748F4E92FF0E0EF52FD4F8B
:1029A000208130E09F5F90936703C9010895809173
:1029B000660390916703891B990B0895CF92DF926C
:1029C000EF92FF920F931F93CF93DF937C01CB0184
:1029D0008A0120918A03222389F0EB016B01C40E46
:1029E000D51ECC15DD0569F06991D701ED91FC91FB
:1029F0000190F081E02DC7011995F3CF642F0E945B
:102A00004F14C801DF91CF911F910F91FF90EF906C
:102A1000DF90CF900895CF93DF931F92CDB7DEB7AD
:102A2000698320918A032223F9F0209187032032C1
:102A300058F021E030E0FC013383228390E080E015
:102A40000F90DF91CF91089580918803E82FF0E0F7
:102A5000EF54FD4F998190838F5F8093880380931B
:102A6000870381E090E0ECCF61E0CE0101960E9407
:102A70004F14F7CFCF92DF92EF92FF920F931F93F5
:102A8000CF93DF93D091870381E0D13208F09CC0CF
:102A9000C09189030E9453096B017C0180913B0323
:102AA00081116CC082E080933B0381E080933D0301
:102AB0008FEF80933A0310925F03D0935E03A1EBF4
:102AC000B2E0EEE3F3E080E0D8138DC01092600333
:102AD00080916003CC0FC82BC093600380913C03AE
:102AE000813009F084C010923C030E9453096B01AD
:102AF0007C01809160038093BB008091F2029091F1
:102B0000F302A091F402B091F502892B8A2B8B2B52
:102B1000A1F00E9453090091F2021091F30220915A
:102B2000F4023091F5026C197D098E099F09061790
:102B300017072807390708F442C08091BC0083FDBD
:102B4000D8CF85EC8093BC000E9453096B017C01B7
:102B500080913B03823009F44CC080913A038F3F4F
:102B600009F469C080913A03803209F466C080910B
:102B70003A03803309F463C084E026C08091F202F6
:102B80009091F302A091F402B091F502892B8A2B67
:102B90008B2B09F483CF0E9453090091F20210910C
:102BA000F3022091F4023091F5026C197D098E092F
:102BB0009F09061717072807390708F06FCF80917C
:102BC000F1020E94941485E010928803109287030A
:102BD00010928A03DF91CF911F910F91FF90EF9098
:102BE000DF90CF9008959D9191938F5F6DCF85EE8B
:102BF000A9CF8091F2029091F302A091F402B091DA
:102C0000F502892B8A2B8B2B09F4A2CF0E94530942
:102C10000091F2021091F3022091F4023091F5023A
:102C20006C197D098E099F090617170728073907B0
:102C300008F08ECFC4CF80E0C7CF82E0C5CF83E05D
:102C4000C3CFEF92FF920F931F93CF93DF937C013B
:102C5000C62F8091980590919905009709F459C065
:102C600020919C0531E030938A03209389031092D0
:102C7000880310928703DC01ED91FC910190F081B3
:102C8000E02D60E019958701EE24E394F12CD1E06A
:102C9000C1508091980590919905CF3F91F1B0E294
:102CA000EB16F104D8F00E943A15809198059091A6
:102CB000990520919C05D0938A0320938903109253
:102CC000880310928703DC01ED91FC910190F08163
:102CD000E02D60E01995EE24E394F12C80919805A5
:102CE00090919905F8016491DC01ED91FC910190BE
:102CF000F081E02D1995BFEFEB1AFB0A0F5F1F4F14
:102D0000C7CFDF91CF911F910F91FF90EF900C945F
:102D10003A15E091A805F091A90590818091AE0542
:102D20008095892380838701C15008F438C0F80159
:102D300084912091960530919705232B29F00E94CC
:102D4000510E0F5F1F4FF0CF28E030E040E8E091D8
:102D5000A405F091A5059091AC05582F5423D9F006
:102D60005081952B9083E091A605F091A705908165
:102D70005091AD05952B9083E091A605F091A705A4
:102D800050819091AD059095952390834695215063
:102D90003109E9F6D6CF508190959523E3CFDF91A5
:102DA000CF911F910F91FF90EF9008951F93CF93B4
:102DB000DF93EC018D8D9E8D009721F1162F29A1B7
:102DC00031E030938A032093890310928803109294
:102DD0008703DC01ED91FC910190F081E02D60E032
:102DE00019958D8D9E8DDC01ED91FC910190F08106
:102DF000E02D612F19958D8D9E8DDF91CF911F91C3
:102E00000C943A15ADA5BEA59C918BA980958923FC
:102E10008C938B8D9C8D892B31F0862FDF91CF91F8
:102E20001F910C94510E28E030E080E8A9A5BAA5C6
:102E300099A9462F4823C1F04C91942B9C93ABA5A4
:102E4000BCA59C914AA9942B9C93ABA5BCA54C9185
:102E50009AA9909594239C9386952150310931F736
:102E6000DF91CF911F9108954C9190959423E6CFD7
:102E7000DF92EF92FF920F931F93CF93DF93809196
:102E8000980590919905892B09F498C02091B00577
:102E90003091B1054091B2055091B30560E074E204
:102EA00084EF90E00E940D2C205131094109510915
:102EB00056954795379527952093B80065E083E7A9
:102EC0009EE00E94211660917F0561508BE795E09E
:102ED0000E94D6162091810530918205C90107967E
:102EE00097FD079633E0959587953A95E1F7209100
:102EF0007F0530918005829F8001839F100D929FF6
:102F0000100D1124C0919A05D0919B0580919805D0
:102F1000909199050C0F1D1F009709F48FC0209107
:102F20009C0531E030938A03209389031092880333
:102F300010928703DC01ED91FC910190F081E02D6E
:102F400060E41995EE24E394F12CDD24D394809170
:102F50009805909199050C171D0709F446C0B0E239
:102F6000EB16F104D8F00E943A15809198059091E3
:102F7000990520919C05D0928A0320938903109291
:102F8000880310928703DC01ED91FC910190F081A0
:102F9000E02D60E41995EE24E394F12C80919805DE
:102FA000909199056991DC01ED91FC910190F0817E
:102FB000E02D1995BFEFEB1AFB0AC9CF809196055A
:102FC00090919705892B31F08091B9059091BA05C0
:102FD0000E94580EE091AA05F091AB059081809176
:102FE000AF0580958923808369CF0E943A1580912F
:102FF000980590919905892B09F461C02091B40539
:103000003091B5054091B6055091B70560E074E286
:1030100084EF90E00E940D2C2051310941095109A3
:1030200056954795379527952093B800DF91CF9116
:103030001F910F91FF90EF90DF900895E091A80508
:10304000F091A90580819091AE05892B80830C17A2
:103050001D0769F289912091960530919705232BE0
:1030600019F00E94510EF3CF28E030E040E8E091E3
:10307000A405F091A5059091AC05582F5423D9F0E3
:103080005081952B9083E091A605F091A705908142
:103090005091AD05952B9083E091A605F091A70581
:1030A00050819091AD059095952390834695215040
:1030B0003109E9F6CCCF508190959523E3CFE0918B
:1030C000AA05F091AB0580819091AF05892B808393
:1030D000ADCF1F93CF93DF93EC01162F8D8D9E8D77
:1030E000892BB1F12DA93EA94FA958AD60E074E23A
:1030F00084EF90E00E940D2C2051310941095109C3
:1031000056954795379527952093B80066EA111193
:1031100067EACE010E94D6168D8D9E8D892B41F1D6
:1031200029AD3AAD4BAD5CAD60E074E284EF90E068
:103130000E940D2C2051310941095109569547959E
:10314000379527952093B800DF91CF911F9108956F
:103150008B8D9C8D892B21F08EAD9FAD0E94580EDA
:10316000EFA5F8A990818CA9809589238083CECF83
:10317000EFA5F8A980819CA9892B8083E5CF90E0F9
:1031800080E008952091810530918205C90107965C
:1031900097FD079623E0959587952A95E1F720916D
:1031A0007F0530918005829FA001839F500D929FE3
:1031B000500D112470E060E080919A0590919B057C
:1031C0000C94FA2FFB0101900020E9F73197AF0131
:1031D000461B570BDC01ED91FC910280F381E02D41
:1031E00019940F931F93CF93DF93EC01FB0144815C
:1031F000558160817181E881F9810280F381E02D40
:1032000019958C016AE572E0CE010E94E218800FE8
:10321000911FDF91CF911F910F9108950F931F93ED
:10322000CF93DF93EC010E94E2188C016AE572E013
:10323000CE010E94E218800F911FDF91CF911F9164
:103240000F9108954F925F926F927F928F929F920B
:10325000AF92BF92CF92DF92EF92FF920F931F93A4
:10326000CF93DF9361E084E30E94020880906C03B7
:1032700090906D03A0906E03B0906F03C0909D027C
:10328000D0909E02E0909F02F090A0022BED33E3DD
:103290004BE45EE3C701B6010E94322B20E030E030
:1032A00040ED51E40E94382C0E941B2D8B016F379A
:1032B00071050CF0B5C020E030E0A901C501B401F2
:1032C0000E94CC2A87FF02C00FE710E01093030290
:1032D00000930202409068035090690360906A0373
:1032E00070906B038090990290909A02A0909B023C
:1032F000B0909C022BED33E34BE45EE3C501B401D7
:103300000E94322B20E030E040ED51E40E94382C46
:103310000E941B2DCFEFD0E0C61BD70BCF37D105B6
:103320000CF08AC020E030E0A901C301B2010E9484
:10333000CC2A87FF02C0CFE7D0E0D0930102C09330
:10334000000220E030E241E054E4C701B6010E94EF
:10335000CC2A87FF51C020E030E44DEF53E4C70191
:10336000B6010E94902D18160CF046C06FE770E071
:103370008AE00E94610860E088E00E94020820E084
:1033800030E241E054E4C501B4010E94CC2A87FF39
:103390000AC020E030E44DEF53E4C501B4010E94BF
:1033A000902D18167CF160910002709101028BE063
:1033B0000E94610861E089E00E9402088091980201
:1033C000882339F161E082E30E9402086DE572E032
:1033D0008BE893E0DF91CF911F910F91FF90EF90D9
:1033E000DF90CF90BF90AF909F908F907F906F9025
:1033F0005F904F900C940E19B8018AE00E9461080A
:1034000061E0BACF6FE770E08BE00E94610860E096
:10341000D2CF60E082E30E94020860E672E0D8CF7B
:1034200020E030E040E850E4C501B4010E94902D56
:1034300018160CF449CF4ACF29E23CE54FEC5FE384
:10344000C301B2010E94902D18160CF474CF75CFF1
:10345000EF92FF920F931F93CF93DF938C017B0129
:10346000D0E0C0E0F701EC0FFD1F6491662361F02E
:10347000D801ED91FC910190F081E02DC8011995E2
:10348000892B11F02196EECF6AE572E0C8010E9407
:10349000E2188C0F9D1FDF91CF911F910F91FF902C
:1034A000EF9008950E94EC2F0F931F93CF93DF931B
:1034B000EC0188819981009759F02A813B81261778
:1034C000370730F081E0DF91CF911F910F91089580
:1034D0008B016F5F7F4F0E940B2F009759F09983EC
:1034E00088831B830A832C813D81232B59F7FC01A0
:1034F0001082E8CF80E0E7CFEF92FF920F931F9307
:10350000CF93DF936115710541F480E0DF91CF9196
:103510001F910F91FF90EF90089541155105B1F063
:103520007B01EC010C811D81040F151FB8010E9465
:10353000541A882351F3288139818C819D81B701E8
:10354000820F931F0E9401301D830C8381E0DECF28
:10355000CF93DF93EC0188819981009711F00E944D
:10356000822E198218821D821C821B821A82DF9190
:10357000CF910895CF92DF92EF92FF920F931F9316
:10358000CF93DF93CDB7DEB7A1970FB6F894DEBF28
:103590000FBECDBF7C01CB01BA01F70111821082B1
:1035A00013821282158214828E010F5F1F4F22E058
:1035B00044E00E94DA266C01009771F0FC01019052
:1035C0000020E9F731978F01081B190BB801C701DB
:1035D0000E94541A811112C0C7010E94A81AA19614
:1035E0000FB6F894DEBF0FBECDBFDF91CF911F9114
:1035F0000F91FF90EF90DF90CF900895F701158322
:103600000483B601808191810E940130E8CFCF937D
:10361000DF93EC01FB0144815581608171810E943F
:103620007C1A811103C0CE010E94A81ACE01DF913D
:10363000CF910895EF92FF920F931F93CF93DF9353
:10364000EC017B01198218821B821A821D821C8266
:10365000FB0101900020E9F731978F01061B170B42
:10366000B8010E94541A811109C0CE01DF91CF9197
:103670001F910F91FF90EF900C94A81A1D830C835B
:10368000B70188819981DF91CF911F910F91FF90B0
:10369000EF900C940130FC0180819181009711F032
:1036A0000C94822E0895EF92FF920F931F93CF9365
:1036B000DF93CDB7DEB72C970FB6F894DEBF0FBE01
:1036C000CDBF0E9453090091AD021091AE0220912E
:1036D000AF023091B002601B710B820B930B0E9402
:1036E000D12A9B01AC0160E074E284E799E40E9476
:1036F000A92C20E030E040EF51E40E94CC2A87FF63
:1037000049C10E9453096093AD027093AE02809349
:10371000AF029093B0020E94C21881E080938F059F
:103720008093900581E090E090938E0580938D05C5
:1037300090938C0580938B051092880510928705D5
:1037400010928A051092890540916C0350916D0387
:1037500060916E0370916F03CE0107960E94BA1AB2
:1037600063E672E0CE0101960E941A1BBE01695FFA
:103770007F4FCE0101960E94071BBC018BE795E0AD
:103780000E94F118CE0101960E944B1BCE010796B4
:103790000E944B1B06E410E01093880500938705F8
:1037A00010928A051092890540916803509169032F
:1037B00060916A0370916B03CE0107960E94BA1A5A
:1037C00066E672E0CE0101960E941A1BBE01695F97
:1037D0007F4FCE0101960E94071BBC018BE795E04D
:1037E0000E94F118CE0101960E944B1BCE01079654
:1037F0000E944B1B10928805109287058AE0E82EE4
:10380000F12CF0928A05E09289054091A90250912D
:10381000AA026091AB027091AC02CE0107960E94A1
:10382000BA1A69E672E0CE0101960E941A1BBE0127
:10383000695F7F4FCE0101960E94071BBC018BE799
:1038400095E00E94F118CE0101960E944B1BCE011B
:1038500007960E944B1B1093880500938705F092F2
:103860008A05E0928905609178037091790390E070
:1038700080E00E94D12AAB01BC0185EC94E00E945B
:10388000750B9B01AC0160E074E284E799E40E944F
:10389000A92CAB01BC01CE0107960E94BA1A6CE6B6
:1038A00072E0CE0101960E941A1BBE01695F7F4F34
:1038B000CE0101960E94071BBC018BE795E00E9498
:1038C000F118CE0101960E944B1BCE0107960E9473
:1038D0004B1B109288051092870594E1E92EF12C7C
:1038E000F0928A05E09289054091A5025091A602C6
:1038F0006091A7027091A802CE0107960E94BA1AA1
:1039000060E772E0CE0101960E941A1BBE01695F5A
:103910007F4FCE0101960E94071BBC018BE795E00B
:103920000E94F118CE0101960E944B1BCE01079612
:103930000E944B1B1093880500938705F0928A051F
:10394000E09289054091A1025091A2026091A302E8
:103950007091A402CE0107960E94BA1A64E772E041
:10396000CE0101960E941A1BBE01695F7F4FCE01F6
:1039700001960E94071BBC018BE795E00E94F1189D
:10398000CE0101960E944B1BCE0107960E944B1B55
:103990000E9438172C960FB6F894DEBF0FBECDBF2D
:1039A000DF91CF911F910F91FF90EF90089585EDDA
:1039B0008093BC008091F2029091F302A091F402F6
:1039C000B091F5020796A11DB11D23E0B695A7950C
:1039D000979587952A95D1F72091BC0024FD03C0C7
:1039E00010923B0308954091F2025091F3026091CE
:1039F000F4027091F502452B462B472B69F3009793
:103A0000A105B10541F025E32A95F1F700000197E2
:103A1000A109B109E1CF8091F1020C949414CF93E4
:103A2000DF93CDB7DEB72E970FB6F894DEBF0FBE8B
:103A3000CDBF8BE893E00E94490A181619060CF0D6
:103A40004DC06CE572E0CE0107960E941A1B6CE532
:103A500072E0CE0101960E941A1B0E94090A97FD8E
:103A60000FC08A30910561F08D871E8641E050E0DD
:103A7000BE01635F7F4FCE0101960E947C1AEDCF9D
:103A80008F8198850097A9F169817A816115710507
:103A900071F149855A852D813E814217530738F1CE
:103AA0000E9401308D819E819C878B871E821D82A2
:103AB000CE0101960E944B1B8F819885009751F192
:103AC0000E94F8266093A9027093AA028093AB0229
:103AD0009093AC02CE0107960E944B1B2E960FB618
:103AE000F894DEBF0FBECDBFDF91CF9108950E9445
:103AF000822E89819A8198878F838B819C819A8776
:103B000089878D819E819C878B871A8219821C826E
:103B10001B82CCCF60E070E0CB01D4CF4F925F929C
:103B20006F927F928F929F92AF92BF92CF92DF92CD
:103B3000EF92FF92CF93DF9300D01F92CDB7DEB705
:103B40008FE30E943809BC01990F880B990B0E94E2
:103B5000D32A60939D0270939E0280939F0290935C
:103B6000A0028EE30E943809BC01990F880B990BC3
:103B70000E94D32A6093990270939A0280939B02C9
:103B800090939C0280E40E94D90782E00E94D907AA
:103B900021E0892B09F420E02093980283E00E9421
:103BA000D90786E30E943809BC01990F880B990B4D
:103BB0000E94D32A22E539E44DE95BE30E94322BCF
:103BC0002BE13FE24DE25FE30E94372C60936C03F0
:103BD00070936D0380936E0390936F0387E30E944D
:103BE0003809BC01990F880B990B0E94D32A26EA49
:103BF0003BE944EC5AE30E94322B2AE037ED43E2E2
:103C00005BE30E94372C29E23CE54FE85DE30E942C
:103C1000372C609368037093690380936A039093D1
:103C20006B030E940F1D6091A9027091AA028091FE
:103C3000AB029091AC0290582BED3FE049E450E488
:103C40000E94322B20E030E044E353E40E94A92C90
:103C50002B013C010E94952D809068039090690390
:103C6000A0906A03B0906B0320916C0330916D03B8
:103C700040916E0350916F0329833A834B835C8399
:103C8000A50194010E94322B29813A814B815C81EC
:103C90000E94382C6B017C01C092A502D092A60232
:103CA000E092A702F092A802C301B2010E94A42CE4
:103CB0009B01AC01C501B4010E94322BA501940106
:103CC0000E94382C6093A1027093A2028093A302F9
:103CD0009093A40249815A816B817C8183E695E0AF
:103CE0000E94750BAB01BC018FE395E00E94250B90
:103CF000B701A60187E595E00E94750BAB01BC01F9
:103D000083E395E00E94250B6093940270939502E3
:103D10008093960290939702B701A6018BE495E0F9
:103D20000E94750BAB01BC0187E295E00F900F90EC
:103D30000F900F90DF91CF91FF90EF90DF90CF9099
:103D4000BF90AF909F908F907F906F905F904F90BB
:103D50000C94250B1F920F920FB60F9211242F93E4
:103D60003F938F939F93AF93BF9380917F039091E5
:103D70008003A0918103B091820330917E0323E000
:103D8000230F2D3758F50196A11DB11D20937E03F9
:103D900080937F0390938003A0938103B093820369
:103DA0008091830390918403A0918503B091860351
:103DB0000196A11DB11D8093830390938403A0936A
:103DC0008503B0938603BF91AF919F918F913F91EF
:103DD0002F910F900FBE0F901F90189526E8230F7C
:103DE0000296A11DB11DD2CF1F920F920FB60F9256
:103DF00011240BB60F922F933F934F935F936F93C2
:103E00007F938F939F93AF93BF93EF93FF938BE831
:103E100093E00E94690AFF91EF91BF91AF919F914A
:103E20008F917F916F915F914F913F912F910F9063
:103E30000BBE0F900FBE0F901F9018951F920F9200
:103E40000FB60F9211240BB60F922F938F939F935F
:103E5000EF93FF93E0919B03F0919C038081E091AD
:103E6000A103F091A20382FD1DC090818091A40363
:103E70008F5F8F732091A503821741F0E091A40317
:103E8000F0E0E557FC4F958F8093A403FF91EF91ED
:103E90009F918F912F910F900BBE0F900FBE0F909F
:103EA0001F9018958081F2CF1F920F920FB60F923C
:103EB00011240BB60F922F933F934F935F936F9301
:103EC0007F938F939F93AF93BF93EF93FF9388E27A
:103ED00094E00E94690AFF91EF91BF91AF919F9189
:103EE0008F917F916F915F914F913F912F910F90A3
:103EF0000BBE0F900FBE0F901F9018951F920F9240
:103F00000FB60F9211240BB60F922F938F939F939E
:103F1000EF93FF93E0913804F09139048081E091B0
:103F20003E04F0913F0482FD1DC0908180914104C8
:103F30008F5F8F7320914204821741F0E09141041A
:103F4000F0E0E85DFB4F958F80934104FF91EF9186
:103F50009F918F912F910F900BBE0F900FBE0F90DE
:103F60001F9018958081F2CF1F920F920FB60F927B
:103F700011240BB60F922F933F934F935F936F9340
:103F80007F938F939F93AF93BF93EF93FF93809112
:103F9000B900887F803609F44DC008F040C08832EF
:103FA00009F4A9C028F5803109F49DC0C8F488231C
:103FB00009F4FBC0883009F496C0FF91EF91BF91DE
:103FC000AF919F918F917F916F915F914F913F91B1
:103FD0002F910F900BBE0F900FBE0F901F90189552
:103FE000883109F488C0803241F780933A0314C0C5
:103FF000803409F49DC040F48033B9F38833E9F686
:1040000080933A0385ECB0C0803509F485C08835CB
:1040100009F496C0883489F60E94D71CCECF88391F
:1040200009F48CC038F5883729F050F4883611F03F
:10403000803719F683E080933B031092390357C011
:10404000883809F47BC0803919F0803809F0B5CF81
:1040500080913903803208F071C0E091390381E02A
:104060008E0F809339038091BB00F0E0E75EFC4F38
:1040700080833DC0803B39F0E0F4803A09F479C098
:10408000883A09F09ACF84E080933B03109218039A
:1040900010921703E0916403F091650319958091E4
:1040A000170381110FC081E0809317031092F7026C
:1040B00009C0803C09F4A6CF883C09F4A3CF883B13
:1040C00009F07BCFE091180381E08E0F80931803F5
:1040D000F0E0E950FD4F80818093BB009091180380
:1040E0008091170329C0809160038093BB0085EC09
:1040F0008093BC0062CF90915F0380915E0398171C
:1041000058F5E0915F0381E08E0F80935F03F0E04C
:10411000E25CFC4F8081E9CFE0915F0381E08E0F8C
:1041200080935F038091BB00F0E0E25CFC4F8083F2
:1041300090915F0380915E039817C8F285E8D8CF0D
:10414000E0915F0381E08E0F80935F038091BB005D
:10415000F0E0E25CFC4F808380913D0381115CCFF5
:1041600081E080933C0384EA8093BC0010923B037F
:1041700024CF85EC8093BC0010923B0380913903DF
:10418000803230F4E0913903F0E0E75EFC4F1082BA
:104190006091390370E0E0916203F091630389E17B
:1041A00093E019951092390308CF10923A0334CF57
:1041B0000F931F93EBE8F3E01382128248EE53E073
:1041C00060E070E044835583668377838EE092E0FD
:1041D0009183808325E331E03587248724E331E030
:1041E0003787268720E331E0318B208B21E331E0D4
:1041F000338B228B22E331E0358B248B26E331E0B5
:10420000378B268B118E128E138E148EE8E2F4E01B
:1042100013821282448355836683778391838083DC
:1042200085EC90E09587848784EC90E0978786877B
:1042300080EC90E0918B808B81EC90E0938B828B73
:1042400082EC90E0958B848B86EC90E0978B868B4C
:10425000118E128E138E148EAFE6B5E013961C925B
:104260001E92129714964D935D936D937C931797BE
:1042700080E292E011969C938E93EBE7F5E0138237
:10428000128220E830E03583248380E290E0978337
:1042900086833187208793878287168A15861486BE
:1042A0001786168681E0858B848B2FEF3FEF338B4B
:1042B000228B318B208B878B108E128E118E22E3F6
:1042C00032E031832083148E138EB68FA58F10A217
:1042D000178E9FEF94A395A396A397A390A740E86A
:1042E0005AE166E070E045AB56AB67AB70AF40EAB1
:1042F00056E861E070E041AF52AF63AF74AF90E554
:1043000096AF17AE40E050E66AEE76E44093630560
:104310005093640560936505709366054093570557
:10432000509358056093590570935A0540934B0577
:1043300050934C0560934D0570934E0540E051EE4F
:1043400065EF75E040933F0550934005609341054C
:1043500070934205409333055093340560933505BF
:1043600070933605409327055093280560932905DF
:1043700070932A05EEEFF4E0158E168E178E10A2BC
:1043800011A212A213A214A215A216A217A210A67D
:1043900040E050E060EA70E44083518362837383BD
:1043A000148215821682178240E050E060E87FE3B5
:1043B00040875187628773874DEC5CEC6CE47DE34A
:1043C0004487558766877787808FE5EDF4E0158E03
:1043D000168E178E10A211A212A213A214A215A259
:1043E00016A217A210A600E010E028EC32E4008329
:1043F000118322833383148215821682178200E090
:1044000010E020E232E40087118722873387448757
:10441000558766877787808FE1EDF4E011821082FF
:10442000138212828DEC9CECACE4BEE38093C50455
:104430009093C604A093C704B093C8041F910F9132
:104440000895CF93DF93CDB7DEB762970FB6F89498
:10445000DEBF0FBECDBF789484B5826084BD84B5C5
:10446000816084BD85B5826085BD85B5816085BD6F
:1044700080916E00816080936E0010928100809127
:1044800081008260809381008091810081608093AF
:104490008100809180008160809380008091B100D4
:1044A00084608093B1008091B00081608093B000FF
:1044B0008091910082608093910080919100816051
:1044C0008093910080919000816080939000809112
:1044D000A10082608093A1008091A10081608093FF
:1044E000A1008091A00081608093A00080912101B3
:1044F000826080932101809121018160809321015C
:104500008091200181608093200180917A008460F5
:1045100080937A0080917A00826080937A00809103
:104520007A00816080937A0080917A00806880931D
:104530007A001092C10060E08FE30E94300860E0D2
:104540008EE30E94300860E080E40E94300860E062
:1045500082E00E94300860E083E00E94300860E062
:1045600086E30E94300860E087E30E94300861E043
:1045700088E00E94300861E089E00E94300861E034
:104580008AE00E94300861E08BE00E94300861E020
:1045900084E30E94300861E082E30E943008E091E9
:1045A0009B03F0919C0322E02083E0919703F0911C
:1045B00098031082E0919903F0919A038FEC808325
:1045C0001092A303E0919F03F091A00396E09083E3
:1045D000E0919D03F0919E03808180618083E09152
:1045E0009D03F0919E03808188608083E0919D030C
:1045F000F0919E03808180688083E0919D03F0911B
:104600009E0380818F7D8083E0913804F09139048E
:104610002083E0913404F09135041082E091360457
:10462000F091370480E1808310924004E0913C04D3
:10463000F0913D049083E0913A04F0913B04808135
:1046400080618083E0913A04F0913B04808188602E
:104650008083E0913A04F0913B04808180688083FC
:10466000E0913A04F0913B0480818F7D808360ED7E
:1046700077E080E090E00E94780980919A0590911F
:104680009B05892B41F52091810530918205C90157
:10469000079697FD0796B3E095958795BA95E1F74C
:1046A00020917F0530918005AC01429FC001439F5E
:1046B000900D529F900D11240E94E62D90939B0522
:1046C00080939A05892B39F469E37DE088E294E0D0
:1046D0000E94281AFFCF0E94C218209181053091B4
:1046E000820580917F0590918005B90121323105C5
:1046F0000CF482C16054710977FF02C06F5F7F4F75
:10470000759567958255910997FD019600E410E033
:1047100022E530E049E45AE0959587950E944213DE
:1047200082E080939D058091980590919905892B51
:1047300009F475C18CE380939C0510926703109275
:10474000660310928803109287030E94761486EB0A
:1047500099E0909365038093640387EB99E09093CD
:104760006303809362038091A30587FD1EC061E00F
:104770000E94300861E08091A3050E94020861E078
:1047800070E080E090E00E94780960E08091A305ED
:104790000E9402086AE070E080E090E00E947809E0
:1047A00061E08091A3050E94020880919805909194
:1047B0009905892B09F4F2C12091B0053091B1051A
:1047C0004091B2055091B30560E074E284EF90E04F
:1047D0000E940D2C205131094109510956954795E8
:1047E000379527952093B80064E085E698E00E940D
:1047F00021166091810561508BE795E00E94D616E5
:1048000064E081E698E00E94211680919D0564E1B4
:10481000813009F460E18BE795E00E94D61664E0F0
:104820008DE598E00E9421168FE88093B80580916D
:104830007F05909180058038910509F0C8C180916D
:104840008105909182058034910509F0D0C1809155
:104850009D05813009F4B9C18FEC8093B80512E150
:104860006AED8BE795E00E94D616612F8BE795E005
:104870000E94D61661E88BE795E00E94D6166091FB
:10488000B8058BE795E00E94D61669ED8BE795E0B9
:104890000E94D61680919D0561EF813009F462E295
:1048A0008BE795E00E94D61666E087E598E00E94C7
:1048B00021168091980590919905892B09F49BC147
:1048C0002091B4053091B5054091B6055091B705DA
:1048D00060E074E284EF90E00E940D2C20513109D9
:1048E0004109510956954795379527952093B8006A
:1048F0000E94C218FF24F394F0928F05F092900565
:1049000001E010E010938E0500938D0510938C0547
:1049100000938B05109288051092870510928A05E6
:104920001092890563E27DE08BE795E00E94281AEA
:10493000109288051092870584E190E090938A0593
:104940008093890566E17DE08BE795E00E94281A57
:104950000E94381760ED77E080E090E00E947809CF
:1049600068E772E088E294E00E940E190E94C21883
:10497000F0928F05F092900510938E0500938D05AF
:1049800010938C0500938B05109288051092870573
:1049900010928A051092890569E07DE08BE795E029
:1049A0000E94281A0E9438170FE710E00E9453094E
:1049B00020917A0330917B03AB01421B530B509340
:1049C00079034093780360937A0370937B03809319
:1049D0007C0390937D030E940F1D83E00E94D90702
:1049E000019709F012C10E94531B0E948E1D0E9464
:1049F00022190E94F80ADACF6052710977FF02C0CB
:104A00006F5F7F4F759567958357910997FD019665
:104A100000E210E023E730E049E658E07DCE61E0B7
:104A20008091A1050E94300861E08091A2050E945A
:104A300030088091A105082E000C990BFC01EF5560
:104A4000F24FE491F0E0EE0FFF1FE359F24F259192
:104A500034913093A9052093A805FC01E951F24F48
:104A6000E491E093AE058091A205082E000C990B0D
:104A7000FC01EF55F24FE491F0E0EE0FFF1FE35918
:104A8000F24FA591B491B093AB05A093AA05FC0198
:104A9000E951F24FE491E093AF058C91E82BEC9350
:104AA0008091960590919705892B09F434C01FB722
:104AB000F89480916103811127C0E6EDFDE08491B7
:104AC000ECE1FEE09491E82FF0E0EE0FFF1FED5ACD
:104AD000F24FA591B491EC91E92321F461E085E3D3
:104AE0000E94020861E085E30E9430088CB5806175
:104AF0008CBD8CB580648CBD61E084E30E9430087D
:104B000061E083E30E943008809161038F5F8093AE
:104B100061031FBF28CE61E080919F050E9430088D
:104B200061E08091A0050E94300880919F05082EC9
:104B3000000C990BFC01EF55F24FE491F0E0EE0F01
:104B4000FF1FE359F24F259134913093A50520932F
:104B5000A405FC01E951F24FE491E093AC0580918A
:104B6000A005082E000C990BFC01EF55F24FE491C3
:104B7000F0E0EE0FFF1FE359F24FA591B491B0930F
:104B8000A705A093A605FC01E951F24FE491E0933B
:104B9000AD058C91E095E823EC93E5CD80919605E9
:104BA00090919705892B31F08091B9059091BA05C4
:104BB0000E94580EE091AA05F091AB05908180917A
:104BC000AF058095892380830FCE8FE946CE80364E
:104BD000910569F48091810590918205409739F49F
:104BE00080919D05813029F08FEA8093B80512E00D
:104BF00037CE80E1FACFE091AA05F091AB05808134
:104C00009091AF05892B808373CE0E945309AB012D
:104C1000BC018091740390917503A0917603B091CB
:104C20007703805F984DAF4FBF4F84179507A60756
:104C3000B70708F0DECE40E050E0BA01CE010D9695
:104C40000E94BA1A40E050E0BA01CE0107960E94D5
:104C5000BA1A64E872E0CE0101960E941A1BBE01E6
:104C6000695F7F4FCE0101960E94071B7C0147E0E0
:104C700050E06BE872E00E947C1A811103C0C7010A
:104C80000E94A81ABE01635F7F4FC7010E94071BE5
:104C9000BC0188E294E00E94F118CE0101960E94C6
:104CA0004B1BCE0107960E944B1BCE010D960E9416
:104CB0004B1B0E948E1D0E945309609374037093D6
:104CC000750380937603909377030E94AA09AB0142
:104CD000BC018091700390917103A0917203B09117
:104CE000730388579C4EAF4FBF4F84179507A60795
:104CF000B70708F078CE0E94AA09609370037093FA
:104D0000710380937203909373036B017C0150EDE8
:104D1000C50E57E0D51EE11CF11C0E94AA096C15B6
:104D20007D058E059F0508F05ECE83E00E94D907C1
:104D3000892B09F058CE20E030E040E650E4609145
:104D40006C0370916D0380916E0390916F030E94CC
:104D5000902D9FE7A92EB12C18161CF082EBA82EDF
:104D6000B12CB0920302A0920202109301020093B0
:104D7000000261E088E00E940208B5018AE00E941A
:104D8000610861E089E00E9402086FE770E08BE053
:104D90000E946108C2CF82E392E090937C058093E9
:104DA0007B0580919A0590919B05009711F00C94DA
:104DB000822E0895EF920F931F93CF93DF93E80114
:104DC00034E047FD34E1042E000C550B57FF03C0BF
:104DD000519541955109E32E022F242FAE010E94D7
:104DE000FC26CE01DF91CF911F910F91EF90089596
:104DF000662777270C9475288F929F92AF92BF9267
:104E0000CF92DF92EF92FF920F931F93CF93DF9396
:104E100000D000D000D0CDB7DEB76A01F22EB02EA0
:104E2000102FFBE3AF2EA01608F41BE31F5F012F2A
:104E300027E0AE014F5F5F4F0E94D329BC018981FB
:104E4000982F9970913009F44EC09BE2E1FC04C0A8
:104E50009E2D9170E0FC49C05E2D5071E82FE870E6
:104E600083FF55C084E0911101C083E0EF2DE81B62
:104E70008F1508F0E0E0D6018E2F20E25523C9F10E
:104E8000992329F0D6019C93C60101966C019601E5
:104E90002D5F3F4FE2FE33C08EE4D6018C9391E448
:104EA00011969C93119712968C93D9018E2F90E2B4
:104EB00081112AC0E20FF32FF11D10828EEF9FEFB8
:104EC00029960FB6F894DEBF0FBECDBFDF91CF910C
:104ED0001F910F91FF90EF90DF90CF90BF90AF9018
:104EE0009F908F9008959DE2B7CF90E2B5CF2D931C
:104EF00081508111FCCFCE0ED11CE0E0C1CF8EE6F7
:104F0000D6018C9391E6CCCF9D938150D1CF482F81
:104F1000447082FF3DC084E0911101C083E08F1591
:104F200010F4EF2DE81BD6018E2F20E2552309F156
:104F3000992329F0D6019C93C60101966C01960134
:104F40002D5F3F4FE2FE1BC089E4D6018C938EE4B7
:104F500011968C93119786E412968C93D9018E2F1B
:104F600090E2882309F4A6CF9D938150FACF2D9328
:104F700081508111FCCFCE0ED11CE0E0D9CF89E663
:104F8000D6018C938EE611968C93119786E6E4CF2A
:104F90009B0177FF02C030E020E0A1E0B0E091117A
:104FA00002C0B0E0A0E0F9013196AE0FBF1F8B2C1C
:104FB000912CBB2009F461C05401EFEFAE1ABE0A78
:104FC000AA0DBB1DFA161B0619F014F04F2D4A1B33
:104FD000511188C0E3FC59C07601A42FB0E2A111A1
:104FE0004FC0C40ED11C992309F45BC040E0D60128
:104FF0001196F60190836D01552309F448C0012FE5
:10500000060F9A81582F507184FF03C0913309F421
:10501000015010160CF047C0093008F008E0EEE22D
:10502000FE2E5B01A01AB10885019194819491082C
:105030002F3F320729F4D601FC92F60131966F0119
:105040006217730794F1021713077CF5DB01A21BAB
:10505000B30BAA24A394B12CAC0EBD1EAA0DBB1D8C
:1050600011968C9121503109D601119628153905D8
:10507000F4F0F60180836D01DBCFB12CA12CA0CF21
:10508000F701B1937F01A150AACF9111B0CFD60102
:10509000942F50E302C05D9391509111FCCFC40E48
:1050A000D11C40E0ACCF01E0BACF80E3DBCF621788
:1050B000730731F4963388F4953311F4552369F06E
:1050C000F6018083FD01842F90E2811108C0A40FB6
:1050D000B11D1C9290E080E0F3CE81E3F1CF91937B
:1050E0008150F3CF911183CF8ACF8F929F92AF924D
:1050F000BF92CF92DF92EF92FF920F931F93CF93C5
:10510000DF935C017B016115710519F0DB018D9363
:105110009C9385010F5F1F4FF501D0818D2F90E08B
:105120000E94AB2A6C01892BB9F5DD32B9F50F5F0E
:105130001F4FD5011196DC91C1E05801F1E0AF1A83
:10514000B10843E050E06AE172E0C5010E94B42A70
:10515000892B69F5680182E0C80ED11C45E050E05A
:1051600065E172E0C6010E94B42A892B21F468012E
:1051700097E0C90ED11CE114F10419F0D701CD92CA
:10518000DC9260E070E080E89FEFC111FFC060E05A
:1051900070E080E89FE7FAC05801BBCFDB3229F40A
:1051A00085010E5F1F4FF501D181C0E0C6CF43E0FE
:1051B00050E062E172E0C5010E94B42A892BE9F057
:1051C000F80110E000E020E030E0A9015F01B0ED5F
:1051D0008B2E8D0E89E08815C8F19C2E689491F86D
:1051E0008C2F8870C2FF16C0811102C00F5F1F4F45
:1051F0003196D501DC91C92DE9CFE114F10429F0F4
:105200000E5F1F4FF7011183008360E070E080ECB8
:105210009FE7BCC0882311F001501109A5E0B0E060
:105220000E94F32B9B01AC01220F331F441F551F1B
:10523000280D311D411D511D283999E939074907AC
:1052400099E15907A8F2C6609C2ED2CFAEEF8A1220
:1052500006C0C3FD3CC09C2E689493F8C9CFDF7D87
:10526000D534A9F580818D3239F4C061DF01129601
:10527000818162E070E006C0DF018B32C1F31196DC
:1052800061E070E080535D01A61AB70A8A30F8F435
:10529000E0E8CE16ECE0DE065CF4B601660F771FA0
:1052A000660F771FC60ED71ECC0CDD1CC80ED11C96
:1052B0005D01FFEFAF1ABF0A8C9180538A30A8F1CD
:1052C000C4FF03C0D194C194D1080C0D1D1DC1FFB2
:1052D00009C0E114F10431F081E0A81AB108D70146
:1052E000AD92BC92CA01B9010E94D12AC370C330E9
:1052F00009F490584B015C0120E030E0A9010E94C4
:10530000CC2A882309F440C0C9E4D2E017FF05C0C5
:10531000119501951109C1E3D2E06E01B8E1CB1AF4
:10532000D10880E2E82EF12C0FC0D501B1CFFE01EB
:1053300025913591459154910E191F09C501B4016C
:105340000E94322B4B015C01D501C4010E151F05D3
:1053500074F72497F594E794CC16DD06A9F78A2F05
:10536000880F8B2F881F8F3F49F020E030E0A90184
:10537000C501B4010E94CC2A811106C082E290E0EE
:105380009093BC058093BB05C501B401DF91CF911B
:105390001F910F91FF90EF90DF90CF90BF90AF9053
:1053A0009F908F900895283008F027E03327DA0186
:1053B000990F311D87FD916000966105710539F4E3
:1053C00032602E5F3D9330E32A95E1F708959F3FC9
:1053D00030F080387105610509F03C5F3C5F3D931A
:1053E000913008F08068911DDF93CF931F930F9346
:1053F000FF92EF92192F987F9695E92F96959695A3
:10540000E90FFF27E955FD4F99273327EE24FF24A5
:10541000A701E70105900894079428F4360FE71ECA
:10542000F81E491F511D660F771F881F991F06948C
:10543000A1F70590079428F4E70EF81E491F561FA0
:10544000C11D770F881F991F661F0694A1F705904D
:10545000079428F4F80E491F561FC71FD11D880F47
:10546000991F661F771F0694A1F70590079420F4F3
:10547000490F561FC71FD81F990F661F771F881F18
:105480000694A9F784911095177041F0D695C795A9
:1054900057954795F794E7941A95C1F7EDE4F2E034
:1054A00068941590159135916591959105907FE2DD
:1054B0007395E118F10A430B560BC90BD009C0F7DD
:1054C000E10CF11E431F561FC91FD01D7EF470331F
:1054D00011F48A95E6CFE894015030F0080F0AF4F1
:1054E0000027021708F4202F2395022F7A3328F083
:1054F00079E37D932A95E9F710C07D932A9589F683
:10550000069497956795379517951794E118F10AC2
:10551000430B560BC90BD00998F023957E917395D8
:105520007A3308F070E37C932013B8F77E917061B2
:105530007D9330F0839571E37D9370E32A95E1F7D5
:105540001124EF90FF900F911F91CF91DF91992738
:1055500087FD9095089591110C949F2B803219F03E
:1055600089508550C8F70895FB01DC014150504037
:1055700088F08D9181341CF08B350CF4805E659140
:1055800061341CF06B350CF4605E861B611171F3A5
:10559000990B0895881BFCCF0E940E2B08F481E024
:1055A0000895E89409C097FB3EF490958095709516
:1055B00061957F4F8F4F9F4F9923A9F0F92F96E95F
:1055C000BB279395F695879577956795B795F111D4
:1055D000F8CFFAF4BB0F11F460FF1BC06F5F7F4F71
:1055E0008F4F9F4F16C0882311F096E911C0772383
:1055F00021F09EE8872F762F05C0662371F096E88C
:10560000862F70E060E02AF09A95660F771F881F5A
:10561000DAF7880F9695879597F90895990F0008FE
:10562000550FAA0BE0E8FEEF16161706E807F90774
:10563000C0F012161306E407F50798F0621B730B0F
:10564000840B950B39F40A2661F0232B242B252B90
:1056500021F408950A2609F4A140A6958FEF811D33
:10566000811D08950E94452B0C94B92B0E94AB2BF1
:1056700038F00E94B22B20F0952311F00C94A22B4D
:105680000C94A82B11240C94ED2B0E94CA2B70F3C0
:10569000959FC1F3950F50E0551F629FF001729FD7
:1056A000BB27F00DB11D639FAA27F00DB11DAA1FE6
:1056B000649F6627B00DA11D661F829F2227B00D33
:1056C000A11D621F739FB00DA11D621F839FA00DBE
:1056D000611D221F749F3327A00D611D231F849F0E
:1056E000600D211D822F762F6A2F11249F57504065
:1056F0009AF0F1F088234AF0EE0FFF1FBB1F661FE0
:10570000771F881F91505040A9F79E3F510580F0A8
:105710000C94A22B0C94ED2B5F3FE4F3983ED4F352
:10572000869577956795B795F795E7959F5FC1F74C
:10573000FE2B880F911D9695879597F908959927C7
:105740008827089597F99F6780E870E060E00895E2
:105750009FEF80EC089500240A9416161706180689
:105760000906089500240A94121613061406050665
:105770000895092E0394000C11F4882352F0BB0FF6
:1057800040F4BF2B11F460FF04C06F5F7F4F8F4F59
:105790009F4F089557FD9058440F551F59F05F3F94
:1057A00071F04795880F97FB991F61F09F3F79F043
:1057B00087950895121613061406551FF2CF4695C5
:1057C000F1DF08C0161617061806991FF1CF869547
:1057D0007105610508940895E894BB27662777272B
:1057E000CB0197F908950E94FE2BA59F900DB49FC1
:1057F000900DA49F800D911D11240895A29FB001CA
:10580000B39FC001A39F700D811D1124911DB29FF4
:10581000700D811D1124911D0895A1E21A2EAA1B5D
:10582000BB1BFD010DC0AA1FBB1FEE1FFF1FA21750
:10583000B307E407F50720F0A21BB30BE40BF50B4D
:10584000661F771F881F991F1A9469F760957095D6
:10585000809590959B01AC01BD01CF010895EE0F9D
:10586000FF1F881F8BBF0790F691E02D19945058A9
:10587000BB27AA270E944F2C0C94B92B0E94AB2B5C
:1058800038F00E94B22B20F039F49F3F19F426F42F
:105890000C94A82B0EF4E095E7FB0C94A22BE92FB7
:1058A0000E94CA2B58F3BA1762077307840795073B
:1058B00020F079F4A6F50C94EC2B0EF4E0950B2E69
:1058C000BA2FA02D0B01B90190010C01CA01A00152
:1058D0001124FF27591B99F0593F50F4503E68F1AD
:1058E0001A16F040A22F232F342F4427585FF3CFEE
:1058F000469537952795A795F0405395C9F77EF4BF
:105900001F16BA0B620B730B840BBAF09150A1F007
:10591000FF0FBB1F661F771F881FC2F70EC0BA0F8D
:10592000621F731F841F48F4879577956795B79515
:10593000F7959E3F08F0B0CF9395880F08F0992710
:10594000EE0F9795879508950E94532DE3950C943B
:105950007C2D0E94BD2C0C94B92B0E94B22B58F0C8
:105960000E94AB2B40F029F45F3F29F00C94A22B4E
:1059700051110C94ED2B0C94A82B0E94CA2B68F3A8
:105980009923B1F3552391F3951B550BBB27AA27F8
:1059900062177307840738F09F5F5F4F220F331F32
:1059A000441FAA1FA9F335D00E2E3AF0E0E832D0FA
:1059B00091505040E695001CCAF72BD0FE2F29D0FD
:1059C000660F771F881FBB1F261737074807AB07CF
:1059D000B0E809F0BB0B802DBF01FF2793585F4F44
:1059E0003AF09E3F510578F00C94A22B0C94ED2BCD
:1059F0005F3FE4F3983ED4F3869577956795B79526
:105A0000F7959F5FC9F7880F911D9695879597F930
:105A10000895E1E0660F771F881FBB1F62177307A9
:105A20008407BA0720F0621B730B840BBA0BEE1FBE
:105A300088F7E09508950E94222D6894B1110C9486
:105A4000ED2B08950E94D22B88F09F5798F0B92F24
:105A50009927B751B0F0E1F0660F771F881F991FA3
:105A60001AF0BA95C9F714C0B13091F00E94EC2B2E
:105A7000B1E008950C94EC2B672F782F8827B85F3E
:105A800039F0B93FCCF3869577956795B395D9F7FB
:105A90003EF490958095709561957F4F8F4F9F4F05
:105AA00008950C94A82B0E94D22BD8F3E894E0E040
:105AB000BB279F57F0F02AED3FE049EC06C0EE0F00
:105AC000BB0F661F771F881F28F0B23A6207730763
:105AD000840728F0B25A620B730B840BE3959A95F6
