:100000000C9462070C9493070C9493070C94930739
:100010000C9493070C9493070C9493070C949307F8
:100020000C9493070C9493070C9493070C949307E8
:100030000C9493070C9493070C9493070C949307D8
:100040000C9493070C9493070C9493070C949307C8
:100050000C9493070C9493070C9493070C947F1EB5
:100060000C9493070C9427150C94FD140C9493078F
:100070000C9493070C9493070C9493070C94930798
:100080000C9493070C9493070C9493070C94930788
:100090000C9493070C9493070C9493070C94750A93
:1000A0000C9493070C9493070C9493070C94930768
:1000B0000C9493070C9493070C9493070C94930758
:1000C0000C9493070C9493070C9493070C94930748
:1000D0000C9493070C9493070C94C7140C949D14E0
:1000E0000C9493071517181707170B1711174F17AD
:1000F0001C17201726172A172E17341738173C17E6
:100100004F17421746174A171F1D241D291D331D5F
:100110003D1DB61D471D4F1D571D611D6B1D751DD6
:10012000841D8E1DB61D981DA21DAC1D05A84CCDAD
:10013000B2D44EB93836A9020C50B9918688083C21
:10014000A6AAAA2ABE000000803F0C94430A0C9481
:100150008E1D0C94751D0C946B1D0C9442170C9401
:1001600085120C941B100C9418170C94CD0F0C9442
:1001700095070C94B8100C94B61D0C94AC1D0C94FF
:1001800041120C944F170C942A170C941F080C94CE
:10019000EA090C944F1D0C9411170C9426170C941B
:1001A000F80F0C94611D0C942E170C94981D0C9450
:1001B000331D0C941C170C94E2110C94A21D0C948A
:1001C000CD110C941F1D0C94D7080C944A170C9455
:1001D0005A250C9434170C94E7080C94CE0F0C9409
:1001E000F3080C940E0A0C94160A0C9407170C943E
:1001F0003C170C94291D0C9415170C9406090C94AB
:10020000A0160C9429100C94571D0C94EB090C9417
:10021000D6080C9438170C94841D0C94FA090C948D
:10022000D0120C94720A0C9420170C9446170C945C
:1002300007100C94241D0C94FF080C940B170C94BD
:100240006B100C9402080C947B200C940F110C94EE
:10025000471D0C943D1D0C94E9094E414E494E49F1
:100260005459494E46CDCCCC3D0AD7233C17B7D183
:100270003877CC2B329595E6241FB14F0A00002029
:10028000410000C84200401C4620BCBE4CCA1B0EA8
:100290005AAEC59D7400407A10F35A00A0724E18F1
:1002A000090010A5D4E80000E87648170000E40B28
:1002B00054020000CA9A3B000000E1F505000080EE
:1002C000969800000040420F000000A08601000048
:1002D00000102700000000E8030000000064000098
:1002E0000000000A00000000000100000000002CD7
:1002F00076D888DC674F0823DFC1DFAE59E1B1B79C
:1003000096E5E3E453C63AE651997696E8E6C28468
:1003100026EB898C9B62ED407C6FFCEFBC9C9F4080
:10032000F2BAA56FA5F490055A2AF75C936B6CF9A5
:10033000676DC11BFCE0E40D47FEF520E6B500D07B
:10034000ED902E0300943577050080841E08000090
:10035000204E0A000000C80C333333330F986E125E
:10036000831141EF8D2114893BE65516CFFEE6DB64
:1003700018D1844B381BF77C1D901DA4BBE42420AE
:100380003284725E228100C9F124ECA1E53D270090
:10039000002100240027002A002D00300033000136
:1003A000010000040107010A0100002200250028C5
:1003B000002B002E0031003400020100000501086E
:1003C000010B01000020002300260029002C002F33
:1003D00000320000010000030106010901050505C6
:1003E00005070508080808020202020A0A080804AC
:1003F00004040401010101010101010303030303DA
:10040000030303040707070C0C0C0C0C0C0C0C0268
:1004100002020206060606060606060B0B0B0B0B6F
:100420000B0B0B0102102020080810204010204068
:1004300080020102010804020101020408102040A8
:1004400080804020100804020180040201804020C6
:1004500010080402010804020101020408102040EF
:1004600080010204081020408000000A0B02090CE1
:100470000D0E08070304010000000000000000004A
:10048000000000000000000000000000000000006C
:100490000000000000121110000000000000000029
:1004A000000000000000000000000000000000004C
:1004B0000103070F1F3F7F0080C0E0F0F8FCFE0043
:1004C000000000003E5B4F5B3E3E6B4F6B3E1C3EB0
:1004D0007C3E1C183C7E3C181C577D571C1C5E7FC4
:1004E0005E1C00183C1800FFE7C3E7FF0018241843
:1004F00000FFE7DBE7FF30483A060E262979292678
:10050000407F050507407F05253F5A3CE73C5A7F61
:100510003E1C1C08081C1C3E7F14227F22145F5FB7
:10052000005F5F06097F017F006689956A606060F1
:10053000606094A2FFA29408047E040810207E202C
:100540001008082A1C08081C2A08081E1010101081
:100550000C1E0C1E0C30383E3830060E3E0E0600C7
:100560000000000000005F00000007000700147F8B
:10057000147F14242A7F2A122313086462364956F2
:1005800020500008070300001C2241000041221CEB
:10059000002A1C7F1C2A08083E08080080703000D2
:1005A0000808080808000060600020100804023EE7
:1005B0005149453E00427F40007249494946214128
:1005C000494D331814127F1027454545393C4A4997
:1005D00049314121110907364949493646494929D6
:1005E0001E000014000000403400000008142241E6
:1005F0001414141414004122140802015909063E6F
:10060000415D594E7C1211127C7F494949363E4169
:100610004141227F4141413E7F494949417F09098A
:1006200009013E414151737F0808087F00417F4125
:10063000002040413F017F081422417F404040405C
:100640007F021C027F7F0408107F3E4141413E7FB4
:10065000090909063E4151215E7F091929462649AB
:1006600049493203017F01033F4040403F1F204082
:10067000201F3F4038403F6314081463030478048C
:10068000036159494D43007F414141020408102054
:10069000004141417F0402010204404040404000CB
:1006A0000307080020545478407F284444383844D5
:1006B000444428384444287F385454541800087E51
:1006C000090218A4A49C787F0804047800447D40A3
:1006D000002040403D007F1028440000417F400042
:1006E0007C047804787C080404783844444438FC5A
:1006F0001824241818242418FC7C080404084854DE
:1007000054542404043F44243C4040207C1C20409A
:10071000201C3C4030403C44281028444C90909091
:100720007C4464544C4400083641000000770000CB
:10073000004136080002010204023C2623263C1E2A
:10074000A1A161123A4040207A385454555921559C
:1007500055794122545478422155547840205455BB
:1007600079400C1E5272123955555559395454540A
:100770005939555454580000457C410002457D428A
:100780000001457C407D1211127DF0282528F07C67
:10079000545545002054547C547C0A097F49324901
:1007A0004949323A4444443A324A4848303A41414D
:1007B000217A3A42402078009DA0A07D3D424242ED
:1007C0003D3D4040403D3C24FF2424487E49436653
:1007D0002B2FFC2F2BFF0929F620C0887E09032030
:1007E000545479410000447D413048484A323840F1
:1007F00040227A007A0A0A727D0D19317D26292954
:100800002F28262929292630484D40203808080855
:100810000808080808382F10C8ACBA2F102834FA76
:1008200000007B000008142A142222142A14085500
:1008300000550055AA55AA55AAFF55FF55FF0000BF
:1008400000FF00101010FF00141414FF001010FF20
:1008500000FF1010F010F0141414FC001414F70032
:10086000FF0000FF00FF1414F404FC141417101F01
:1008700010101F101F1414141F00101010F000008F
:1008800000001F101010101F10101010F0100000AA
:1008900000FF101010101010101010FF10000000BA
:1008A000FF140000FF00FF00001F10170000FC04F1
:1008B000F414141710171414F404F40000FF00F7D4
:1008C00014141414141414F700F714141417141037
:1008D000101F101F141414F4141010F010F0000066
:1008E0001F101F0000001F14000000FC140000F087
:1008F00010F01010FF10FF141414FF141010101F2C
:1009000000000000F010FFFFFFFFFFF0F0F0F0F03C
:10091000FFFFFF0000000000FFFF0F0F0F0F0F3859
:1009200044443844FC4A4A4A347E02020606027EA7
:10093000027E0263554941633844443C04407E20B2
:100940001E2006027E020299A5E7A5991C2A492AC3
:100950001C4C7201724C304A4D4D30304878483052
:10096000BC625A463D3E494949007E0101017E2A4A
:100970002A2A2A2A44445F444440514A444040447D
:100980004A51400000FF0103E080FF000008086BAF
:100990006B083612362436060F090F0600001818A9
:1009A0000000001010003040FF0101001F01011E77
:1009B00000191D1712003C3C3C3C000000000022C6
:1009C00000FF2100DB40A4A62EAF2000A1C8D30069
:1009D000408DAED580A8000060000000000000003F
:1009E00000000000000000E0000000000000000027
:1009F000000000000001E000000000000000000016
:100A00000000000001F000000000000000000000F5
:100A100000000003F00000000000000000000000E3
:100A2000000007F0000000000000000000000000CF
:100A30000007F800000000000000000000000000B7
:100A40000FF800000003C0007E000001E0007F0FEF
:100A5000F800000003C000FE000001E000FFEFF816
:100A600000000003C000FE000001E000FFFFF800EE
:100A7000000003C000F00000000F007FFE7FC000F8
:100A80000003C000F00000000F003FFE7FF83FF1C0
:100A9000FBCFFCFEF3BC3DEFE01FFE7FFF7FFBFFC3
:100AA000DFFEFEFFBC3DEFE01FC6FFFF7FFBFFDF69
:100AB000FEFEFFBC3DEFE00FE3C7FE787BC3DE1E0A
:100AC000F0FFBC3DEF0007FF87FC787BC3DE1EF024
:100AD000F83C3DEF0001FFFFF0007BC3C01EF0F0CB
:100AE0003C3DEF0001F37FE03FFBC3CFFEF0F03C65
:100AF0003DEF0003E33F807FFBC3DFFEF0F03C3DB2
:100B0000EF0007E73C00787BC3DE1EF0F03C3DEFD2
:100B10000007FFBE00787BC3DE1EF0F03C3DEF0017
:100B200007FFFE00787BC3DE1EF0F03C3DEF000FB8
:100B3000FFFE007FFBFFDFFEF0F03FFDEFE00FFF69
:100B4000FF007FFBFFDFFEF0F03FFDEFE00FF9FF5E
:100B5000003E79F9CF9EF0F01F3DE7E01FF1FF0066
:100B600000000000000000000000001F80FF007F68
:100B7000FFFFFFFFFFFFFFFFFFE01C007F007FFF85
:100B8000FFFFFEB46D888D18E000001F007FFFFF9F
:100B9000FFFE95AD7DB577E000000F007FFFFFFF02
:100BA000FEA5AD9D8D19E0000006007FFFFFFFFE52
:100BB000B5ADEDB57EE00000000000018000000052
:100BC00000000000000003800000000000000000A2
:100BD0000007C000000000000000000007C0000087
:100BE000000000000000000FC00000000000000036
:100BF00000001FE00000000000000000001FE000F7
:100C000000000000000000003FE0000000000000C5
:100C10000000003FF00000000000000000007FF036
:100C2000000000000000001FF87FF000000000003E
:100C300000003FFE7FF0000000000000003FFF7F4B
:100C4000F0000000000000001FFFFBE000000000BB
:100C50000000000FFFF9FFC00000000000000FFFC0
:100C6000F9FFF800000000000007FFF1FFFF00009F
:100C70000000000003FC73FFFF8000000000000183
:100C8000FE3FFFFF80000000000000FF1E0FFF007E
:100C90000000000000007FFE1FFC000000000000BC
:100CA000003FFFFFF8000000000000000FDFFFE042
:100CB000000000000000001F19FFC000000000003D
:100CC00000003F3CFF00000000000000007E7CF8B8
:100CD00000000000000000007FFE7C00000000001B
:100CE000000000FFFFFC0000000000000000FFFF0C
:100CF000FE0000000000000000FFFFFE00000000FA
:100D000000000001FFEFFE0000000000000001FFF6
:100D1000CFFE0000000000000003FF07FE000000FF
:100D20000000000003FC07FE0000000000000003BC
:100D3000F003FE00000000000000018000FE000043
:100D400000000000000000007E0000000000000025
:100D50000000003E000000000000000000000C0049
:100D60000000000000078000FC000003C00000003D
:100D7000078001FC000003C0000000078001FC00A8
:100D80000003C0000000078001E00000001E00001A
:100D900000078001E00000001E007FE3F79FF9FDDF
:100DA000E7787BDFC0FFF7FFBFFDFDFF787BDFC08B
:100DB000FFF7FFBFFDFDFF787BDFC0F0F787BC3D8D
:100DC000E1FF787BDE00F0F787BC3DE1F0787BDE69
:100DD0000000F787803DE1E0787BDE007FF7879FAA
:100DE000FDE1E0787BDE00FFF787BFFDE1E0787B87
:100DF000DE00F0F787BC3DE1E0787BDE00F0F787AE
:100E0000BC3DE1E0787BDE00F0F787BC3DE1E078B7
:100E10007BDE00FFF7FFBFFDE1E07FFBDFC0FFF7F8
:100E2000FFBFFDE1E07FFBDFC07CF3F39F3DE1E02E
:100E30003E7BCFC00000000000000000000000FF6B
:100E4000FFFFFFFFFFFFFFFFFFC0FFFFFFFFFD688A
:100E5000DB111A31C0FFFFFFFFFD2B5AFB6AEFC009
:100E6000FFFFFFFFFD4B5B3B1A33C0FFFFFFFFFDA2
:100E70006B5BDB6AFDC04372616E65205265616425
:100E80007921004549543620434536203633300019
:100E900057616974206372616E6520737461727446
:100EA000696E672E2E005353443133303620616C07
:100EB0006C6F636174696F6E206661696C65640054
:100EC0005A257B2011241FBECFEFD1E2DEBFCDBF5C
:100ED00000E00CBF25E0A4E9B2E001C01D92AB3BED
:100EE000B207E1F712E0A0E0B2E0E2ECFFE500E0DB
:100EF0000BBF02C007900D92A439B107D9F717E0D4
:100F0000C1E6D7E000E006C021970109802FFE016D
:100F10000E94F62BC036D10780E00807A9F70E948F
:100F20008A200C94CF2F0C9400008F929F92AF9246
:100F3000BF92CF92DF92EF92FF920F931F93CF93C6
:100F4000DF934C016B015A01E901DC01ED91FC9149
:100F50006217730781F40417150724F48B2D5801C9
:100F6000042F182F0A191B0998012F5F3F4F048C7B
:100F7000F58DE02D12C04017510709F526173707E8
:100F800024F48D2D6901C62FD82F9E012C193D09FF
:100F90002F5F3F4F068CF78DE02D8701A501B6012D
:100FA000C4011995DF91CF911F910F91FF90EF90A0
:100FB000DF90CF90BF90AF909F908F900895028464
:100FC000F385E02D1995D401ED91FC910488F58904
:100FD000E02D9E01A501B601C4011995D401ED9142
:100FE000FC910688F789E02DC401DF91CF911F9114
:100FF0000F91FF90EF90DF90CF90BF90AF909F90B8
:101000008F901994EF92FF920F931F93DC011A9621
:101010000D911C911B9718962D913C911997ED916C
:10102000FC9100A0F1A1E02D7B0140E050E060E0E8
:1010300070E019951F910F91FF90EF9008954F92D6
:101040005F926F927F928F929F92AF92BF92CF9258
:10105000DF92EF92FF920F931F93CF93DF936C0178
:101060002B015A0139014801DC01ED91FC91028408
:10107000F385E02D1995E201640C751CD601ED9104
:10108000FC91C615D7055CF40088F189E02D870135
:101090009401A501BE01C60119952196EFCF0688DE
:1010A000F789E02DC601DF91CF911F910F91FF903D
:1010B000EF90DF90CF90BF90AF909F908F907F90F8
:1010C0006F905F904F9019948F929F92AF92BF92C2
:1010D000CF92DF92EF92FF920F931F93CF93DF9304
:1010E000EC015B014A016901E881F9810284F38521
:1010F000E02D199595012C0D3D1D21503109E881F8
:10110000F9810488F589E02D78018401A401B501F5
:10111000CE011995E881F9810688F789E02DCE0185
:10112000DF91CF911F910F91FF90EF90DF90CF90C3
:10113000BF90AF909F908F9019948F929F92AF9293
:10114000BF92CF92DF92EF92FF920F931F93CF93B4
:10115000DF93EC015B014A0169017801E881F981C3
:101160000284F385E02D1995C80CD91C8601015025
:101170001109E881F9810488F589E02D9501A40120
:10118000B501CE011995E881F9810688F789E02D2E
:10119000CE01DF91CF911F910F91FF90EF90DF90E3
:1011A000CF90BF90AF909F908F9019940895EF9239
:1011B000FF920F931F93DC01ED91FC9100A0F1A130
:1011C000E02D19951F910F91FF90EF9008950F93C7
:1011D0001F93DC01ED91FC91068CF78DE02D1995A4
:1011E0001F910F9108950F931F93DC01ED91FC91D6
:1011F000048CF58DE02D19951F910F910895DC0158
:10120000ED91FC910084F185E02D19942F923F928D
:101210004F925F926F927F928F929F92AF92BF9206
:10122000CF92DF92EF92FF920F931F93CF93DF93B2
:1012300000D000D0CDB7DEB72C017E836D836A016C
:101240005901C801FC82EB824801841A950A97FE75
:1012500003C091948194910835012D813E81621AD9
:10126000730A77FE03C0719461947108681479045D
:101270005CF43A2D2B2D5C01832F922F3D812E8122
:10128000DE82CD82C32ED22EAD81BE81AA16BB06D0
:101290005CF43C2D2D2D6C01832F922F3D812E81EE
:1012A000BE82AD82A32EB22E85012D813E81021B0E
:1012B000130B1C012C183D0837FE03C031942194F8
:1012C0003108780117FF03C03FEFE31AF30AF594E2
:1012D000E794C816D9062CF08FEF9FEF9A83898385
:1012E00004C0A1E0B0E0BA83A9832D813E81A2169B
:1012F000B30624F1D201ED91FC910484F585E02D33
:101300002B813C816814790424F44D815E81B601FF
:1013100003C0A6016D817E81C2011995E218F30810
:10132000F7FE06C029813A81C20ED31EE00EF11EDF
:101330008D819E8101969E838D83D7CF26960FB691
:10134000F894DEBF0FBECDBFDF91CF911F910F91FB
:10135000FF90EF90DF90CF90BF90AF909F908F90D5
:101360007F906F905F904F903F902F90089585ED04
:101370008093BC008091BC0084FDFCCF1092600380
:1013800008954091F102262F30E0240F311D2132C3
:101390003105DCF4209160032430C9F4FC0180E0C5
:1013A00090E0861758F43091F1022191DC01AF52A0
:1013B000BD4FA30FB11D2C930196F3CF8091F10285
:1013C000680F6093F10280E0089581E0089582E063
:1013D000089508950895E091210380912003E8176E
:1013E00030F4F0E0EF54FD4F808190E008958FEFEE
:1013F0009FEF08959091210380912003981750F456
:10140000E92FF0E0EF54FD4F208130E09F5F909393
:10141000210302C02FEF3FEFC901089580912003FF
:1014200090E020912103821B91090895CF92DF92D1
:10143000EF92FF920F931F93CF93DF937C01CB0129
:101440008A0120916103222389F0EB016B01C40E14
:10145000D51ECC15DD0569F06991D701ED91FC91A0
:101460000190F081E02DC7011995F3CF642F0E9400
:10147000C109C801DF91CF911F910F91FF90EF90AB
:10148000DF90CF900895CF93DF931F92CDB7DEB753
:101490006983209161032223D1F0209184032032BB
:1014A00040F021E030E0FC013383228380E090E0D3
:1014B00015C080916203E82FF0E0ED59FC4F99814F
:1014C00090838F5F809362038093840305C061E003
:1014D000CE0101960E94C10981E090E00F90DF915A
:1014E000CF91089580E090E008951F920F920FB67B
:1014F0000F9211240BB60F922F933F934F935F934C
:101500006F937F938F939F93AF93BF93EF93FF93CB
:101510008091B900887F803609F49CC068F58832D4
:1015200009F45BC090F4803109F454C038F4882386
:1015300009F4F6C0883009F44DC0F6C0883109F4CA
:101540004CC0803209F45DC0EFC0803409F468C03B
:1015500048F4803309F455C0883309F0E5C080931E
:101560005E03D8C0803509F44FC0883509F45DC0EA
:10157000883409F0D9C0D6C0883909F4C7C0A8F4A6
:10158000883709F467C038F4883609F463C08037B7
:1015900009F460C0C9C0883809F4B8C0803909F4BA
:1015A0005FC0803809F0C0C05BC0803B09F486C0D2
:1015B00038F4803A09F466C0883A09F47FC0B4C0B0
:1015C000803C09F4A7C0883C09F4A4C0883B09F416
:1015D0008AC0AAC080913B0310C090915D038091A6
:1015E0005C03981770F5E0915D0381E08E0F8093A6
:1015F0005D03F0E0E45CFC4F80818093BB0085ECF0
:1016000086C080935E038EC0E0915D0381E08E0F03
:1016100080935D038091BB00F0E0E45CFC4F80832D
:1016200090915D0380915C036EC0E0915D0381E069
:101630008E0F80935D038091BB00F0E0E45CFC4F73
:10164000808380915F0381116DC081E080933A03B4
:1016500084EA61C083E08093600310921303CFCFCC
:1016600080911303803208F051C0E091130381E0B0
:101670008E0F809313038091BB00F0E0ED50FD4F7F
:101680008083BDCF85EC8093BC0010926003809175
:101690001303803230F4E0911303F0E0ED50FD4F7E
:1016A00010826091130370E0E0911C03F0911D0320
:1016B00083EF92E019951092130336C084E0809373
:1016C00060031092F2021092F102E0911E03F09179
:1016D0001F0319958091F102811105C081E080936B
:1016E000F1021092D102E091F20281E08E0F80931C
:1016F000F202F0E0EF52FD4F80818093BB009091A9
:10170000F2028091F102981708F479CF85E880936E
:10171000BC000AC085EC8093BC001092600304C03A
:1017200010925E030E94B709FF91EF91BF91AF91B4
:101730009F918F917F916F915F914F913F912F91E9
:101740000F900BBE0F900FBE0F901F9018954F92E9
:101750005F926F927F928F929F92AF92BF92CF9241
:10176000DF92EF92FF920F931F93CF93DF9361E08D
:1017700084E30E948B1CC0902603D0902703E09046
:101780002803F090290380909D0290909E02A090E3
:101790009F02B090A0022BED33E34BE45EE3C50162
:1017A000B4010E94F92A20E030E040ED51E40E94AB
:1017B000FF2B0E94E22C8B0120E030E040E850E457
:1017C000C701B6010E94572D18161CF40F371105DA
:1017D00064F420E030E0A901C701B6010E94932A19
:1017E00087FF05C00F37110514F40FE710E01093C1
:1017F0000302009302024090220350902303609062
:10180000240370902503C0909902D0909A02E09032
:101810009B02F0909C022BED33E34BE45EE3C701A7
:10182000B6010E94F92A20E030E040ED51E40E9428
:10183000FF2B0E94E22CCFEFD0E0C61BD70B29E292
:101840003CE54FEC5FE3C301B2010E94572D18162F
:101850001CF4CF37D10564F420E030E0A901C301C6
:10186000B2010E94932A87FF05C0CF37D10514F437
:10187000CFE7D0E0D0930102C093000220E030E235
:1018800041E054E4C501B4010E94932A87FF0AC0D5
:1018900020E030E44DEF53E4C501B4010E94572D20
:1018A000181634F0B8018AE00E94F61C61E006C008
:1018B0006FE770E08AE00E94F61C60E088E00E941A
:1018C0008B1C20E030E241E054E4C701B6010E94E5
:1018D000932A87FF0AC020E030E44DEF53E4C701AC
:1018E000B6010E94572D18164CF0609100027091BD
:1018F00001028BE00E94F61C61E006C06FE770E019
:101900008BE00E94F61C60E089E00E948B1C8091B5
:101910009802882339F061E082E30E948B1C6AE51B
:1019200072E006C060E082E30E948B1C6DE572E00D
:1019300085E893E0DF91CF911F910F91FF90EF9099
:10194000DF90CF90BF90AF909F908F907F906F90DF
:101950005F904F900C94C91ECF93DF93CDB7DEB745
:101960002E970FB6F894DEBF0FBECDBF85E893E08B
:101970000E942910181619060CF064C067E772E07F
:10198000CE0107960E94141467E772E0CE0101961B
:101990000E9414140E94491E97FD0FC08A309105C1
:1019A00061F08D871E8641E050E0BE01635F7F4F8E
:1019B000CE0101960E94CF13EDCF8F8198850097BD
:1019C000A9F069817A816115710571F049855A859F
:1019D0002D813E814217530738F00E94C82F8D8118
:1019E0009E819C878B8712C00E94452E89819A8197
:1019F00098878F838B819C819A8789878D819E812F
:101A00009C878B871A8219821C821B821E821D82F0
:101A1000CE0101960E940F148F819885009719F0CE
:101A20000E94C32603C060E070E0CB016093A9026E
:101A30007093AA028093AB029093AC02CE010796FA
:101A40000E940F142E960FB6F894DEBF0FBECDBFC6
:101A5000DF91CF9108954F925F926F927F928F9214
:101A60009F92AF92BF92CF92DF92EF92FF92CF936D
:101A7000DF9300D01F92CDB7DEB78FE30E94BF1D6A
:101A8000BC01990F880B990B0E949A2A60939D02C2
:101A900070939E0280939F029093A0028EE30E9417
:101AA000BF1DBC01990F880B990B0E949A2A609365
:101AB000990270939A0280939B0290939C0280E417
:101AC0000E94621C82E00E94621C21E0892B09F4C2
:101AD00020E02093980283E00E94621C86E30E942B
:101AE000BF1DBC01990F880B990B0E949A2A22E511
:101AF00039E44DE95BE30E94F92A2BE13FE24DE234
:101B00005FE30E94FE2B609326037093270380936C
:101B100028039093290387E30E94BF1DBC01990FFE
:101B2000880B990B0E949A2A26EA3BE944EC5AE377
:101B30000E94F92A2AE037ED43E25BE30E94FE2B84
:101B400029E23CE54FE85DE30E94FE2B609322030F
:101B50007093230380932403909325030E94AC0C7D
:101B60008091A9029091AA02A091AB02B091AC021F
:101B7000BC01CD0190582BED3FE049E450E40E94B8
:101B8000F92A20E030E044E353E40E94702C2B015A
:101B90003C010E945C2D8090220390902303A09032
:101BA0002403B09025032091260330912703409110
:101BB00028035091290329833A834B835C83A50131
:101BC00094010E94F92A29813A814B815C810E940B
:101BD000FF2B6B017C016093A5027093A60280939A
:101BE000A7029093A802C301B2010E946B2C9B0133
:101BF000AC01C501B4010E94F92AA50194010E941B
:101C0000FF2B6093A1027093A2028093A302909392
:101C1000A40249815A816B817C8187E095E00E9412
:101C2000AD15AB01BC0183EE94E00E945D15B701D8
:101C3000A6018BEF94E00E94AD15AB01BC0187EDCE
:101C400094E00E945D1560939402709395028093D6
:101C5000960290939702B701A6018FEE94E00E943E
:101C6000AD15AB01BC018BEC94E00F900F900F9081
:101C70000F90DF91CF91FF90EF90DF90CF90BF90CA
:101C8000AF909F908F907F906F905F904F900C944B
:101C90005D15EF92FF920F931F93CF93DF93CDB714
:101CA000DEB72C970FB6F894DEBF0FBECDBF0E94F3
:101CB000DE1D0091AD021091AE022091AF02309175
:101CC000B002601B710B820B930B0E94982A9B0140
:101CD000AC0160E074E284E799E40E94702C20E09B
:101CE00030E040EF51E40E94932A87FF49C10E94EF
:101CF000DE1D6093AD027093AE028093AF029093AD
:101D0000B0020E94E91E81E0809327058093280598
:101D100081E090E09093260580932505909324051B
:101D2000809323051092200510921F051092220522
:101D300010922105409126035091270360912803BA
:101D400070912903CE0107960E94091F60E672E098
:101D5000CE0101960E941414BE01695F7F4FCE012F
:101D600001960E94561FBC0183E195E00E945A141F
:101D7000CE0101960E940F14CE0107960E940F1407
:101D800006E410E01093200500931F051092220531
:101D90001092210540912203509123036091240366
:101DA00070912503CE0107960E94091F63E672E039
:101DB000CE0101960E941414BE01695F7F4FCE01CF
:101DC00001960E94561FBC0183E195E00E945A14BF
:101DD000CE0101960E940F14CE0107960E940F14A7
:101DE0001092200510921F058AE0E82EF12CF09247
:101DF0002205E09221054091A9025091AA0260912A
:101E0000AB027091AC02CE0107960E94091F66E6F4
:101E100072E0CE0101960E941414BE01695F7F4FEB
:101E2000CE0101960E94561FBC0183E195E00E94FD
:101E30005A14CE0101960E940F14CE0107960E94FB
:101E40000F141093200500931F05F0922205E092D5
:101E5000210560912A0370912B0380E090E00E949D
:101E6000982AAB01BC018FEB94E00E94AD159B0159
:101E7000AC0160E074E284E799E40E94702CAB014D
:101E8000BC01CE0107960E94091F69E672E0CE01EF
:101E900001960E941414BE01695F7F4FCE01019626
:101EA0000E94561FBC0183E195E00E945A14CE01A6
:101EB00001960E940F14CE0107960E940F141092F3
:101EC000200510921F0594E1E92EF12CF0922205D5
:101ED000E09221054091A5025091A6026091A702CF
:101EE0007091A802CE0107960E94091F6DE672E06C
:101EF000CE0101960E941414BE01695F7F4FCE018E
:101F000001960E94561FBC0183E195E00E945A147D
:101F1000CE0101960E940F14CE0107960E940F1465
:101F20001093200500931F05F0922205E0922105F1
:101F30004091A1025091A2026091A3027091A4026B
:101F4000CE0107960E94091F61E772E0CE0101965B
:101F50000E941414BE01695F7F4FCE0101960E945A
:101F6000561FBC0183E195E00E945A14CE010196F0
:101F70000E940F14CE0107960E940F140E94501762
:101F80002C960FB6F894DEBF0FBECDBFDF91CF9178
:101F90001F910F91FF90EF9008950895CF92DF92D7
:101FA000EF92FF920F931F93CF93DF936C017A010F
:101FB0008B01C0E0D0E0CE15DF0581F0D8016D9136
:101FC0008D01D601ED91FC910190F081E02DC601CB
:101FD0001995892B11F02196EECF7E01C701DF9173
:101FE000CF911F910F91FF90EF90DF90CF900895C8
:101FF000FC01538D448D252F30E0842F90E0821B0F
:10200000930B541710F0CF96089501970895FC0193
:10201000918D828D981761F0828DDF01A80FB11D1F
:102020005D968C91928D9F5F9F73928F90E0089543
:102030008FEF9FEF0895FC01918D828D981731F0FD
:10204000828DE80FF11D858D90E008958FEF9FEF51
:102050000895FC01918D228D892F90E0805C9F4F27
:10206000821B91098F739927089585E893E00E9458
:10207000291021E0892B09F420E0822F089582E2C3
:1020800094E00E94291021E0892B09F420E0822F9E
:102090000895FC01848DDF01A80FB11DA35ABF4F25
:1020A0002C91848D90E001968F739927848FA68957
:1020B000B7892C93A089B1898C91837080648C93AB
:1020C000938D848D981306C00288F389E02D80815A
:1020D0008F7D80830895EF92FF920F931F93CF938C
:1020E000DF93EC0181E0888F9B8D8C8D981305C068
:1020F000E889F989808185FD26C0F62E0B8D10E0D8
:102100000F5F1F4F0F731127E02E8C8DE8120CC04C
:102110000FB607FCFACFE889F989808185FFF5CFF2
:10212000CE010E944910F1CF8B8DFE01E80FF11D09
:10213000E35AFF4FF0829FB7F8940B8FEA89FB892F
:10214000808180620AC09FB7F894EE89FF8960831E
:10215000E889F98980818370806480839FBF81E0F2
:1021600090E0DF91CF911F910F91FF90EF90089534
:10217000CF93DF93EC01888D8823C9F0EA89FB892E
:10218000808185FD05C0A889B9898C9186FD0FC025
:102190000FB607FCF5CF808185FFF2CFA889B989FA
:1021A0008C9185FFEDCFCE010E944910E7CFDF91E2
:1021B000CF91089580E090E0892B21F00E943F109C
:1021C000811121C080E090E0892B41F080E090E017
:1021D000892B21F00E940000811118C080E090E05E
:1021E000892B41F080E090E0892B21F00E940000D3
:1021F00081110FC080E090E0892B81F00E943510A2
:1022000081110AC008950E940000DCCF0E940000E6
:10221000E5CF0E940000EECF0C9400000895FC0171
:1022200077FDB9C080859185681779070CF0B3C038
:1022300057FDB1C082859385481759070CF0089562
:102240008689823079F484819581DC01A61BB70BE5
:10225000BD016150710986819781DC01A41BB50B1A
:10226000AD010EC0833009F084C064277527CA0110
:10227000862797276827792746815781481B590B5E
:10228000415051092130310531F048F122303105FA
:1022900009F44AC00895CA0157FD07969C01A3E0BE
:1022A00035952795AA95E1F7A481B5812A9FC001AC
:1022B0002B9F900D3A9F900D1124680F791F078C6A
:1022C000F0A1E02DE60FF71F4770552781E090E061
:1022D00001C0880F4A95EAF79081892B48C0CA014E
:1022E00057FD07969C0193E0359527959A95E1F760
:1022F000A481B5812A9FC0012B9F900D3A9F900D1C
:102300001124680F791F078CF0A1E02DE60FF71F4D
:102310004770552781E090E001C0880F4A95EAF7A1
:1023200080959081892323C0CA0157FD07969C019F
:1023300083E0359527958A95E1F7A481B5812A9F99
:10234000C0012B9F900D3A9F900D1124680F791FAB
:10235000078CF0A1E02DE60FF71F4770552781E0AD
:1023600090E001C0880F4A95EAF790818927808321
:102370000895813009F086CF6427752746275727AF
:102380006427752784819581DC01A61BB70BBD01ED
:102390006150710977CF08950895FC016370668BD1
:1023A0008481958126813781613039F0633029F04D
:1023B0009187808733872287089531872087938785
:1023C000828708956F927F928F929F92AF92BF9271
:1023D000CF92DF92EF92FF920F931F93CF93DF93F1
:1023E000EC014B015A0169013801E881F98102844D
:1023F000F385E02D1995E881F9810288F389E02DB4
:1024000087019601A501B401CE011995A501460DDC
:10241000571D41505109E881F9810288F389E02D67
:102420009601B401CE011995E881F9810088F189FE
:10243000E02D9301A501B401CE011995C80CD91C5A
:10244000B60161507109E881F9810088F189E02DB8
:102450009301A501CE011995E881F9810688F789D4
:10246000E02DCE01DF91CF911F910F91FF90EF9062
:10247000DF90CF90BF90AF909F908F907F906F90A4
:1024800019940F931F93CF93DF93DC015696EC9131
:102490005697E23071F0E330E9F0E13079F5FB0175
:1024A00014960D90BC91A02DA41BB50BA21BB30BD1
:1024B00018C0EC01EC81FD81E61BF70BBF016150F8
:1024C0007109EE81FF81DF01A41BB50BAD01421B39
:1024D000530B14C0DA01EC01EE81FF81E61BF70B10
:1024E0003197F7FD0DC0EC014E815F81E417F507D0
:1024F0003CF4AF01BD010E94461B02C00E94AD1B0F
:10250000DF91CF911F910F9108950F931F93DC01DD
:102510005696EC915697E23061F0E33009F1E130E4
:1025200081F51496ED91FC911597E41BF50B31970D
:1025300023C0DC011496ED91FC911597DF01A61BD9
:10254000B70BBD01DC011696ED91FC911797DF01E9
:10255000A41BB50BAD0141505109621B730B11C097
:10256000FA01DC0116964D915C911797DA01A61BD2
:10257000B70BBD01621B730BAB01BF010E94AD1B0A
:102580000CC057FD0AC0DC011696ED91FC9117971F
:102590004E175F0714F40E94461B1F910F91089578
:1025A0008F929F92AF92CF92EF92FF920F931F93D1
:1025B000CF93DF93EC01262F898D9A8D009709F038
:1025C00042C06A3059F41D861C862D898E859F85F0
:1025D00038E0239F800D911D112443C06D3009F414
:1025E000AAC08F898823C9F03C898C859D8546E0E7
:1025F000349F800D911D112448855985481759072E
:1026000064F41D861C863D898E859F8548E0349F35
:10261000800D911D11249F878E87EA88FB88088989
:1026200019894E855F856C857D85AD88CC88CE0106
:102630000E9412192C898C859D8536E0239F800D80
:10264000911D11243EC06A3079F41D861C862D89A7
:10265000FC013896E4918E859F852E9F800D911DFB
:1026600011249F878E8767C06D3009F464C0FC0118
:1026700034963491631708F45EC03296E491E617FD
:1026800008F459C0462F431B342FFC013296859025
:10269000949047E0349F800C911C1124F4013296F1
:1026A00034913196E491332311F0E1110DC0F4011E
:1026B0003496E4912C898C859D85E29F800D911D37
:1026C00011249D878C8737C0F401359644915F892A
:1026D000552319F15C89E32FF0E0E40FF11D47FD6C
:1026E000FA955E9FB0015F9F700D11244C855D854A
:1026F000460F571F688579856417750774F41D8622
:102700001C863D89FC013896E4918E859F853E9F0D
:10271000800D911D11249F878E87EA88FB88088988
:1027200019894E855F856C857D85AD88CC88CE0105
:102730000E941219BCCF81E090E0DF91CF911F91F0
:102740000F91FF90EF90CF90AF909F908F90089552
:102750000F931F93CF93DF93EC01888199810097AA
:1027600029F02A813B812617370788F48B016F5F98
:102770007F4F0E94CE2E009761F0998388831B8340
:102780000A832C813D81232B11F4FC01108281E00E
:1027900001C080E0DF91CF911F910F910895EF92DA
:1027A000FF920F931F93CF93DF936115710511F47F
:1027B00080E01CC041155105C1F07B01EC018C810A
:1027C0009D818A01080F191FB801CE010E94A8132C
:1027D000882371F3288139818C819D81B701820F13
:1027E000931F0E94C82F1D830C8381E0DF91CF913E
:1027F0001F910F91FF90EF900895CF93DF93EC011D
:1028000088819981009711F00E94452E19821882C3
:102810001D821C821B821A82DF91CF910895FC01D8
:10282000808191810C94452EEF92FF920F931F931C
:10283000CF93DF93EC01198218821B821A821D82CA
:102840001C826115710521F18B01FB0101900020B3
:10285000E9F731977F01E61AF70AB7010E94A8133A
:10286000811109C0CE01DF91CF911F910F91FF908F
:10287000EF900C94FD13FD82EC82B8018881998160
:10288000DF91CF911F910F91FF90EF900C94C82F83
:10289000DF91CF911F910F91FF90EF900895DC0190
:1028A000ED91FC910280F381E02D42E050E065E77C
:1028B00072E019940F931F93CF93DF93EC01FB0108
:1028C0004481558160817181E881F9810280F381C1
:1028D000E02D19958C01CE010E944F14800F911F9D
:1028E000DF91CF911F910F910895EF92FF920F9377
:1028F0001F93CF93DF938C017B01C0E0D0E0F70101
:10290000EC0FFD1F6491662361F0D801ED91FC91FD
:102910000190F081E02DC8011995892B11F02196C5
:10292000EECFC8010E944F148C0F9D1FDF91CF91F5
:102930001F910F91FF90EF9008951F920F920FB685
:102940000F9211240BB60F922F933F934F935F93E7
:102950006F937F938F939F93AF93BF93EF93FF9367
:1029600085E893E00E944910FF91EF91BF91AF91EC
:102970009F918F917F916F915F914F913F912F9197
:102980000F900BBE0F900FBE0F901F9018951F92C7
:102990000F920FB60F9211240BB60F922F938F93B5
:1029A0009F93EF93FF93E0919503F09196038081BD
:1029B000E0919B03F0919C0382FD12C09081809175
:1029C0009E038F5F8F7320919F03821751F0E091D8
:1029D0009E03F0E0EB57FC4F958F80939E0301C060
:1029E0008081FF91EF919F918F912F910F900BBE5E
:1029F0000F900FBE0F901F9018951F920F920FB659
:102A00000F9211240BB60F922F933F934F935F9326
:102A10006F937F938F939F93AF93BF93EF93FF93A6
:102A200082E294E00E944910FF91EF91BF91AF9133
:102A30009F918F917F916F915F914F913F912F91D6
:102A40000F900BBE0F900FBE0F901F9018951F9206
:102A50000F920FB60F9211240BB60F922F938F93F4
:102A60009F93EF93FF93E0913204F09133048081C0
:102A7000E0913804F091390482FD12C09081809178
:102A80003B048F5F8F7320913C04821751F0E091DB
:102A90003B04F0E0EE5DFB4F958F80933B0401C05B
:102AA0008081FF91EF919F918F912F910F900BBE9D
:102AB0000F900FBE0F901F9018958F929F92AF921C
:102AC000BF92CF92DF92EF92FF920F931F93CF931B
:102AD000DF93EC016A017B012C813D814E815F8196
:102AE000C701B6010E94FE2B4B015C010E94DE1D56
:102AF000088119812A813B81601B710B820B930B2A
:102B00000E94982A9B01AC01C501B4010E94702C5F
:102B1000688779878A879B870E94DE1D688379830F
:102B20008A839B83CC82DD82EE82FF8220E034E2C6
:102B300044E759E4688579858A859B850E94F92A4E
:102B4000DF91CF911F910F91FF90EF90DF90CF9089
:102B5000BF90AF909F908F9008954F925F926F9229
:102B60007F928F929F92AF92BF92CF92DF92EF921D
:102B7000FF92CF93DF9300D000D0CDB7DEB79E8316
:102B80008D8349835A836B837C830E94DE1D6B0196
:102B90007C01ED81FE8184819581A681B781A701A9
:102BA0009601281B390B4A0B5B0BCA01B9010E9425
:102BB000982A4B015C0120E034E244E759E4ED81BE
:102BC000FE8160817181828193810E94F92AA50131
:102BD00094010E94FF2B9B01AC01C501B4010E942E
:102BE000702C4B015C019B01AC0160E070E080E85F
:102BF0009FE30E94FE2BED81FE8120853185428579
:102C000053850E94F92A2B013C01A5019401698199
:102C10007A818B819C810E94F92A9B01AC01C301BE
:102C2000B2010E94FF2BED81FE8160877187828750
:102C30009387C482D582E682F78226960FB6F894EF
:102C4000DEBF0FBECDBFDF91CF91FF90EF90DF9041
:102C5000CF90BF90AF909F908F907F906F905F903C
:102C60004F90089508958EBD00000DB407FEFDCF6E
:102C70008EB508951F93CF93DF93FC01858D968DBC
:102C8000009729F1162FEF0121A131E03093610364
:102C9000209383031092620310928403DC01ED9170
:102CA000FC910190F081E02D60E019958D8D9E8D55
:102CB000DC01ED91FC910190F081E02D612F1995DF
:102CC0008D8D9E8DDF91CF911F910C94691FA5A5CD
:102CD000B6A59C9183A9809589238C93838D948D2F
:102CE000892B31F0862FDF91CF911F910C943316F1
:102CF00028E030E080E8A1A5B2A591A9462F48239D
:102D000019F04C91942B03C04C91909594239C9373
:102D1000A3A5B4A54C9192A9942B9C93A3A5B4A56B
:102D20004C9192A9909594239C93869521503109BA
:102D300011F7DF91CF911F9108958CBD9DBD08952E
:102D40001F93CF93DF93EC01162F8D8D9E8D892BD2
:102D5000B1F02DA93EA94FA958AD60E074E284EF0F
:102D600090E00E94D42BDA01C9014097A109B10972
:102D7000B695A795979587958093B8000FC08B8DD2
:102D80009C8D892B21F08EAD9FAD0E949D16EFA5E5
:102D9000F8A990818CA9809589238083111102C0A4
:102DA00066EA01C067EACE010E943A168D8D9E8DBB
:102DB000892BB1F029AD3AAD4BAD5CAD60E074E26A
:102DC00084EF90E00E94D42BDA01C9014097A10959
:102DD000B109B695A795979587958093B80006C0D9
:102DE000EFA5F8A990818CA9892B8083DF91CF91E1
:102DF0001F91089590E0FC013197E231F10508F050
:102E00004EC08827EE58FF4F8F4F0C94F62B8091C1
:102E100080008F7703C0809180008F7D8093800039
:102E2000089580918000877FF9CF84B58F7702C0A5
:102E300084B58F7D84BD08958091B0008F7703C0E5
:102E40008091B0008F7D8093B000089580919000B4
:102E50008F7707C0809190008F7D03C08091900094
:102E6000877F8093900008958091A0008F7707C09E
:102E70008091A0008F7D03C08091A000877F809308
:102E8000A0000895809120018F7707C080912001D4
:102E90008F7D03C080912001877F8093200108955A
:102EA000DF92EF92FF920F931F93CF93DF93809166
:102EB000300590913105892BD1F020914805309152
:102EC000490540914A0550914B0560E074E284EF5A
:102ED00090E00E94D42BDA01C9014097A109B10901
:102EE000B695A795979587958093B80016C0809161
:102EF0002E0590912F05892B31F0809151059091ED
:102F000052050E949D16E0914205F0914305908183
:102F10008091470580958923808365E08FEB99E058
:102F20000E94C51F60911705615083E195E00E94E2
:102F30003A162091190530911A05C901079697FD97
:102F4000079653E0959587955A95E1F720911705D7
:102F500030911805829F8001839F100D929F100D64
:102F60001124C0913205D0913305809130059091A4
:102F700031050C0F1D1F009709F451C02091340535
:102F800031E0309361032093830310926203109227
:102F90008403DC01ED91FC910190F081E02D60E46F
:102FA0001995EE24E394F12CDD24D394809130051F
:102FB000909131050C171D0779F1B0E2EB16F10481
:102FC000D8F00E94691F80913405D09261038093EC
:102FD00083031092620310928403809130059091D4
:102FE0003105DC01ED91FC910190F081E02D60E470
:102FF0001995EE24E394F12C8091300590913105E0
:103000006991DC01ED91FC910190F081E02D199521
:10301000BFEFEB1AFB0ACACF0E94691F41C0E091C3
:103020004005F0914105908180914605892B808370
:103030000C171D07A9F1899120912E0530912F05BC
:10304000232B19F00E943316F3CF28E030E040E83C
:10305000E0913C05F0913D0590914405582F542393
:1030600019F05081952B03C0508190959523908342
:10307000E0913E05F0913F05508190914505952BDB
:103080009083E0913E05F0913F0550819091450578
:10309000909595239083469521503109C9F6C8CF64
:1030A0008091300590913105892BD1F020914C050C
:1030B00030914D0540914E0550914F0560E074E20E
:1030C00084EF90E00E94D42BDA01C9014097A10956
:1030D000B109B695A795979587958093B80018C0C4
:1030E000E0914205F0914305908180914705892B3D
:1030F000808380912E0590912F05892B49F0DF91D7
:10310000CF911F910F91FF90EF90DF900C943216AA
:10311000DF91CF911F910F91FF90EF90DF90089575
:103120003F924F925F926F927F928F929F92AF9257
:10313000BF92CF92DF92EF92FF920F931F93CF93A4
:10314000DF9300D000D0CDB7DEB72C013B014A01A0
:103150005901C901079697FD07969C0193E03595A3
:1031600027959A95E1F73C832B83C12CD12CE12C38
:10317000F12C312CC3018E0D9F1D9A838983E0169B
:10318000F106C4F51E821D822D813E812A153B0564
:103190004CF5C90187709927892B11F0330C0EC0AB
:1031A000ED81FE81F7FD379683E0F595E7958A95E9
:1031B000E1F7EC0DFD1DE80DF91D349037FE0CC054
:1031C00021E030E049815A816D817E81640D751D59
:1031D00083E195E00E94FF088D819E8101969E8388
:1031E0008D83D2CF9FEFE91AF90A2B813C81C20E61
:1031F000D31EC0CF26960FB6F894DEBF0FBECDBF4C
:10320000DF91CF911F910F91FF90EF90DF90CF90C2
:10321000BF90AF909F908F907F906F905F904F90F6
:103220003F9008952F923F924F925F926F927F92BC
:103230008F929F92AF92BF92CF92DF92EF92FF92C6
:103240000F931F93CF93DF93CDB7DEB76B970FB676
:10325000F894DEBF0FBECDBF9B8F8A8F1B014A0142
:10326000D22E198708873701A982DC0159962D9142
:103270003C915A972115310509F0FFC018968D91A0
:103280009C911997681779070CF0E7C11A968D91F0
:103290009C911B97481759070CF0DFC1EC2DF0E00B
:1032A000FB83EA839B0146E0C49E200D311D11245F
:1032B0003D872C87121613060CF0CFC16A2D70E0E3
:1032C0007B876A8783E0660F771F8A95E1F77F87A0
:1032D0006E87CB01880D991D181619060CF0BDC11B
:1032E00058968C91811104C08FEA8D1508F4D394FF
:1032F000AA8DBB8DED91FC9111970284F385E02D91
:10330000CD011995B5E0DB9EC0011124EC2DF0E054
:10331000F98BE88B91012B5F3F4F3B8B2A8B3D82D2
:103320002C822101AC01421953095D8B4C8B7981B0
:10333000672F70E07F8B6E8BC4010896998F888F02
:10334000EC89FD89E40DF51DE154FB4FD490540147
:103350009F828E82D0FE16C0AA8DBB8DED91FC910E
:10336000B1E0CB1209C02981213031F40484F58504
:10337000E02D2885398519C00684F785E02DE8847D
:10338000F9841DC0488559854615570519F1AA8D40
:10339000BB8DED91FC91B1E0CB120DC029812130A4
:1033A00051F40484F585E02D9301A501B2018A8DC5
:1033B0009B8D19950FC00684F785E02D73010A8552
:1033C0001B852A813B814E815F816C817D818A8D45
:1033D0009B8D1995D6943FEFA31AB30A4E815F8156
:1033E0006E897F89460F571F5F834E83888D998D25
:1033F000A816B90609F0AECF9FEF491A590AAC8159
:10340000BD81E889F989AE0FBF1FBD83AC832A89CE
:103410003B894216530609F093CF488559854615D6
:10342000570509F4F8C0AA8DBB8DED91FC91B1E070
:10343000CB1211C02981213071F4B1016B5F7F4F34
:103440000088F189E02D830128E030E0A4018A8D15
:103450009B8D1995E0C06C857D854A815B81641BDD
:10346000750B0684F785E02D73010E851F859A0183
:10347000A4018A8D9B8D1995CEC0F9013496E491F3
:10348000DE1AF901329685919491B7E0DB9E800DAA
:10349000911D1124F901259134913B8B2A8BFC015C
:1034A000259134915901FC01329654903196349112
:1034B0003C87329674903196149141E04C1518F087
:1034C0005981523068F0672D072C000C770B7D83F3
:1034D0006C83812F012E000C990B9B838A8304C07F
:1034E0001B821A821D821C82AA8DBB8DED91FC91DC
:1034F00011970284F385E02DCD011995412CD12C33
:10350000612CF981EF2FF0E0FF83EE832C2D30E06A
:103510003B872A87A401410F511D17FD5A955F8BE8
:103520004E8BB101670D711D77FC7A95798F688F8D
:103530007C85671608F06FC0262D30E04A815B81DC
:10354000420F531FAE81BF81A49FC001A59F900D64
:10355000B49F900D1124F401E80FF91FF98BE88B4B
:10356000842D712C4E895F89420F531F5D8B4C8BCC
:10357000751408F04DC051E0580F5E87877041F414
:10358000C5010196EA89FB89EA0DFB1DD4905C0117
:10359000D7FE3AC061E0C61216C07981713099F445
:1035A000AA8DBB8DED91FC9111970484F585E02DDA
:1035B000288539854C895D89688D798D670D711DE8
:1035C000CD01199521C08C819D81870D911DEA85C2
:1035D000FB858E9FB0018F9F700D9E9F700D1124F3
:1035E000620D731DAA8DBB8DED91FC911197068420
:1035F000F785E02DE884F9840E811F812A853B85BB
:1036000048895989CD011995DD0C73948E85B0CF09
:10361000450C63948DCFAA8DBB8DED91FC911197D4
:103620000688F789E02DCD016B960FB6F894DEBFC2
:103630000FBECDBFDF91CF911F910F91FF90EF9003
:10364000DF90CF90BF90AF909F908F907F906F90C2
:103650005F904F903F902F9019946B960FB6F8940F
:10366000DEBF0FBECDBFDF91CF911F910F91FF90B5
:10367000EF90DF90CF90BF90AF909F908F907F9012
:103680006F905F904F903F902F9008950F931F93EE
:10369000CF93DF9377FF04C0260F371F60E070E001
:1036A000DC011496CD91DC911597FB01E20FF31F1D
:1036B000CE17DF071CF49E01261B370B12161306CC
:1036C0000CF046C0FA0157FD3796DF01E3E0B595EF
:1036D000A795EA95E1F7AC9FF001AD9FF00DBC9F77
:1036E000F00D11246E0F7F1FDC015F96ED91FC91B0
:1036F0009097E60FF71F4770552781E090E001C0D3
:10370000880F4A95EAF7482F0130110539F078F013
:1037100002301105E9F42E0F3F1F13C02E0F3F1F7B
:10372000E217F307A9F08081842B8193F9CF80956C
:103730002E0F3F1FE217F30759F0908198239193C2
:10374000F9CFE217F30721F0808184278193F9CF25
:10375000DF91CF911F910F910895EF92FF920F93F8
:103760001F93CF93DF93EC0177FDA5C0EC80FD8024
:103770006E157F050CF09FC057FF04C0240F351F46
:1037800040E050E08E819F81FA01E20FF31F8E1717
:103790009F071CF49C01241B350B121613060CF01A
:1037A0008AC0922F842F8695869586958E9DD0010E
:1037B0008F9DB00D11246A0F7B1FAF8DB8A1A60F8E
:1037C000B71F4770B1F188E0841B482F682F70E065
:1037D000FB01E954FB4FE491281798F4621B71092F
:1037E0002FEF30E002C0359527956A95E2F7E22386
:1037F0000130110549F078F00230110509F05BC085
:103800000EC00130110519F48C91E82B0AC001306B
:10381000110508F049C0E0958C91E82302C08C9115
:10382000E827EC93941708F446C02C813D81A20F41
:10383000B31FE92FE41BE830F8F00230110561F402
:103840008E2F9C9190959C932C813D81A20FB31F4C
:1038500088508830B0F70FC081E00115110509F4D8
:1038600080E081959E2F8C932C813D81A20FB31F08
:1038700098509830C0F7E770EE23E9F0F0E0E1559A
:10388000FB4FE4910130110539F048F00230110589
:1038900091F48C91E82706C08C91E82B03C0E09549
:1038A0008C91E823EC9307C00230110509F4B7CFDF
:1038B000AE0DBF1DBECFDF91CF911F910F91FF9035
:1038C000EF900895CF93DF93282F30E0F901E75967
:1038D000FB4F8491F901ED5DFB4FD491F901E35267
:1038E000FC4FC491CC2391F081110E94FA16EC2F69
:1038F000F0E0EE0FFF1FED53FC4FA591B491EC915A
:10390000ED2381E090E021F480E002C080E090E0CF
:10391000DF91CF9108951F93CF93DF93282F30E04D
:10392000F901E759FB4F8491F901ED5DFB4FD4910B
:10393000F901E352FC4FC491CC23C1F0162F811141
:103940000E94FA16EC2FF0E0EE0FFF1FE755FC4F38
:10395000A591B4919FB7F894111104C08C91D095A2
:10396000D82302C0EC91DE2BDC939FBFDF91CF9177
:103970001F910895CF93DF9390E0FC01ED5DFB4F25
:103980002491FC01E352FC4F8491882361F190E083
:10399000880F991FFC01E157FC4FC591D491FC01A0
:1039A000E755FC4FA591B491611109C09FB7F894F8
:1039B0008881209582238883EC912E230BC062306E
:1039C00061F49FB7F8948881322F309583238883E0
:1039D000EC912E2B2C939FBF06C08FB7F894E881F3
:1039E0002E2B28838FBFDF91CF9108951F93CF9304
:1039F000DF93182FEB0161E00E94BA1C209711F4AD
:103A000060E004C0CF3FD10539F461E0812FDF9140
:103A1000CF911F910C948B1CE12FF0E0E759FB4FE5
:103A2000E4918E2F90E0FC013197E231F10508F02E
:103A30009DC08827EC57FF4F8F4F0C94F62B84B511
:103A4000806884BDC7BD97C084B5806284BDC8BD91
:103A500092C080918000806880938000D09389001C
:103A6000C093880088C0809180008062809380002D
:103A7000D0938B00C0938A007EC0809180008860C4
:103A800080938000D0938D00C0938C0074C080918F
:103A9000B00080688093B000C093B3006CC0809188
:103AA000B00080628093B000C093B40064C0809185
:103AB0009000806880939000D0939900C093980004
:103AC0005AC080919000806280939000D0939B00B8
:103AD000C0939A0050C080919000886080939000BD
:103AE000D0939D00C0939C0046C08091A000806848
:103AF0008093A0008091A0008F7B8093A000D09342
:103B0000A900C093A80037C08091A0008062809374
:103B1000A000D093AB00C093AA002DC08091A0005C
:103B200088608093A000D093AD00C093AC0023C008
:103B300080912001806880932001D0932901C09357
:103B4000280119C080912001806280932001D093C8
:103B50002B01C0932A010FC08091200188608093BF
:103B60002001D0932D01C0932C0105C0C038D10590
:103B70000CF04BCF45CFDF91CF911F910895863345
:103B800008F0865390917B00282F2870977F922B06
:103B900090937B008770806480937C0080917A0092
:103BA000806480937A0080917A0086FDFCCF8091BA
:103BB00078002091790090E0922B08953FB7F89417
:103BC0008091180390911903A0911A03B0911B03DF
:103BD00026B5A89B05C02F3F19F00196A11DB11D68
:103BE0003FBFBA2FA92F982F8827820F911DA11DA3
:103BF000B11DBC01CD0142E0660F771F881F991FE0
:103C00004A95D1F708958F929F92AF92BF92CF922B
:103C1000DF92EF92FF926B017C010E94DE1D4B014F
:103C20005C01C114D104E104F104F1F00E94DE1D35
:103C3000DC01CB0188199909AA09BB09883E934088
:103C4000A105B10570F321E0C21AD108E108F1081D
:103C500088EE880E83E0981EA11CB11CC114D1040B
:103C6000E104F10419F7DDCFFF90EF90DF90CF90E2
:103C7000BF90AF909F908F9008952FB7F894609168
:103C800014037091150380911603909117032FBFB1
:103C900008950F931F930E943D1E60938D037093B0
:103CA0008E0380938F039093900385E893E00E94A6
:103CB000071097FF1FC00E943D1E00918D031091B9
:103CC0008E0320918F0330919003DC01CB01801B88
:103CD000910BA20BB30B0091890310918A032091E1
:103CE0008B0330918C0380179107A207B307E8F28A
:103CF0008FEF9FEF1F910F9108950E94B32F1F9296
:103D00000F920FB60F9211242F933F938F939F938F
:103D1000AF93BF938091140390911503A091160364
:103D2000B09117033091390323E0230F2D3720F48E
:103D30000196A11DB11D05C026E8230F0296A11D05
:103D4000B11D209339038093140390931503A0931E
:103D50001603B09317038091180390911903A09153
:103D60001A03B0911B030196A11DB11D8093180386
:103D700090931903A0931A03B0931B03BF91AF91C3
:103D80009F918F913F912F910F900FBE0F901F9099
:103D900018950F931F93CF93DF938C0161157105D5
:103DA00061F0FB0101900020E9F73197AF01461B5C
:103DB000570B0E94CE0FEC0102C0C0E0D0E0C8015A
:103DC0000E944F148C0F9D1FDF91CF911F910F9177
:103DD00008952091190530911A05C901079697FD9C
:103DE000079623E0959587952A95E1F72091170589
:103DF00030911805829FA001839F500D929F500D16
:103E0000112460E070E080913205909133050C94AC
:103E1000C12FCF92DF92EF92FF920F931F93CF9318
:103E2000DF93CDB7DEB7A1970FB6F894DEBF0FBE14
:103E3000CDBF7C01CB01BA01F70111821082138240
:103E40001282158214828E010F5F1F4F22E044E020
:103E50000E94A3266C01009771F0FC0101900020E4
:103E6000E9F731978F01081B190BB801C7010E94B0
:103E7000A813811104C0C7010E94FD1308C0F701F7
:103E800015830483B601808191810E94C82FA19679
:103E90000FB6F894DEBF0FBECDBFDF91CF911F915B
:103EA0000F91FF90EF90DF90CF900895CF93DF9325
:103EB000EC01FB0144815581608171810E94CF1327
:103EC000811103C0CE010E94FD13CE01DF91CF917D
:103ED000089530918403313208F04BC08091600323
:103EE0008111FCCF9091830322E02093600321E0B5
:103EF00020935F032FEF20935E0310925D033093B6
:103F00005C03E3E6F3E0ACE3B3E020E0321721F03A
:103F100041914D932F5FFACF10923B0320913B03C9
:103F2000990F922B90933B0390913A03913061F457
:103F300010923A0390913B039093BB009091BC0088
:103F400093FDF8CF95EC01C095EE9093BC00909155
:103F500060039230E1F390915E039F3F79F080918E
:103F60005E03803241F080915E03803331F084E063
:103F700005C081E003C082E001C083E010926203CB
:103F800010928403109261030895EF92FF920F93B1
:103F90001F93CF93DF937C01C62F809130059091C2
:103FA0003105009709F459C02091340531E0309370
:103FB0006103209383031092620310928403DC0157
:103FC000ED91FC910190F081E02D60E01995870161
:103FD000EE24E394F12CD1E08091300590913105ED
:103FE000CC2399F1B0E2EB16F104D8F00E94691FDE
:103FF00080913405D0936103809383031092620310
:10400000109284038091300590913105DC01ED918F
:10401000FC910190F081E02D60E01995EE24E3948D
:10402000F12C8091300590913105F8016491DC010B
:10403000ED91FC910190F081E02D1995BFEFEB1A05
:10404000FB0AC1500F5F1F4FC7CFDF91CF911F9168
:104050000F91FF90EF900C94691FE0914005F09153
:104060004105908180914605809589238083870151
:10407000CC2309F439C0F801849120912E053091A8
:104080002F05232B31F00E943316C1500F5F1F4FB5
:10409000EFCF28E030E040E8E0913C05F0913D05AD
:1040A00090914405582F542319F05081952B03C04B
:1040B0005081909595239083E0913E05F0913F05C6
:1040C000508190914505952B9083E0913E05F091AC
:1040D0003F05508190914505909595239083469595
:1040E00021503109C9F6D1CFDF91CF911F910F91A6
:1040F000FF90EF90089582E392E0909314058093EF
:1041000013058091320590913305009711F00C94BE
:10411000452E0895CF93DF93CDB7DEB762970FB6E4
:10412000F894DEBF0FBECDBF789484B5826084BDA5
:1041300084B5816084BD85B5826085BD85B58160AB
:1041400085BD80916E00816080936E001092810029
:1041500080918100826080938100809181008160E4
:1041600080938100809180008160809380008091A5
:10417000B10084608093B1008091B0008160809331
:10418000B0008091910082608093910080919100B5
:104190008160809391008091900081608093900075
:1041A0008091A10082608093A1008091A100816034
:1041B0008093A1008091A00081608093A0008091F5
:1041C000210182608093210180912101816080938F
:1041D00021018091200181608093200180917A00EB
:1041E000846080937A0080917A00826080937A0064
:1041F00080917A00816080937A0080917A00806853
:1042000080937A001092C10060E08FE30E94BA1C94
:1042100060E08EE30E94BA1C60E080E40E94BA1C59
:1042200060E082E00E94BA1C60E083E00E94BA1C59
:1042300060E086E30E94BA1C60E087E30E94BA1C3B
:1042400061E088E00E94BA1C61E089E00E94BA1C2B
:1042500061E08AE00E94BA1C61E08BE00E94BA1C17
:1042600061E084E30E94BA1C61E082E30E94BA1C10
:10427000E0919503F091960322E02083E091910371
:10428000F09192031082E0919303F09194038FECEC
:10429000808310929D03E0919903F0919A0396E038
:1042A0009083E0919703F0919803808180618083EF
:1042B000E0919703F0919803808188608083E0917A
:1042C0009703F0919803808180688083E091970341
:1042D000F091980380818F7D8083E0913204F0918A
:1042E00033042083E0912E04F0912F041082E0919A
:1042F0003004F091310480E1808310923A04E0911F
:104300003604F09137049083E0913404F091350441
:10431000808180618083E0913404F0913504808154
:1043200088608083E0913404F09135048081806856
:104330008083E0913404F091350480818F7D808307
:1043400060ED77E080E090E00E94031E80913205EE
:1043500090913305892B41F52091190530911A056B
:10436000C901079697FD079623E0959587952A95AD
:10437000E1F72091170530911805AC01429FC0016B
:10438000439F900D529F900D11240E94AD2D90934C
:10439000330580933205892B39F466EA7EE082E2A8
:1043A00094E00E947514FFCF0E94E91E2091190528
:1043B00030911A0580911705909118052132310529
:1043C000A4F0B9016054710977FF02C06F5F7F4F9D
:1043D000759567958255910997FD019600E410E067
:1043E00022E530E046EB5BE013C0B9016052710991
:1043F00077FF02C06F5F7F4F75956795835791096F
:1044000097FD019600E210E023E730E046ED59E029
:10441000959587950E94901882E08093350580914C
:10442000300590913105892BB9F18CE380933405E7
:1044300010922103109220031092620310928403C1
:104440001092600381E080935F0310923A0361E071
:1044500084E10E948B1C61E085E10E948B1C8091AD
:10446000B9008E7F8093B9008091B9008D7F8093D1
:10447000B90088E48093B80085E48093BC0089EE9D
:1044800099E090931F0380931E038AEE99E0909326
:104490001D0380931C03BEC061E0809139050E941A
:1044A000BA1C61E080913A050E94BA1C80913905DE
:1044B000082E000C990BFC01E352FC4FE491F0E054
:1044C000EE0FFF1FE755FC4F2591349130934105C6
:1044D00020934005FC01ED5DFB4FE491E093460520
:1044E00080913A05082E000C990BFC01E352FC4F19
:1044F000E491F0E0EE0FFF1FE755FC4FA591B4915A
:10450000B0934305A0934205FC01ED5DFB4FE491A0
:10451000E09347058C91E82BEC9380912E059091C8
:104520002F05892B09F434C01FB7F89480912C0310
:10453000811127C0E2E1F4E08491E8E5F4E0949190
:10454000E82FF0E0EE0FFF1FE157FC4FA591B4916B
:10455000EC91E92321F461E085E30E948B1C61E08A
:1045600085E30E94BA1C8CB580618CBD8CB58064DB
:104570008CBD61E084E30E94BA1C61E083E30E9489
:10458000BA1C80912C038F5F80932C031FBF42C005
:1045900061E0809137050E94BA1C61E08091380586
:1045A0000E94BA1C80913705082E000C990BFC0163
:1045B000E352FC4FE491F0E0EE0FFF1FE755FC4F94
:1045C0002591349130933D0520933C05FC01ED5D30
:1045D000FB4FE491E093440580913805082E000CD0
:1045E000990BFC01E352FC4FE491F0E0EE0FFF1F4A
:1045F000E755FC4FA591B491B0933F05A0933E05BC
:10460000FC01ED5DFB4FE491E09345058C91E09555
:10461000E823EC9380913B0587FD1EC061E00E947A
:10462000BA1C61E080913B050E948B1C61E070E048
:1046300080E090E00E94031E60E080913B050E94B4
:104640008B1C6AE070E080E090E00E94031E61E055
:1046500080913B050E948B1C809130059091310523
:10466000892BD1F0209148053091490540914A05A8
:1046700050914B0560E074E284EF90E00E94D42BEF
:10468000DA01C9014097A109B109B695A795979597
:1046900087958093B80016C080912E0590912F05C4
:1046A000892B31F080915105909152050E949D1601
:1046B000E0914205F09143059081809147058095F6
:1046C0008923808364E082ED99E00E94C51F609198
:1046D0001905615083E195E00E943A1664E08EEC82
:1046E00099E00E94C51F80913505813011F064E189
:1046F00001C060E183E195E00E943A1664E08AEC33
:1047000099E00E94C51F8FE880935005809117059E
:10471000909118058038910591F480911905909138
:104720001A0580349105E9F480913505813011F046
:104730008FEC01C08FE98093500512E113C08036E1
:10474000910579F48091190590911A05409749F4E3
:1047500080913505813011F08FEA01C080E18093AE
:10476000500512E06AED83E195E00E943A16612F50
:1047700083E195E00E943A1661E883E195E00E94AA
:104780003A166091500583E195E00E943A1669ED72
:1047900083E195E00E943A1680913505813011F051
:1047A00061EF01C062E283E195E00E943A1666E0A3
:1047B00084EC99E00E94C51F8091300590913105ED
:1047C000892BD1F020914C0530914D0540914E053B
:1047D00050914F0560E074E284EF90E00E94D42B8A
:1047E000DA01C9014097A109B109B695A795979536
:1047F00087958093B80011C0E0914205F091430580
:10480000908180914705892B808380912E0590911E
:104810002F05892B11F00E9432160E94E91EFF24F9
:10482000F394F0922705F092280501E010E0109330
:104830002605009325051093240500932305109267
:10484000200510921F05109222051092210560E9A3
:104850007EE083E195E00E9475141092200510928D
:104860001F0584E190E0909322058093210563E881
:104870007EE083E195E00E9475140E94501760ED80
:1048800077E080E090E00E94031E67E872E082E239
:1048900094E00E94C91E0E94E91EF0922705F09242
:1048A00028051093260500932505109324050093F1
:1048B00023051092200510921F05109222051092D8
:1048C000210566E77EE083E195E00E9475140E9471
:1048D00050170FE710E00E94DE1D20913503309144
:1048E0003603AB01421B530B50932B0340932A0317
:1048F00060933503709336038093370390933803A6
:104900000E94AC0C83E00E94621C019739F40E9463
:10491000490E0E942B0D0E94A70B94C00E94DE1D21
:10492000C0903103D0903203E0903303F090340311
:1049300050E1C50E57E2D51EE11CF11CC616D70684
:10494000E806F90608F07EC040E050E0BA01CE016A
:104950000D960E94091F40E050E0BA01CE01079673
:104960000E94091F68E772E0CE0101960E941414AC
:10497000BE01695F7F4FCE0101960E94561F7C01E8
:1049800047E050E06FE772E00E94CF13882309F4FC
:104990005CC0BE01635F7F4FC7010E94561FBC0110
:1049A00082E294E00E945A14CE0101960E940F14F4
:1049B000CE0107960E940F14CE010D960E940F148F
:1049C0000E942B0D0E94DE1D609331037093320311
:1049D00080933303909334030E943D1EC0902D03B7
:1049E000D0902E03E0902F03F090300328E8C20E01
:1049F00023E1D21EE11CF11CC616D706E806F90613
:104A000008F085CF0E943D1E60932D0370932E0306
:104A100080932F03909330036B017C0148EEC40E0A
:104A200043E0D41EE11CF11C0E943D1E6C157D0567
:104A30008E059F0508F06BCF83E00E94621C892BD6
:104A400041F065CF0E94DA1046CFC7010E94FD13E6
:104A5000A0CF109303020093020223E333E343E960
:104A60005FE360912203709123038091240390916E
:104A700025030E94572D1816CCF49FE7A92EB12CC0
:104A8000B0920102A092000261E088E00E948B1CBB
:104A90006FE770E08AE00E94F61C61E089E00E9406
:104AA0008B1CB5018BE00E94F61CBECF86ECA82EB5
:104AB000B12CE6CF0F931F93E5E8F3E01382128247
:104AC00048EE53E060E070E044835583668377836B
:104AD0008EE092E09183808325E331E0358724875F
:104AE00024E331E03787268720E331E0318B208BC8
:104AF00021E331E0338B228B22E331E0358B248BB1
:104B000026E331E0378B268B118E128E138E148E96
:104B1000E2E2F4E013821282448355836683778352
:104B20009183808385EC90E09587848784EC90E086
:104B30009787868780EC90E0918B808B81EC90E06A
:104B4000938B828B82EC90E0958B848B86EC90E04B
:104B5000978B868B118E128E138E148EA9EAB5E078
:104B600013961C921E92129714964D935D936D931B
:104B70007C93179780E292E011969C938E93E3E1E9
:104B8000F5E01382128220E830E03583248380E24E
:104B900090E0978386833187208793878287168A60
:104BA000158614861786168681E0858B848B2FEFF9
:104BB0003FEF338B228B318B208B878B108E128EA5
:104BC000118E22E332E031832083148E138EB68F50
:104BD000A58F10A2178E9FEF94A395A396A397A3DA
:104BE00090A740E85AE166E070E045AB56AB67AB92
:104BF00070AF40EA56E861E070E041AF52AF63AF9A
:104C000074AF90E596AF17AE40E050E66AEE76E4FA
:104C100040930705509308056093090570930A05B2
:104C20004093FB045093FC046093FD047093FE04D6
:104C30004093EF045093F0046093F1047093F204F6
:104C400040E051EE65EF75E04093E3045093E404D7
:104C50006093E5047093E6044093D7045093D8041E
:104C60006093D9047093DA044093CB045093CC043E
:104C70006093CD047093CE04E0E8F5E0158E168EB7
:104C8000178E10A211A212A213A214A215A216A28C
:104C900017A210A640E050E060EA70E44083518320
:104CA00062837383148215821682178240E050E07B
:104CB00060E87FE340875187628773874DEC5CEC47
:104CC0006CE47DE34487558766877787808FE7E5C7
:104CD000F5E0158E168E178E10A211A212A213A245
:104CE00014A215A216A217A210A600E010E028EC4C
:104CF00032E4008311832283338314821582168267
:104D0000178200E010E020E232E40087118722875A
:104D100033874487558766877787808FE3E5F5E09B
:104D200011821082138212828DEC9CECACE4BEE303
:104D30008093BF049093C004A093C104B093C204B5
:104D40001F910F910895EF920F931F93CF93DF93CD
:104D5000E80147FD02C034E001C034E1042E000C3C
:104D6000550B57FF03C0519541955109E32E022F72
:104D7000242FAE010E94C726CE01DF91CF911F9153
:104D80000F91EF900895662777270C943E288F9215
:104D90009F92AF92BF92CF92DF92EF92FF920F93CA
:104DA0001F93CF93DF93CDB7DEB729970FB6F89453
:104DB000DEBF0FBECDBF6A01122FB02E2BE320172E
:104DC00020F0FF24F394F00E02C02CE3F22E0F2DFE
:104DD00027E0AE014F5F5F4F0E949A29BC014981D5
:104DE000842F8970813031F0E1FC06C0E0FE06C0FE
:104DF00090E205C09DE203C09BE201C090E05E2D01
:104E0000507143FF3CC0911102C083E001C084E0B7
:104E1000811718F4212F281B01C020E051110BC06D
:104E2000F601822F30E2882319F031938150FBCFB5
:104E3000C20ED11C20E0992329F0D6019C93F601E3
:104E400031966F01C6010396E2FE0AC03EE4D60128
:104E50003C9341E411964C93119712963C9306C0F3
:104E60003EE6F601308341E641833283FC01322F76
:104E700040E2332309F442C041933150FACF42FF5C
:104E800044C0911102C083E001C084E0811718F48E
:104E9000212F281B01C020E051110BC0F601822FE9
:104EA00030E2882319F031938150FBCFC20ED11C20
:104EB00020E0992329F0D6019C93F60131966F01E9
:104EC000C6010396E2FE0BC039E4D6013C933EE4F2
:104ED00011963C93119736E412963C9307C039E63D
:104EE000F60130833EE6318336E63283FC01322F11
:104EF00040E2332319F041933150FBCFFC01E20F24
:104F0000F11D10828EEF9FEFA6C021E030E09111DD
:104F100002C020E030E0161617061CF4FB013196A3
:104F200002C0E1E0F0E02E0F3F1FBB2021F0EB2D8F
:104F3000F0E0319602C0E0E0F0E02E0F3F1FE12FDD
:104F4000F0E02E173F071CF4121B212F01C020E0B8
:104F50008E2D887159F4F601822F30E2882319F0E2
:104F600031938150FBCFC20ED11C20E0992329F050
:104F7000D6019C93F60131966F0151110BC0F601D9
:104F8000822F90E3882319F091938150FBCFC20EBA
:104F9000D11C20E00F2D060F9A81342F307144FF71
:104FA00003C0913309F40150101624F4093018F0AD
:104FB00008E001C001E0AB0177FF02C040E050E033
:104FC000FB01E41BF50BA1E0B0E0AC0FBD1FEA0F45
:104FD000FB1F8EE2A82E4B01801A91080B2D10E0CA
:104FE0001195019511094F3FBFEF5B0721F4D601E1
:104FF000AC9211966D01641775072CF08416950616
:1050000014F4818101C080E3415051093196D601E9
:1050100011967D014017510724F0D6018C9367014A
:10502000E2CF6417750739F4963320F4953319F4F9
:10503000311101C081E3F6018083F701822F90E2F4
:10504000882319F091938150FBCFF701E20FF11DF6
:10505000108280E090E029960FB6F894DEBF0FBE74
:10506000CDBFDF91CF911F910F91FF90EF90DF9017
:10507000CF90BF90AF909F908F9008958F929F9206
:10508000AF92BF92CF92DF92EF92FF920F931F9356
:10509000CF93DF93EC016B016115710519F0FB01F2
:1050A000918380837E01FFEFEF1AFF0A0881802F32
:1050B00090E00E94722A892B11F0E701F3CF0D32A4
:1050C00039F47E0182E0E80EF11C098111E008C08C
:1050D0000B3229F47E0192E0E90EF11C098110E007
:1050E000E701219743E050E062E672E0CE010E94C2
:1050F0007B2A892BC1F4239645E050E06DE572E0F0
:10510000CE010E947B2A892B09F42596C114D10473
:1051100019F0F601D183C0831111F6C060E070E090
:1051200080E89FE7FAC043E050E06AE572E0CE0114
:105130000E947B2A892B59F4C114D10409F4E9C0D7
:10514000F2E0EF0EF11CF601F182E082E2C020E015
:1051500030E0A901C0E0D0E0F70160EDA62EA00E7E
:1051600089E08A1530F1912F9260B92E812F8870D5
:1051700012FF04C0811124C0219622C08111219701
:10518000A5E0B0E00E94BA2BDC01CB01880F991F8B
:10519000AA1FBB1F9C01AD012A0D311D411D511DD0
:1051A000283989E93807480789E1580748F0166027
:1051B00006C09EEFA9120AC013FD40C01860B12EB0
:1051C0008FEFE81AF80A00811B2DC6CF802F8F7D44
:1051D0008534A1F580818D3211F4106106C08B32C7
:1051E00021F0319661E070E004C08181329662E086
:1051F00070E080538A3018F0E61BF70B1FC060E0A8
:1052000070E060389CE079075CF4DB01AA0FBB1FFB
:10521000AA0FBB1F6A0F7B1F660F771F680F711DD8
:105220003196DF0111978C9180538A3050F314FF2F
:1052300003C0719561957109C60FD71F11FF08C092
:10524000C114D10429F0CF010197F6019183808325
:10525000CA01B9010E94982A212F2370233019F026
:105260004B015C0106C04B015C01B7FAB094B7F882
:10527000B09420E030E0A901C501B4010E94932A56
:10528000882309F43EC0D7FF06C0D195C195D10946
:1052900009E712E002C001E912E06801F8E1CF1A63
:1052A000D10890E2E92EF12CCE15DF0574F0F8015B
:1052B0002591359145915491C501B4010E94F92A77
:1052C0004B015C01CE19DF09EFCF04501109F594B1
:1052D000E7940C151D0541F78A2D880F8B2D881F2B
:1052E0008F3F49F020E030E0A901C501B4010E94E0
:1052F000932A811106C082E290E09093B6058093D4
:10530000B505C501B40109C060E070E080E89FEF19
:1053100004C060E070E080EC9FE7DF91CF911F91C7
:105320000F91FF90EF90DF90CF90BF90AF909F9044
:105330008F900895283008F027E03327DA01990F7D
:10534000311D87FD916000966105710539F4326069
:105350002E5F3D9330E32A95E1F708959F3F30F0AB
:1053600080387105610509F03C5F3C5F3D939130E9
:1053700008F08068911DDF93CF931F930F93FF92E6
:10538000EF92192F987F9695E92F96959695E90FAC
:10539000FF27E151FD4F99273327EE24FF24A70172
:1053A000E70105900894079428F4360FE71EF81ECD
:1053B000491F511D660F771F881F991F0694A1F77B
:1053C0000590079428F4E70EF81E491F561FC11DCB
:1053D000770F881F991F661F0694A1F70590079401
:1053E00028F4F80E491F561FC71FD11D880F991F9B
:1053F000661F771F0694A1F70590079420F4490FC4
:10540000561FC71FD81F990F661F771F881F069446
:10541000A9F784911095177041F0D695C7955795C7
:105420004795F794E7941A95C1F7E5E9F2E0689497
:105430001590159135916591959105907FE2739541
:10544000E118F10A430B560BC90BD009C0F7E10C68
:10545000F11E431F561FC91FD01D7EF4703311F477
:105460008A95E6CFE894015030F0080F0AF400273F
:10547000021708F4202F2395022F7A3328F079E3BE
:105480007D932A95E9F710C07D932A9589F60694B5
:1054900097956795379517951794E118F10A430B7F
:1054A000560BC90BD00998F023957E9173957A33EA
:1054B00008F070E37C932013B8F77E9170617D93C0
:1054C00030F0839571E37D9370E32A95E1F7112421
:1054D000EF90FF900F911F91CF91DF91992787FD5A
:1054E0009095089591110C94662B803219F0895093
:1054F0008550C8F70895FB01DC014150504088F009
:105500008D9181341CF08B350CF4805E6591613493
:105510001CF06B350CF4605E861B611171F3990B06
:105520000895881BFCCF0E94D52A08F481E00895D5
:10553000E89409C097FB3EF490958095709561952D
:105540007F4F8F4F9F4F9923A9F0F92F96E9BB27E3
:105550009395F695879577956795B795F111F8CF5F
:10556000FAF4BB0F11F460FF1BC06F5F7F4F8F4FCA
:105570009F4F16C0882311F096E911C0772321F0C0
:105580009EE8872F762F05C0662371F096E8862F58
:1055900070E060E02AF09A95660F771F881FDAF7AF
:1055A000880F9695879597F90895990F0008550FDC
:1055B000AA0BE0E8FEEF16161706E807F907C0F099
:1055C00012161306E407F50798F0621B730B840BA1
:1055D000950B39F40A2661F0232B242B252B21F47B
:1055E00008950A2609F4A140A6958FEF811D811D1B
:1055F00008950E940C2B0C94802B0E94722B38F083
:105600000E94792B20F0952311F00C94692B0C94B7
:105610006F2B11240C94B42B0E94912B70F3959F47
:10562000C1F3950F50E0551F629FF001729FBB2799
:10563000F00DB11D639FAA27F00DB11DAA1F649F35
:105640006627B00DA11D661F829F2227B00DA11DE8
:10565000621F739FB00DA11D621F839FA00D611D6E
:10566000221F749F3327A00D611D231F849F600D8F
:10567000211D822F762F6A2F11249F5750409AF0B8
:10568000F1F088234AF0EE0FFF1FBB1F661F771F44
:10569000881F91505040A9F79E3F510580F00C940F
:1056A000692B0C94B42B5F3FE4F3983ED4F38695BA
:1056B00077956795B795F795E7959F5FC1F7FE2BAF
:1056C000880F911D9695879597F9089599278827B2
:1056D000089597F99F6780E870E060E008959FEF74
:1056E00080EC089500240A94161617061806090679
:1056F000089500240A941216130614060506089548
:10570000092E0394000C11F4882352F0BB0F40F4CF
:10571000BF2B11F460FF04C06F5F7F4F8F4F9F4F0F
:10572000089557FD9058440F551F59F05F3F71F091
:105730004795880F97FB991F61F09F3F79F08795F8
:105740000895121613061406551FF2CF4695F1DF81
:1057500008C0161617061806991FF1CF8695710511
:10576000610508940895E894BB2766277727CB0145
:1057700097F908950E94C52BA59F900DB49F900D99
:10578000A49F800D911D11240895A29FB001B39F85
:10579000C001A39F700D811D1124911DB29F700D3A
:1057A000811D1124911D0895A1E21A2EAA1BBB1B75
:1057B000FD010DC0AA1FBB1FEE1FFF1FA217B307DD
:1057C000E407F50720F0A21BB30BE40BF50B661FF3
:1057D000771F881F991F1A9469F7609570958095B7
:1057E00090959B01AC01BD01CF010895EE0FFF1F05
:1057F000881F8BBF0790F691E02D19945058BB2756
:10580000AA270E94162C0C94802B0E94722B38F031
:105810000E94792B20F039F49F3F19F426F40C9460
:105820006F2B0EF4E095E7FB0C94692BE92F0E9497
:10583000912B58F3BA17620773078407950720F076
:1058400079F4A6F50C94B32B0EF4E0950B2EBA2F39
:10585000A02D0B01B90190010C01CA01A001112476
:10586000FF27591B99F0593F50F4503E68F11A1622
:10587000F040A22F232F342F4427585FF3CF4695B3
:1058800037952795A795F0405395C9F77EF41F16D5
:10589000BA0B620B730B840BBAF09150A1F0FF0F9F
:1058A000BB1F661F771F881FC2F70EC0BA0F621F8B
:1058B000731F841F48F4879577956795B795F7957B
:1058C0009E3F08F0B0CF9395880F08F09927EE0F10
:1058D0009795879508950E941A2DE3950C94432D72
:1058E0000E94842C0C94802B0E94792B58F00E94EB
:1058F000722B40F029F45F3F29F00C94692B511171
:105900000C94B42B0C946F2B0E94912B68F3992369
:10591000B1F3552391F3951B550BBB27AA276217AB
:105920007307840738F09F5F5F4F220F331F441FB8
:10593000AA1FA9F335D00E2E3AF0E0E832D09150EC
:105940005040E695001CCAF72BD0FE2F29D0660FD9
:10595000771F881FBB1F261737074807AB07B0E81C
:1059600009F0BB0B802DBF01FF2793585F4F3AF022
:105970009E3F510578F00C94692B0C94B42B5F3F3B
:10598000E4F3983ED4F3869577956795B795F795A8
:105990009F5FC9F7880F911D9695879597F9089590
:1059A000E1E0660F771F881FBB1F6217730784072C
:1059B000BA0720F0621B730B840BBA0BEE1F88F73B
:1059C000E09508950E94E92C6894B1110C94B42BD1
:1059D00008950E94992B88F09F5798F0B92F992726
:1059E000B751B0F0E1F0660F771F881F991F1AF0CA
:1059F000BA95C9F714C0B13091F00E94B32BB1E051
:105A000008950C94B32B672F782F8827B85F39F04F
:105A1000B93FCCF3869577956795B395D9F73EF462
:105A200090958095709561957F4F8F4F9F4F08950A
:105A30000C946F2B0E94992BD8F3E894E0E0BB27DD
:105A40009F57F0F02AED3FE049EC06C0EE0FBB0F88
:105A5000661F771F881F28F0B23A62077307840712
:105A600028F0B25A620B730B840BE3959A9572F788
:105A7000803830F49A95BB0F661F771F881FD2F7C6
:105A800090480C94662DEF93E0FF07C0A2EA2AED40
:105A90003FE049EC5FEB0E94162C0E94802B0F9098
:105AA000039401FC9058ECE2F1E00C94722D0E94FA
:105AB000D52A08F48FEF08959F930E941A2D0F9016
:105AC00007FCEE5F0C94432D9F3F31F0915020F482
:105AD000879577956795B795880F911D96958795CA
